{
	"Solidity/Struct.sol": {
		"multipleStruct": {
			"abi": [
				{
					"inputs": [
						{
							"internalType": "string",
							"name": "_name",
							"type": "string"
						},
						{
							"internalType": "uint256",
							"name": "_age",
							"type": "uint256"
						},
						{
							"internalType": "bool",
							"name": "_isMarried",
							"type": "bool"
						}
					],
					"name": "addPerson",
					"outputs": [],
					"stateMutability": "nonpayable",
					"type": "function"
				},
				{
					"inputs": [],
					"name": "getCount",
					"outputs": [
						{
							"internalType": "uint256",
							"name": "",
							"type": "uint256"
						}
					],
					"stateMutability": "view",
					"type": "function"
				},
				{
					"inputs": [
						{
							"internalType": "uint256",
							"name": "index",
							"type": "uint256"
						}
					],
					"name": "getIndex",
					"outputs": [
						{
							"internalType": "string",
							"name": "",
							"type": "string"
						},
						{
							"internalType": "uint256",
							"name": "",
							"type": "uint256"
						},
						{
							"internalType": "bool",
							"name": "",
							"type": "bool"
						}
					],
					"stateMutability": "view",
					"type": "function"
				},
				{
					"inputs": [
						{
							"internalType": "uint256",
							"name": "",
							"type": "uint256"
						}
					],
					"name": "profiles",
					"outputs": [
						{
							"internalType": "string",
							"name": "name",
							"type": "string"
						},
						{
							"internalType": "uint256",
							"name": "age",
							"type": "uint256"
						},
						{
							"internalType": "bool",
							"name": "isMarried",
							"type": "bool"
						}
					],
					"stateMutability": "view",
					"type": "function"
				}
			],
			"devdoc": {
				"kind": "dev",
				"methods": {},
				"version": 1
			},
			"evm": {
				"assembly": "    /* \"Solidity/Struct.sol\":2923:3851  contract multipleStruct {... */\n  mstore(0x40, 0x80)\n  callvalue\n  dup1\n  iszero\n  tag_1\n  jumpi\n  0x00\n  dup1\n  revert\ntag_1:\n  pop\n  dataSize(sub_0)\n  dup1\n  dataOffset(sub_0)\n  0x00\n  codecopy\n  0x00\n  return\nstop\n\nsub_0: assembly {\n        /* \"Solidity/Struct.sol\":2923:3851  contract multipleStruct {... */\n      mstore(0x40, 0x80)\n      callvalue\n      dup1\n      iszero\n      tag_1\n      jumpi\n      0x00\n      dup1\n      revert\n    tag_1:\n      pop\n      jumpi(tag_2, lt(calldatasize, 0x04))\n      shr(0xe0, calldataload(0x00))\n      dup1\n      0x032ce9aa\n      eq\n      tag_3\n      jumpi\n      dup1\n      0x8e7cb6e1\n      eq\n      tag_4\n      jumpi\n      dup1\n      0xa87d942c\n      eq\n      tag_5\n      jumpi\n      dup1\n      0xc36fe3d6\n      eq\n      tag_6\n      jumpi\n    tag_2:\n      0x00\n      dup1\n      revert\n        /* \"Solidity/Struct.sol\":3244:3416  function addPerson(... */\n    tag_3:\n      tag_7\n      0x04\n      dup1\n      calldatasize\n      sub\n      dup2\n      add\n      swap1\n      tag_8\n      swap2\n      swap1\n      tag_9\n      jump\t// in\n    tag_8:\n      tag_10\n      jump\t// in\n    tag_7:\n      stop\n        /* \"Solidity/Struct.sol\":3463:3717  function getIndex(uint256 index)... */\n    tag_4:\n      tag_11\n      0x04\n      dup1\n      calldatasize\n      sub\n      dup2\n      add\n      swap1\n      tag_12\n      swap2\n      swap1\n      tag_13\n      jump\t// in\n    tag_12:\n      tag_14\n      jump\t// in\n    tag_11:\n      mload(0x40)\n      tag_15\n      swap4\n      swap3\n      swap2\n      swap1\n      tag_16\n      jump\t// in\n    tag_15:\n      mload(0x40)\n      dup1\n      swap2\n      sub\n      swap1\n      return\n        /* \"Solidity/Struct.sol\":3760:3849  function getCount() public view returns (uint256) {... */\n    tag_5:\n      tag_17\n      tag_18\n      jump\t// in\n    tag_17:\n      mload(0x40)\n      tag_19\n      swap2\n      swap1\n      tag_20\n      jump\t// in\n    tag_19:\n      mload(0x40)\n      dup1\n      swap2\n      sub\n      swap1\n      return\n        /* \"Solidity/Struct.sol\":3164:3189  Profile[] public profiles */\n    tag_6:\n      tag_21\n      0x04\n      dup1\n      calldatasize\n      sub\n      dup2\n      add\n      swap1\n      tag_22\n      swap2\n      swap1\n      tag_13\n      jump\t// in\n    tag_22:\n      tag_23\n      jump\t// in\n    tag_21:\n      mload(0x40)\n      tag_24\n      swap4\n      swap3\n      swap2\n      swap1\n      tag_16\n      jump\t// in\n    tag_24:\n      mload(0x40)\n      dup1\n      swap2\n      sub\n      swap1\n      return\n        /* \"Solidity/Struct.sol\":3244:3416  function addPerson(... */\n    tag_10:\n        /* \"Solidity/Struct.sol\":3362:3370  profiles */\n      0x00\n        /* \"Solidity/Struct.sol\":3376:3408  Profile(_name, _age, _isMarried) */\n      mload(0x40)\n      dup1\n      0x60\n      add\n      0x40\n      mstore\n      dup1\n        /* \"Solidity/Struct.sol\":3384:3389  _name */\n      dup6\n        /* \"Solidity/Struct.sol\":3376:3408  Profile(_name, _age, _isMarried) */\n      dup2\n      mstore\n      0x20\n      add\n        /* \"Solidity/Struct.sol\":3391:3395  _age */\n      dup5\n        /* \"Solidity/Struct.sol\":3376:3408  Profile(_name, _age, _isMarried) */\n      dup2\n      mstore\n      0x20\n      add\n        /* \"Solidity/Struct.sol\":3397:3407  _isMarried */\n      dup4\n        /* \"Solidity/Struct.sol\":3376:3408  Profile(_name, _age, _isMarried) */\n      iszero\n      iszero\n      dup2\n      mstore\n      pop\n        /* \"Solidity/Struct.sol\":3362:3409  profiles.push(Profile(_name, _age, _isMarried)) */\n      swap1\n      dup1\n      0x01\n      dup2\n      sload\n      add\n      dup1\n      dup3\n      sstore\n      dup1\n      swap2\n      pop\n      pop\n      0x01\n      swap1\n      sub\n      swap1\n      0x00\n      mstore\n      keccak256(0x00, 0x20)\n      swap1\n      0x03\n      mul\n      add\n      0x00\n      swap1\n      swap2\n      swap1\n      swap2\n      swap1\n      swap2\n      pop\n      0x00\n      dup3\n      add\n      mload\n      dup2\n      0x00\n      add\n      swap1\n      dup1\n      mload\n      swap1\n      0x20\n      add\n      swap1\n      tag_27\n      swap3\n      swap2\n      swap1\n      tag_28\n      jump\t// in\n    tag_27:\n      pop\n      0x20\n      dup3\n      add\n      mload\n      dup2\n      0x01\n      add\n      sstore\n      0x40\n      dup3\n      add\n      mload\n      dup2\n      0x02\n      add\n      exp(0x0100, 0x00)\n      dup2\n      sload\n      dup2\n      0xff\n      mul\n      not\n      and\n      swap1\n      dup4\n      iszero\n      iszero\n      mul\n      or\n      swap1\n      sstore\n      pop\n      pop\n      pop\n        /* \"Solidity/Struct.sol\":3244:3416  function addPerson(... */\n      pop\n      pop\n      pop\n      jump\t// out\n        /* \"Solidity/Struct.sol\":3463:3717  function getIndex(uint256 index)... */\n    tag_14:\n        /* \"Solidity/Struct.sol\":3554:3567  string memory */\n      0x60\n        /* \"Solidity/Struct.sol\":3581:3588  uint256 */\n      0x00\n        /* \"Solidity/Struct.sol\":3602:3606  bool */\n      dup1\n        /* \"Solidity/Struct.sol\":3631:3647  Profile memory p */\n      0x00\n        /* \"Solidity/Struct.sol\":3650:3658  profiles */\n      dup1\n        /* \"Solidity/Struct.sol\":3659:3664  index */\n      dup6\n        /* \"Solidity/Struct.sol\":3650:3665  profiles[index] */\n      dup2\n      sload\n      dup2\n      lt\n      tag_30\n      jumpi\n      mstore(0x00, 0x4e487b7100000000000000000000000000000000000000000000000000000000)\n      mstore(0x04, 0x32)\n      revert(0x00, 0x24)\n    tag_30:\n      swap1\n      0x00\n      mstore\n      keccak256(0x00, 0x20)\n      swap1\n      0x03\n      mul\n      add\n        /* \"Solidity/Struct.sol\":3631:3665  Profile memory p = profiles[index] */\n      mload(0x40)\n      dup1\n      0x60\n      add\n      0x40\n      mstore\n      swap1\n      dup2\n      0x00\n      dup3\n      add\n      dup1\n      sload\n      tag_32\n      swap1\n      tag_33\n      jump\t// in\n    tag_32:\n      dup1\n      0x1f\n      add\n      0x20\n      dup1\n      swap2\n      div\n      mul\n      0x20\n      add\n      mload(0x40)\n      swap1\n      dup2\n      add\n      0x40\n      mstore\n      dup1\n      swap3\n      swap2\n      swap1\n      dup2\n      dup2\n      mstore\n      0x20\n      add\n      dup3\n      dup1\n      sload\n      tag_34\n      swap1\n      tag_33\n      jump\t// in\n    tag_34:\n      dup1\n      iszero\n      tag_35\n      jumpi\n      dup1\n      0x1f\n      lt\n      tag_36\n      jumpi\n      0x0100\n      dup1\n      dup4\n      sload\n      div\n      mul\n      dup4\n      mstore\n      swap2\n      0x20\n      add\n      swap2\n      jump(tag_35)\n    tag_36:\n      dup3\n      add\n      swap2\n      swap1\n      0x00\n      mstore\n      keccak256(0x00, 0x20)\n      swap1\n    tag_37:\n      dup2\n      sload\n      dup2\n      mstore\n      swap1\n      0x01\n      add\n      swap1\n      0x20\n      add\n      dup1\n      dup4\n      gt\n      tag_37\n      jumpi\n      dup3\n      swap1\n      sub\n      0x1f\n      and\n      dup3\n      add\n      swap2\n    tag_35:\n      pop\n      pop\n      pop\n      pop\n      pop\n      dup2\n      mstore\n      0x20\n      add\n      0x01\n      dup3\n      add\n      sload\n      dup2\n      mstore\n      0x20\n      add\n      0x02\n      dup3\n      add\n      0x00\n      swap1\n      sload\n      swap1\n      0x0100\n      exp\n      swap1\n      div\n      0xff\n      and\n      iszero\n      iszero\n      iszero\n      iszero\n      dup2\n      mstore\n      pop\n      pop\n      swap1\n      pop\n        /* \"Solidity/Struct.sol\":3683:3684  p */\n      dup1\n        /* \"Solidity/Struct.sol\":3683:3689  p.name */\n      0x00\n      add\n      mload\n        /* \"Solidity/Struct.sol\":3691:3692  p */\n      dup2\n        /* \"Solidity/Struct.sol\":3691:3696  p.age */\n      0x20\n      add\n      mload\n        /* \"Solidity/Struct.sol\":3698:3699  p */\n      dup3\n        /* \"Solidity/Struct.sol\":3698:3709  p.isMarried */\n      0x40\n      add\n      mload\n        /* \"Solidity/Struct.sol\":3675:3710  return (p.name, p.age, p.isMarried) */\n      swap4\n      pop\n      swap4\n      pop\n      swap4\n      pop\n      pop\n        /* \"Solidity/Struct.sol\":3463:3717  function getIndex(uint256 index)... */\n      swap2\n      swap4\n      swap1\n      swap3\n      pop\n      jump\t// out\n        /* \"Solidity/Struct.sol\":3760:3849  function getCount() public view returns (uint256) {... */\n    tag_18:\n        /* \"Solidity/Struct.sol\":3801:3808  uint256 */\n      0x00\n        /* \"Solidity/Struct.sol\":3827:3835  profiles */\n      dup1\n        /* \"Solidity/Struct.sol\":3827:3842  profiles.length */\n      dup1\n      sload\n      swap1\n      pop\n        /* \"Solidity/Struct.sol\":3820:3842  return profiles.length */\n      swap1\n      pop\n        /* \"Solidity/Struct.sol\":3760:3849  function getCount() public view returns (uint256) {... */\n      swap1\n      jump\t// out\n        /* \"Solidity/Struct.sol\":3164:3189  Profile[] public profiles */\n    tag_23:\n      0x00\n      dup2\n      dup2\n      sload\n      dup2\n      lt\n      tag_39\n      jumpi\n      0x00\n      dup1\n      revert\n    tag_39:\n      swap1\n      0x00\n      mstore\n      keccak256(0x00, 0x20)\n      swap1\n      0x03\n      mul\n      add\n      0x00\n      swap2\n      pop\n      swap1\n      pop\n      dup1\n      0x00\n      add\n      dup1\n      sload\n      tag_41\n      swap1\n      tag_33\n      jump\t// in\n    tag_41:\n      dup1\n      0x1f\n      add\n      0x20\n      dup1\n      swap2\n      div\n      mul\n      0x20\n      add\n      mload(0x40)\n      swap1\n      dup2\n      add\n      0x40\n      mstore\n      dup1\n      swap3\n      swap2\n      swap1\n      dup2\n      dup2\n      mstore\n      0x20\n      add\n      dup3\n      dup1\n      sload\n      tag_42\n      swap1\n      tag_33\n      jump\t// in\n    tag_42:\n      dup1\n      iszero\n      tag_43\n      jumpi\n      dup1\n      0x1f\n      lt\n      tag_44\n      jumpi\n      0x0100\n      dup1\n      dup4\n      sload\n      div\n      mul\n      dup4\n      mstore\n      swap2\n      0x20\n      add\n      swap2\n      jump(tag_43)\n    tag_44:\n      dup3\n      add\n      swap2\n      swap1\n      0x00\n      mstore\n      keccak256(0x00, 0x20)\n      swap1\n    tag_45:\n      dup2\n      sload\n      dup2\n      mstore\n      swap1\n      0x01\n      add\n      swap1\n      0x20\n      add\n      dup1\n      dup4\n      gt\n      tag_45\n      jumpi\n      dup3\n      swap1\n      sub\n      0x1f\n      and\n      dup3\n      add\n      swap2\n    tag_43:\n      pop\n      pop\n      pop\n      pop\n      pop\n      swap1\n      dup1\n      0x01\n      add\n      sload\n      swap1\n      dup1\n      0x02\n      add\n      0x00\n      swap1\n      sload\n      swap1\n      0x0100\n      exp\n      swap1\n      div\n      0xff\n      and\n      swap1\n      pop\n      dup4\n      jump\t// out\n    tag_28:\n      dup3\n      dup1\n      sload\n      tag_46\n      swap1\n      tag_33\n      jump\t// in\n    tag_46:\n      swap1\n      0x00\n      mstore\n      keccak256(0x00, 0x20)\n      swap1\n      0x1f\n      add\n      0x20\n      swap1\n      div\n      dup2\n      add\n      swap3\n      dup3\n      tag_48\n      jumpi\n      0x00\n      dup6\n      sstore\n      jump(tag_47)\n    tag_48:\n      dup3\n      0x1f\n      lt\n      tag_49\n      jumpi\n      dup1\n      mload\n      not(0xff)\n      and\n      dup4\n      dup1\n      add\n      or\n      dup6\n      sstore\n      jump(tag_47)\n    tag_49:\n      dup3\n      dup1\n      add\n      0x01\n      add\n      dup6\n      sstore\n      dup3\n      iszero\n      tag_47\n      jumpi\n      swap2\n      dup3\n      add\n    tag_50:\n      dup3\n      dup2\n      gt\n      iszero\n      tag_51\n      jumpi\n      dup3\n      mload\n      dup3\n      sstore\n      swap2\n      0x20\n      add\n      swap2\n      swap1\n      0x01\n      add\n      swap1\n      jump(tag_50)\n    tag_51:\n    tag_47:\n      pop\n      swap1\n      pop\n      tag_52\n      swap2\n      swap1\n      tag_53\n      jump\t// in\n    tag_52:\n      pop\n      swap1\n      jump\t// out\n    tag_53:\n    tag_54:\n      dup1\n      dup3\n      gt\n      iszero\n      tag_55\n      jumpi\n      0x00\n      dup2\n      0x00\n      swap1\n      sstore\n      pop\n      0x01\n      add\n      jump(tag_54)\n    tag_55:\n      pop\n      swap1\n      jump\t// out\n        /* \"#utility.yul\":7:352   */\n    tag_57:\n        /* \"#utility.yul\":85:90   */\n      0x00\n        /* \"#utility.yul\":110:176   */\n      tag_59\n        /* \"#utility.yul\":126:175   */\n      tag_60\n        /* \"#utility.yul\":168:174   */\n      dup5\n        /* \"#utility.yul\":126:175   */\n      tag_61\n      jump\t// in\n    tag_60:\n        /* \"#utility.yul\":110:176   */\n      tag_62\n      jump\t// in\n    tag_59:\n        /* \"#utility.yul\":101:176   */\n      swap1\n      pop\n        /* \"#utility.yul\":199:205   */\n      dup3\n        /* \"#utility.yul\":192:197   */\n      dup2\n        /* \"#utility.yul\":185:206   */\n      mstore\n        /* \"#utility.yul\":237:241   */\n      0x20\n        /* \"#utility.yul\":230:235   */\n      dup2\n        /* \"#utility.yul\":226:242   */\n      add\n        /* \"#utility.yul\":275:278   */\n      dup5\n        /* \"#utility.yul\":266:272   */\n      dup5\n        /* \"#utility.yul\":261:264   */\n      dup5\n        /* \"#utility.yul\":257:273   */\n      add\n        /* \"#utility.yul\":254:279   */\n      gt\n        /* \"#utility.yul\":251:253   */\n      iszero\n      tag_63\n      jumpi\n        /* \"#utility.yul\":292:293   */\n      0x00\n        /* \"#utility.yul\":289:290   */\n      dup1\n        /* \"#utility.yul\":282:294   */\n      revert\n        /* \"#utility.yul\":251:253   */\n    tag_63:\n        /* \"#utility.yul\":305:346   */\n      tag_64\n        /* \"#utility.yul\":339:345   */\n      dup5\n        /* \"#utility.yul\":334:337   */\n      dup3\n        /* \"#utility.yul\":329:332   */\n      dup6\n        /* \"#utility.yul\":305:346   */\n      tag_65\n      jump\t// in\n    tag_64:\n        /* \"#utility.yul\":91:352   */\n      pop\n      swap4\n      swap3\n      pop\n      pop\n      pop\n      jump\t// out\n        /* \"#utility.yul\":358:491   */\n    tag_66:\n        /* \"#utility.yul\":401:406   */\n      0x00\n        /* \"#utility.yul\":439:445   */\n      dup2\n        /* \"#utility.yul\":426:446   */\n      calldataload\n        /* \"#utility.yul\":417:446   */\n      swap1\n      pop\n        /* \"#utility.yul\":455:485   */\n      tag_68\n        /* \"#utility.yul\":479:484   */\n      dup2\n        /* \"#utility.yul\":455:485   */\n      tag_69\n      jump\t// in\n    tag_68:\n        /* \"#utility.yul\":407:491   */\n      swap3\n      swap2\n      pop\n      pop\n      jump\t// out\n        /* \"#utility.yul\":511:784   */\n    tag_70:\n        /* \"#utility.yul\":567:572   */\n      0x00\n        /* \"#utility.yul\":616:619   */\n      dup3\n        /* \"#utility.yul\":609:613   */\n      0x1f\n        /* \"#utility.yul\":601:607   */\n      dup4\n        /* \"#utility.yul\":597:614   */\n      add\n        /* \"#utility.yul\":593:620   */\n      slt\n        /* \"#utility.yul\":583:585   */\n      tag_72\n      jumpi\n        /* \"#utility.yul\":634:635   */\n      0x00\n        /* \"#utility.yul\":631:632   */\n      dup1\n        /* \"#utility.yul\":624:636   */\n      revert\n        /* \"#utility.yul\":583:585   */\n    tag_72:\n        /* \"#utility.yul\":674:680   */\n      dup2\n        /* \"#utility.yul\":661:681   */\n      calldataload\n        /* \"#utility.yul\":699:778   */\n      tag_73\n        /* \"#utility.yul\":774:777   */\n      dup5\n        /* \"#utility.yul\":766:772   */\n      dup3\n        /* \"#utility.yul\":759:763   */\n      0x20\n        /* \"#utility.yul\":751:757   */\n      dup7\n        /* \"#utility.yul\":747:764   */\n      add\n        /* \"#utility.yul\":699:778   */\n      tag_57\n      jump\t// in\n    tag_73:\n        /* \"#utility.yul\":690:778   */\n      swap2\n      pop\n        /* \"#utility.yul\":573:784   */\n      pop\n      swap3\n      swap2\n      pop\n      pop\n      jump\t// out\n        /* \"#utility.yul\":790:929   */\n    tag_74:\n        /* \"#utility.yul\":836:841   */\n      0x00\n        /* \"#utility.yul\":874:880   */\n      dup2\n        /* \"#utility.yul\":861:881   */\n      calldataload\n        /* \"#utility.yul\":852:881   */\n      swap1\n      pop\n        /* \"#utility.yul\":890:923   */\n      tag_76\n        /* \"#utility.yul\":917:922   */\n      dup2\n        /* \"#utility.yul\":890:923   */\n      tag_77\n      jump\t// in\n    tag_76:\n        /* \"#utility.yul\":842:929   */\n      swap3\n      swap2\n      pop\n      pop\n      jump\t// out\n        /* \"#utility.yul\":935:1594   */\n    tag_9:\n        /* \"#utility.yul\":1019:1025   */\n      0x00\n        /* \"#utility.yul\":1027:1033   */\n      dup1\n        /* \"#utility.yul\":1035:1041   */\n      0x00\n        /* \"#utility.yul\":1084:1086   */\n      0x60\n        /* \"#utility.yul\":1072:1081   */\n      dup5\n        /* \"#utility.yul\":1063:1070   */\n      dup7\n        /* \"#utility.yul\":1059:1082   */\n      sub\n        /* \"#utility.yul\":1055:1087   */\n      slt\n        /* \"#utility.yul\":1052:1054   */\n      iszero\n      tag_79\n      jumpi\n        /* \"#utility.yul\":1100:1101   */\n      0x00\n        /* \"#utility.yul\":1097:1098   */\n      dup1\n        /* \"#utility.yul\":1090:1102   */\n      revert\n        /* \"#utility.yul\":1052:1054   */\n    tag_79:\n        /* \"#utility.yul\":1171:1172   */\n      0x00\n        /* \"#utility.yul\":1160:1169   */\n      dup5\n        /* \"#utility.yul\":1156:1173   */\n      add\n        /* \"#utility.yul\":1143:1174   */\n      calldataload\n        /* \"#utility.yul\":1201:1219   */\n      0xffffffffffffffff\n        /* \"#utility.yul\":1193:1199   */\n      dup2\n        /* \"#utility.yul\":1190:1220   */\n      gt\n        /* \"#utility.yul\":1187:1189   */\n      iszero\n      tag_80\n      jumpi\n        /* \"#utility.yul\":1233:1234   */\n      0x00\n        /* \"#utility.yul\":1230:1231   */\n      dup1\n        /* \"#utility.yul\":1223:1235   */\n      revert\n        /* \"#utility.yul\":1187:1189   */\n    tag_80:\n        /* \"#utility.yul\":1261:1324   */\n      tag_81\n        /* \"#utility.yul\":1316:1323   */\n      dup7\n        /* \"#utility.yul\":1307:1313   */\n      dup3\n        /* \"#utility.yul\":1296:1305   */\n      dup8\n        /* \"#utility.yul\":1292:1314   */\n      add\n        /* \"#utility.yul\":1261:1324   */\n      tag_70\n      jump\t// in\n    tag_81:\n        /* \"#utility.yul\":1251:1324   */\n      swap4\n      pop\n        /* \"#utility.yul\":1114:1334   */\n      pop\n        /* \"#utility.yul\":1373:1375   */\n      0x20\n        /* \"#utility.yul\":1399:1452   */\n      tag_82\n        /* \"#utility.yul\":1444:1451   */\n      dup7\n        /* \"#utility.yul\":1435:1441   */\n      dup3\n        /* \"#utility.yul\":1424:1433   */\n      dup8\n        /* \"#utility.yul\":1420:1442   */\n      add\n        /* \"#utility.yul\":1399:1452   */\n      tag_74\n      jump\t// in\n    tag_82:\n        /* \"#utility.yul\":1389:1452   */\n      swap3\n      pop\n        /* \"#utility.yul\":1344:1462   */\n      pop\n        /* \"#utility.yul\":1501:1503   */\n      0x40\n        /* \"#utility.yul\":1527:1577   */\n      tag_83\n        /* \"#utility.yul\":1569:1576   */\n      dup7\n        /* \"#utility.yul\":1560:1566   */\n      dup3\n        /* \"#utility.yul\":1549:1558   */\n      dup8\n        /* \"#utility.yul\":1545:1567   */\n      add\n        /* \"#utility.yul\":1527:1577   */\n      tag_66\n      jump\t// in\n    tag_83:\n        /* \"#utility.yul\":1517:1577   */\n      swap2\n      pop\n        /* \"#utility.yul\":1472:1587   */\n      pop\n        /* \"#utility.yul\":1042:1594   */\n      swap3\n      pop\n      swap3\n      pop\n      swap3\n      jump\t// out\n        /* \"#utility.yul\":1600:1862   */\n    tag_13:\n        /* \"#utility.yul\":1659:1665   */\n      0x00\n        /* \"#utility.yul\":1708:1710   */\n      0x20\n        /* \"#utility.yul\":1696:1705   */\n      dup3\n        /* \"#utility.yul\":1687:1694   */\n      dup5\n        /* \"#utility.yul\":1683:1706   */\n      sub\n        /* \"#utility.yul\":1679:1711   */\n      slt\n        /* \"#utility.yul\":1676:1678   */\n      iszero\n      tag_85\n      jumpi\n        /* \"#utility.yul\":1724:1725   */\n      0x00\n        /* \"#utility.yul\":1721:1722   */\n      dup1\n        /* \"#utility.yul\":1714:1726   */\n      revert\n        /* \"#utility.yul\":1676:1678   */\n    tag_85:\n        /* \"#utility.yul\":1767:1768   */\n      0x00\n        /* \"#utility.yul\":1792:1845   */\n      tag_86\n        /* \"#utility.yul\":1837:1844   */\n      dup5\n        /* \"#utility.yul\":1828:1834   */\n      dup3\n        /* \"#utility.yul\":1817:1826   */\n      dup6\n        /* \"#utility.yul\":1813:1835   */\n      add\n        /* \"#utility.yul\":1792:1845   */\n      tag_74\n      jump\t// in\n    tag_86:\n        /* \"#utility.yul\":1782:1845   */\n      swap2\n      pop\n        /* \"#utility.yul\":1738:1855   */\n      pop\n        /* \"#utility.yul\":1666:1862   */\n      swap3\n      swap2\n      pop\n      pop\n      jump\t// out\n        /* \"#utility.yul\":1868:1977   */\n    tag_87:\n        /* \"#utility.yul\":1949:1970   */\n      tag_89\n        /* \"#utility.yul\":1964:1969   */\n      dup2\n        /* \"#utility.yul\":1949:1970   */\n      tag_90\n      jump\t// in\n    tag_89:\n        /* \"#utility.yul\":1944:1947   */\n      dup3\n        /* \"#utility.yul\":1937:1971   */\n      mstore\n        /* \"#utility.yul\":1927:1977   */\n      pop\n      pop\n      jump\t// out\n        /* \"#utility.yul\":1983:2347   */\n    tag_91:\n        /* \"#utility.yul\":2071:2074   */\n      0x00\n        /* \"#utility.yul\":2099:2138   */\n      tag_93\n        /* \"#utility.yul\":2132:2137   */\n      dup3\n        /* \"#utility.yul\":2099:2138   */\n      tag_94\n      jump\t// in\n    tag_93:\n        /* \"#utility.yul\":2154:2225   */\n      tag_95\n        /* \"#utility.yul\":2218:2224   */\n      dup2\n        /* \"#utility.yul\":2213:2216   */\n      dup6\n        /* \"#utility.yul\":2154:2225   */\n      tag_96\n      jump\t// in\n    tag_95:\n        /* \"#utility.yul\":2147:2225   */\n      swap4\n      pop\n        /* \"#utility.yul\":2234:2286   */\n      tag_97\n        /* \"#utility.yul\":2279:2285   */\n      dup2\n        /* \"#utility.yul\":2274:2277   */\n      dup6\n        /* \"#utility.yul\":2267:2271   */\n      0x20\n        /* \"#utility.yul\":2260:2265   */\n      dup7\n        /* \"#utility.yul\":2256:2272   */\n      add\n        /* \"#utility.yul\":2234:2286   */\n      tag_98\n      jump\t// in\n    tag_97:\n        /* \"#utility.yul\":2311:2340   */\n      tag_99\n        /* \"#utility.yul\":2333:2339   */\n      dup2\n        /* \"#utility.yul\":2311:2340   */\n      tag_100\n      jump\t// in\n    tag_99:\n        /* \"#utility.yul\":2306:2309   */\n      dup5\n        /* \"#utility.yul\":2302:2341   */\n      add\n        /* \"#utility.yul\":2295:2341   */\n      swap2\n      pop\n        /* \"#utility.yul\":2075:2347   */\n      pop\n      swap3\n      swap2\n      pop\n      pop\n      jump\t// out\n        /* \"#utility.yul\":2353:2471   */\n    tag_101:\n        /* \"#utility.yul\":2440:2464   */\n      tag_103\n        /* \"#utility.yul\":2458:2463   */\n      dup2\n        /* \"#utility.yul\":2440:2464   */\n      tag_104\n      jump\t// in\n    tag_103:\n        /* \"#utility.yul\":2435:2438   */\n      dup3\n        /* \"#utility.yul\":2428:2465   */\n      mstore\n        /* \"#utility.yul\":2418:2471   */\n      pop\n      pop\n      jump\t// out\n        /* \"#utility.yul\":2477:2998   */\n    tag_16:\n        /* \"#utility.yul\":2640:2644   */\n      0x00\n        /* \"#utility.yul\":2678:2680   */\n      0x60\n        /* \"#utility.yul\":2667:2676   */\n      dup3\n        /* \"#utility.yul\":2663:2681   */\n      add\n        /* \"#utility.yul\":2655:2681   */\n      swap1\n      pop\n        /* \"#utility.yul\":2727:2736   */\n      dup2\n        /* \"#utility.yul\":2721:2725   */\n      dup2\n        /* \"#utility.yul\":2717:2737   */\n      sub\n        /* \"#utility.yul\":2713:2714   */\n      0x00\n        /* \"#utility.yul\":2702:2711   */\n      dup4\n        /* \"#utility.yul\":2698:2715   */\n      add\n        /* \"#utility.yul\":2691:2738   */\n      mstore\n        /* \"#utility.yul\":2755:2833   */\n      tag_106\n        /* \"#utility.yul\":2828:2832   */\n      dup2\n        /* \"#utility.yul\":2819:2825   */\n      dup7\n        /* \"#utility.yul\":2755:2833   */\n      tag_91\n      jump\t// in\n    tag_106:\n        /* \"#utility.yul\":2747:2833   */\n      swap1\n      pop\n        /* \"#utility.yul\":2843:2915   */\n      tag_107\n        /* \"#utility.yul\":2911:2913   */\n      0x20\n        /* \"#utility.yul\":2900:2909   */\n      dup4\n        /* \"#utility.yul\":2896:2914   */\n      add\n        /* \"#utility.yul\":2887:2893   */\n      dup6\n        /* \"#utility.yul\":2843:2915   */\n      tag_101\n      jump\t// in\n    tag_107:\n        /* \"#utility.yul\":2925:2991   */\n      tag_108\n        /* \"#utility.yul\":2987:2989   */\n      0x40\n        /* \"#utility.yul\":2976:2985   */\n      dup4\n        /* \"#utility.yul\":2972:2990   */\n      add\n        /* \"#utility.yul\":2963:2969   */\n      dup5\n        /* \"#utility.yul\":2925:2991   */\n      tag_87\n      jump\t// in\n    tag_108:\n        /* \"#utility.yul\":2645:2998   */\n      swap5\n      swap4\n      pop\n      pop\n      pop\n      pop\n      jump\t// out\n        /* \"#utility.yul\":3004:3226   */\n    tag_20:\n        /* \"#utility.yul\":3097:3101   */\n      0x00\n        /* \"#utility.yul\":3135:3137   */\n      0x20\n        /* \"#utility.yul\":3124:3133   */\n      dup3\n        /* \"#utility.yul\":3120:3138   */\n      add\n        /* \"#utility.yul\":3112:3138   */\n      swap1\n      pop\n        /* \"#utility.yul\":3148:3219   */\n      tag_110\n        /* \"#utility.yul\":3216:3217   */\n      0x00\n        /* \"#utility.yul\":3205:3214   */\n      dup4\n        /* \"#utility.yul\":3201:3218   */\n      add\n        /* \"#utility.yul\":3192:3198   */\n      dup5\n        /* \"#utility.yul\":3148:3219   */\n      tag_101\n      jump\t// in\n    tag_110:\n        /* \"#utility.yul\":3102:3226   */\n      swap3\n      swap2\n      pop\n      pop\n      jump\t// out\n        /* \"#utility.yul\":3232:3361   */\n    tag_62:\n        /* \"#utility.yul\":3266:3272   */\n      0x00\n        /* \"#utility.yul\":3293:3313   */\n      tag_112\n      tag_113\n      jump\t// in\n    tag_112:\n        /* \"#utility.yul\":3283:3313   */\n      swap1\n      pop\n        /* \"#utility.yul\":3322:3355   */\n      tag_114\n        /* \"#utility.yul\":3350:3354   */\n      dup3\n        /* \"#utility.yul\":3342:3348   */\n      dup3\n        /* \"#utility.yul\":3322:3355   */\n      tag_115\n      jump\t// in\n    tag_114:\n        /* \"#utility.yul\":3273:3361   */\n      swap2\n      swap1\n      pop\n      jump\t// out\n        /* \"#utility.yul\":3367:3442   */\n    tag_113:\n        /* \"#utility.yul\":3400:3406   */\n      0x00\n        /* \"#utility.yul\":3433:3435   */\n      0x40\n        /* \"#utility.yul\":3427:3436   */\n      mload\n        /* \"#utility.yul\":3417:3436   */\n      swap1\n      pop\n        /* \"#utility.yul\":3407:3442   */\n      swap1\n      jump\t// out\n        /* \"#utility.yul\":3448:3756   */\n    tag_61:\n        /* \"#utility.yul\":3510:3514   */\n      0x00\n        /* \"#utility.yul\":3600:3618   */\n      0xffffffffffffffff\n        /* \"#utility.yul\":3592:3598   */\n      dup3\n        /* \"#utility.yul\":3589:3619   */\n      gt\n        /* \"#utility.yul\":3586:3588   */\n      iszero\n      tag_118\n      jumpi\n        /* \"#utility.yul\":3622:3640   */\n      tag_119\n      tag_120\n      jump\t// in\n    tag_119:\n        /* \"#utility.yul\":3586:3588   */\n    tag_118:\n        /* \"#utility.yul\":3660:3689   */\n      tag_121\n        /* \"#utility.yul\":3682:3688   */\n      dup3\n        /* \"#utility.yul\":3660:3689   */\n      tag_100\n      jump\t// in\n    tag_121:\n        /* \"#utility.yul\":3652:3689   */\n      swap1\n      pop\n        /* \"#utility.yul\":3744:3748   */\n      0x20\n        /* \"#utility.yul\":3738:3742   */\n      dup2\n        /* \"#utility.yul\":3734:3749   */\n      add\n        /* \"#utility.yul\":3726:3749   */\n      swap1\n      pop\n        /* \"#utility.yul\":3515:3756   */\n      swap2\n      swap1\n      pop\n      jump\t// out\n        /* \"#utility.yul\":3762:3861   */\n    tag_94:\n        /* \"#utility.yul\":3814:3820   */\n      0x00\n        /* \"#utility.yul\":3848:3853   */\n      dup2\n        /* \"#utility.yul\":3842:3854   */\n      mload\n        /* \"#utility.yul\":3832:3854   */\n      swap1\n      pop\n        /* \"#utility.yul\":3821:3861   */\n      swap2\n      swap1\n      pop\n      jump\t// out\n        /* \"#utility.yul\":3867:4036   */\n    tag_96:\n        /* \"#utility.yul\":3951:3962   */\n      0x00\n        /* \"#utility.yul\":3985:3991   */\n      dup3\n        /* \"#utility.yul\":3980:3983   */\n      dup3\n        /* \"#utility.yul\":3973:3992   */\n      mstore\n        /* \"#utility.yul\":4025:4029   */\n      0x20\n        /* \"#utility.yul\":4020:4023   */\n      dup3\n        /* \"#utility.yul\":4016:4030   */\n      add\n        /* \"#utility.yul\":4001:4030   */\n      swap1\n      pop\n        /* \"#utility.yul\":3963:4036   */\n      swap3\n      swap2\n      pop\n      pop\n      jump\t// out\n        /* \"#utility.yul\":4042:4132   */\n    tag_90:\n        /* \"#utility.yul\":4076:4083   */\n      0x00\n        /* \"#utility.yul\":4119:4124   */\n      dup2\n        /* \"#utility.yul\":4112:4125   */\n      iszero\n        /* \"#utility.yul\":4105:4126   */\n      iszero\n        /* \"#utility.yul\":4094:4126   */\n      swap1\n      pop\n        /* \"#utility.yul\":4084:4132   */\n      swap2\n      swap1\n      pop\n      jump\t// out\n        /* \"#utility.yul\":4138:4215   */\n    tag_104:\n        /* \"#utility.yul\":4175:4182   */\n      0x00\n        /* \"#utility.yul\":4204:4209   */\n      dup2\n        /* \"#utility.yul\":4193:4209   */\n      swap1\n      pop\n        /* \"#utility.yul\":4183:4215   */\n      swap2\n      swap1\n      pop\n      jump\t// out\n        /* \"#utility.yul\":4221:4375   */\n    tag_65:\n        /* \"#utility.yul\":4305:4311   */\n      dup3\n        /* \"#utility.yul\":4300:4303   */\n      dup2\n        /* \"#utility.yul\":4295:4298   */\n      dup4\n        /* \"#utility.yul\":4282:4312   */\n      calldatacopy\n        /* \"#utility.yul\":4367:4368   */\n      0x00\n        /* \"#utility.yul\":4358:4364   */\n      dup4\n        /* \"#utility.yul\":4353:4356   */\n      dup4\n        /* \"#utility.yul\":4349:4365   */\n      add\n        /* \"#utility.yul\":4342:4369   */\n      mstore\n        /* \"#utility.yul\":4272:4375   */\n      pop\n      pop\n      pop\n      jump\t// out\n        /* \"#utility.yul\":4381:4688   */\n    tag_98:\n        /* \"#utility.yul\":4449:4450   */\n      0x00\n        /* \"#utility.yul\":4459:4572   */\n    tag_128:\n        /* \"#utility.yul\":4473:4479   */\n      dup4\n        /* \"#utility.yul\":4470:4471   */\n      dup2\n        /* \"#utility.yul\":4467:4480   */\n      lt\n        /* \"#utility.yul\":4459:4572   */\n      iszero\n      tag_130\n      jumpi\n        /* \"#utility.yul\":4558:4559   */\n      dup1\n        /* \"#utility.yul\":4553:4556   */\n      dup3\n        /* \"#utility.yul\":4549:4560   */\n      add\n        /* \"#utility.yul\":4543:4561   */\n      mload\n        /* \"#utility.yul\":4539:4540   */\n      dup2\n        /* \"#utility.yul\":4534:4537   */\n      dup5\n        /* \"#utility.yul\":4530:4541   */\n      add\n        /* \"#utility.yul\":4523:4562   */\n      mstore\n        /* \"#utility.yul\":4495:4497   */\n      0x20\n        /* \"#utility.yul\":4492:4493   */\n      dup2\n        /* \"#utility.yul\":4488:4498   */\n      add\n        /* \"#utility.yul\":4483:4498   */\n      swap1\n      pop\n        /* \"#utility.yul\":4459:4572   */\n      jump(tag_128)\n    tag_130:\n        /* \"#utility.yul\":4590:4596   */\n      dup4\n        /* \"#utility.yul\":4587:4588   */\n      dup2\n        /* \"#utility.yul\":4584:4597   */\n      gt\n        /* \"#utility.yul\":4581:4583   */\n      iszero\n      tag_131\n      jumpi\n        /* \"#utility.yul\":4670:4671   */\n      0x00\n        /* \"#utility.yul\":4661:4667   */\n      dup5\n        /* \"#utility.yul\":4656:4659   */\n      dup5\n        /* \"#utility.yul\":4652:4668   */\n      add\n        /* \"#utility.yul\":4645:4672   */\n      mstore\n        /* \"#utility.yul\":4581:4583   */\n    tag_131:\n        /* \"#utility.yul\":4430:4688   */\n      pop\n      pop\n      pop\n      pop\n      jump\t// out\n        /* \"#utility.yul\":4694:5014   */\n    tag_33:\n        /* \"#utility.yul\":4738:4744   */\n      0x00\n        /* \"#utility.yul\":4775:4776   */\n      0x02\n        /* \"#utility.yul\":4769:4773   */\n      dup3\n        /* \"#utility.yul\":4765:4777   */\n      div\n        /* \"#utility.yul\":4755:4777   */\n      swap1\n      pop\n        /* \"#utility.yul\":4822:4823   */\n      0x01\n        /* \"#utility.yul\":4816:4820   */\n      dup3\n        /* \"#utility.yul\":4812:4824   */\n      and\n        /* \"#utility.yul\":4843:4861   */\n      dup1\n        /* \"#utility.yul\":4833:4835   */\n      tag_133\n      jumpi\n        /* \"#utility.yul\":4899:4903   */\n      0x7f\n        /* \"#utility.yul\":4891:4897   */\n      dup3\n        /* \"#utility.yul\":4887:4904   */\n      and\n        /* \"#utility.yul\":4877:4904   */\n      swap2\n      pop\n        /* \"#utility.yul\":4833:4835   */\n    tag_133:\n        /* \"#utility.yul\":4961:4963   */\n      0x20\n        /* \"#utility.yul\":4953:4959   */\n      dup3\n        /* \"#utility.yul\":4950:4964   */\n      lt\n        /* \"#utility.yul\":4930:4948   */\n      dup2\n        /* \"#utility.yul\":4927:4965   */\n      eq\n        /* \"#utility.yul\":4924:4926   */\n      iszero\n      tag_134\n      jumpi\n        /* \"#utility.yul\":4980:4998   */\n      tag_135\n      tag_136\n      jump\t// in\n    tag_135:\n        /* \"#utility.yul\":4924:4926   */\n    tag_134:\n        /* \"#utility.yul\":4745:5014   */\n      pop\n      swap2\n      swap1\n      pop\n      jump\t// out\n        /* \"#utility.yul\":5020:5301   */\n    tag_115:\n        /* \"#utility.yul\":5103:5130   */\n      tag_138\n        /* \"#utility.yul\":5125:5129   */\n      dup3\n        /* \"#utility.yul\":5103:5130   */\n      tag_100\n      jump\t// in\n    tag_138:\n        /* \"#utility.yul\":5095:5101   */\n      dup2\n        /* \"#utility.yul\":5091:5131   */\n      add\n        /* \"#utility.yul\":5233:5239   */\n      dup2\n        /* \"#utility.yul\":5221:5231   */\n      dup2\n        /* \"#utility.yul\":5218:5240   */\n      lt\n        /* \"#utility.yul\":5197:5215   */\n      0xffffffffffffffff\n        /* \"#utility.yul\":5185:5195   */\n      dup3\n        /* \"#utility.yul\":5182:5216   */\n      gt\n        /* \"#utility.yul\":5179:5241   */\n      or\n        /* \"#utility.yul\":5176:5178   */\n      iszero\n      tag_139\n      jumpi\n        /* \"#utility.yul\":5244:5262   */\n      tag_140\n      tag_120\n      jump\t// in\n    tag_140:\n        /* \"#utility.yul\":5176:5178   */\n    tag_139:\n        /* \"#utility.yul\":5284:5294   */\n      dup1\n        /* \"#utility.yul\":5280:5282   */\n      0x40\n        /* \"#utility.yul\":5273:5295   */\n      mstore\n        /* \"#utility.yul\":5063:5301   */\n      pop\n      pop\n      pop\n      jump\t// out\n        /* \"#utility.yul\":5307:5487   */\n    tag_136:\n        /* \"#utility.yul\":5355:5432   */\n      0x4e487b7100000000000000000000000000000000000000000000000000000000\n        /* \"#utility.yul\":5352:5353   */\n      0x00\n        /* \"#utility.yul\":5345:5433   */\n      mstore\n        /* \"#utility.yul\":5452:5456   */\n      0x22\n        /* \"#utility.yul\":5449:5450   */\n      0x04\n        /* \"#utility.yul\":5442:5457   */\n      mstore\n        /* \"#utility.yul\":5476:5480   */\n      0x24\n        /* \"#utility.yul\":5473:5474   */\n      0x00\n        /* \"#utility.yul\":5466:5481   */\n      revert\n        /* \"#utility.yul\":5493:5673   */\n    tag_120:\n        /* \"#utility.yul\":5541:5618   */\n      0x4e487b7100000000000000000000000000000000000000000000000000000000\n        /* \"#utility.yul\":5538:5539   */\n      0x00\n        /* \"#utility.yul\":5531:5619   */\n      mstore\n        /* \"#utility.yul\":5638:5642   */\n      0x41\n        /* \"#utility.yul\":5635:5636   */\n      0x04\n        /* \"#utility.yul\":5628:5643   */\n      mstore\n        /* \"#utility.yul\":5662:5666   */\n      0x24\n        /* \"#utility.yul\":5659:5660   */\n      0x00\n        /* \"#utility.yul\":5652:5667   */\n      revert\n        /* \"#utility.yul\":5679:5781   */\n    tag_100:\n        /* \"#utility.yul\":5720:5726   */\n      0x00\n        /* \"#utility.yul\":5771:5773   */\n      0x1f\n        /* \"#utility.yul\":5767:5774   */\n      not\n        /* \"#utility.yul\":5762:5764   */\n      0x1f\n        /* \"#utility.yul\":5755:5760   */\n      dup4\n        /* \"#utility.yul\":5751:5765   */\n      add\n        /* \"#utility.yul\":5747:5775   */\n      and\n        /* \"#utility.yul\":5737:5775   */\n      swap1\n      pop\n        /* \"#utility.yul\":5727:5781   */\n      swap2\n      swap1\n      pop\n      jump\t// out\n        /* \"#utility.yul\":5787:5903   */\n    tag_69:\n        /* \"#utility.yul\":5857:5878   */\n      tag_145\n        /* \"#utility.yul\":5872:5877   */\n      dup2\n        /* \"#utility.yul\":5857:5878   */\n      tag_90\n      jump\t// in\n    tag_145:\n        /* \"#utility.yul\":5850:5855   */\n      dup2\n        /* \"#utility.yul\":5847:5879   */\n      eq\n        /* \"#utility.yul\":5837:5839   */\n      tag_146\n      jumpi\n        /* \"#utility.yul\":5893:5894   */\n      0x00\n        /* \"#utility.yul\":5890:5891   */\n      dup1\n        /* \"#utility.yul\":5883:5895   */\n      revert\n        /* \"#utility.yul\":5837:5839   */\n    tag_146:\n        /* \"#utility.yul\":5827:5903   */\n      pop\n      jump\t// out\n        /* \"#utility.yul\":5909:6031   */\n    tag_77:\n        /* \"#utility.yul\":5982:6006   */\n      tag_148\n        /* \"#utility.yul\":6000:6005   */\n      dup2\n        /* \"#utility.yul\":5982:6006   */\n      tag_104\n      jump\t// in\n    tag_148:\n        /* \"#utility.yul\":5975:5980   */\n      dup2\n        /* \"#utility.yul\":5972:6007   */\n      eq\n        /* \"#utility.yul\":5962:5964   */\n      tag_149\n      jumpi\n        /* \"#utility.yul\":6021:6022   */\n      0x00\n        /* \"#utility.yul\":6018:6019   */\n      dup1\n        /* \"#utility.yul\":6011:6023   */\n      revert\n        /* \"#utility.yul\":5962:5964   */\n    tag_149:\n        /* \"#utility.yul\":5952:6031   */\n      pop\n      jump\t// out\n\n    auxdata: 0xa264697066735822122012915ad547ce7d4f3287275d7d80616d0fec6bd323e82083c6d632cd578b49e064736f6c63430008040033\n}\n",
				"bytecode": {
					"linkReferences": {},
					"object": "608060405234801561001057600080fd5b50610804806100206000396000f3fe608060405234801561001057600080fd5b506004361061004c5760003560e01c8063032ce9aa146100515780638e7cb6e11461006d578063a87d942c1461009f578063c36fe3d6146100bd575b600080fd5b61006b600480360381019061006691906104c4565b6100ef565b005b6100876004803603810190610082919061052b565b610185565b604051610096939291906105ab565b60405180910390f35b6100a76102b4565b6040516100b491906105e9565b60405180910390f35b6100d760048036038101906100d2919061052b565b6102c0565b6040516100e6939291906105ab565b60405180910390f35b600060405180606001604052808581526020018481526020018315158152509080600181540180825580915050600190039060005260206000209060030201600090919091909150600082015181600001908051906020019061015392919061038f565b506020820151816001015560408201518160020160006101000a81548160ff0219169083151502179055505050505050565b606060008060008085815481106101c5577f4e487b7100000000000000000000000000000000000000000000000000000000600052603260045260246000fd5b90600052602060002090600302016040518060600160405290816000820180546101ee906106ce565b80601f016020809104026020016040519081016040528092919081815260200182805461021a906106ce565b80156102675780601f1061023c57610100808354040283529160200191610267565b820191906000526020600020905b81548152906001019060200180831161024a57829003601f168201915b50505050508152602001600182015481526020016002820160009054906101000a900460ff1615151515815250509050806000015181602001518260400151935093509350509193909250565b60008080549050905090565b600081815481106102d057600080fd5b90600052602060002090600302016000915090508060000180546102f3906106ce565b80601f016020809104026020016040519081016040528092919081815260200182805461031f906106ce565b801561036c5780601f106103415761010080835404028352916020019161036c565b820191906000526020600020905b81548152906001019060200180831161034f57829003601f168201915b5050505050908060010154908060020160009054906101000a900460ff16905083565b82805461039b906106ce565b90600052602060002090601f0160209004810192826103bd5760008555610404565b82601f106103d657805160ff1916838001178555610404565b82800160010185558215610404579182015b828111156104035782518255916020019190600101906103e8565b5b5090506104119190610415565b5090565b5b8082111561042e576000816000905550600101610416565b5090565b600061044561044084610629565b610604565b90508281526020810184848401111561045d57600080fd5b61046884828561068c565b509392505050565b60008135905061047f816107a0565b92915050565b600082601f83011261049657600080fd5b81356104a6848260208601610432565b91505092915050565b6000813590506104be816107b7565b92915050565b6000806000606084860312156104d957600080fd5b600084013567ffffffffffffffff8111156104f357600080fd5b6104ff86828701610485565b9350506020610510868287016104af565b925050604061052186828701610470565b9150509250925092565b60006020828403121561053d57600080fd5b600061054b848285016104af565b91505092915050565b61055d81610676565b82525050565b600061056e8261065a565b6105788185610665565b935061058881856020860161069b565b6105918161078f565b840191505092915050565b6105a581610682565b82525050565b600060608201905081810360008301526105c58186610563565b90506105d4602083018561059c565b6105e16040830184610554565b949350505050565b60006020820190506105fe600083018461059c565b92915050565b600061060e61061f565b905061061a8282610700565b919050565b6000604051905090565b600067ffffffffffffffff82111561064457610643610760565b5b61064d8261078f565b9050602081019050919050565b600081519050919050565b600082825260208201905092915050565b60008115159050919050565b6000819050919050565b82818337600083830152505050565b60005b838110156106b957808201518184015260208101905061069e565b838111156106c8576000848401525b50505050565b600060028204905060018216806106e657607f821691505b602082108114156106fa576106f9610731565b5b50919050565b6107098261078f565b810181811067ffffffffffffffff8211171561072857610727610760565b5b80604052505050565b7f4e487b7100000000000000000000000000000000000000000000000000000000600052602260045260246000fd5b7f4e487b7100000000000000000000000000000000000000000000000000000000600052604160045260246000fd5b6000601f19601f8301169050919050565b6107a981610676565b81146107b457600080fd5b50565b6107c081610682565b81146107cb57600080fd5b5056fea264697066735822122012915ad547ce7d4f3287275d7d80616d0fec6bd323e82083c6d632cd578b49e064736f6c63430008040033",
					"opcodes": "PUSH1 0x80 PUSH1 0x40 MSTORE CALLVALUE DUP1 ISZERO PUSH2 0x10 JUMPI PUSH1 0x0 DUP1 REVERT JUMPDEST POP PUSH2 0x804 DUP1 PUSH2 0x20 PUSH1 0x0 CODECOPY PUSH1 0x0 RETURN INVALID PUSH1 0x80 PUSH1 0x40 MSTORE CALLVALUE DUP1 ISZERO PUSH2 0x10 JUMPI PUSH1 0x0 DUP1 REVERT JUMPDEST POP PUSH1 0x4 CALLDATASIZE LT PUSH2 0x4C JUMPI PUSH1 0x0 CALLDATALOAD PUSH1 0xE0 SHR DUP1 PUSH4 0x32CE9AA EQ PUSH2 0x51 JUMPI DUP1 PUSH4 0x8E7CB6E1 EQ PUSH2 0x6D JUMPI DUP1 PUSH4 0xA87D942C EQ PUSH2 0x9F JUMPI DUP1 PUSH4 0xC36FE3D6 EQ PUSH2 0xBD JUMPI JUMPDEST PUSH1 0x0 DUP1 REVERT JUMPDEST PUSH2 0x6B PUSH1 0x4 DUP1 CALLDATASIZE SUB DUP2 ADD SWAP1 PUSH2 0x66 SWAP2 SWAP1 PUSH2 0x4C4 JUMP JUMPDEST PUSH2 0xEF JUMP JUMPDEST STOP JUMPDEST PUSH2 0x87 PUSH1 0x4 DUP1 CALLDATASIZE SUB DUP2 ADD SWAP1 PUSH2 0x82 SWAP2 SWAP1 PUSH2 0x52B JUMP JUMPDEST PUSH2 0x185 JUMP JUMPDEST PUSH1 0x40 MLOAD PUSH2 0x96 SWAP4 SWAP3 SWAP2 SWAP1 PUSH2 0x5AB JUMP JUMPDEST PUSH1 0x40 MLOAD DUP1 SWAP2 SUB SWAP1 RETURN JUMPDEST PUSH2 0xA7 PUSH2 0x2B4 JUMP JUMPDEST PUSH1 0x40 MLOAD PUSH2 0xB4 SWAP2 SWAP1 PUSH2 0x5E9 JUMP JUMPDEST PUSH1 0x40 MLOAD DUP1 SWAP2 SUB SWAP1 RETURN JUMPDEST PUSH2 0xD7 PUSH1 0x4 DUP1 CALLDATASIZE SUB DUP2 ADD SWAP1 PUSH2 0xD2 SWAP2 SWAP1 PUSH2 0x52B JUMP JUMPDEST PUSH2 0x2C0 JUMP JUMPDEST PUSH1 0x40 MLOAD PUSH2 0xE6 SWAP4 SWAP3 SWAP2 SWAP1 PUSH2 0x5AB JUMP JUMPDEST PUSH1 0x40 MLOAD DUP1 SWAP2 SUB SWAP1 RETURN JUMPDEST PUSH1 0x0 PUSH1 0x40 MLOAD DUP1 PUSH1 0x60 ADD PUSH1 0x40 MSTORE DUP1 DUP6 DUP2 MSTORE PUSH1 0x20 ADD DUP5 DUP2 MSTORE PUSH1 0x20 ADD DUP4 ISZERO ISZERO DUP2 MSTORE POP SWAP1 DUP1 PUSH1 0x1 DUP2 SLOAD ADD DUP1 DUP3 SSTORE DUP1 SWAP2 POP POP PUSH1 0x1 SWAP1 SUB SWAP1 PUSH1 0x0 MSTORE PUSH1 0x20 PUSH1 0x0 KECCAK256 SWAP1 PUSH1 0x3 MUL ADD PUSH1 0x0 SWAP1 SWAP2 SWAP1 SWAP2 SWAP1 SWAP2 POP PUSH1 0x0 DUP3 ADD MLOAD DUP2 PUSH1 0x0 ADD SWAP1 DUP1 MLOAD SWAP1 PUSH1 0x20 ADD SWAP1 PUSH2 0x153 SWAP3 SWAP2 SWAP1 PUSH2 0x38F JUMP JUMPDEST POP PUSH1 0x20 DUP3 ADD MLOAD DUP2 PUSH1 0x1 ADD SSTORE PUSH1 0x40 DUP3 ADD MLOAD DUP2 PUSH1 0x2 ADD PUSH1 0x0 PUSH2 0x100 EXP DUP2 SLOAD DUP2 PUSH1 0xFF MUL NOT AND SWAP1 DUP4 ISZERO ISZERO MUL OR SWAP1 SSTORE POP POP POP POP POP POP JUMP JUMPDEST PUSH1 0x60 PUSH1 0x0 DUP1 PUSH1 0x0 DUP1 DUP6 DUP2 SLOAD DUP2 LT PUSH2 0x1C5 JUMPI PUSH32 0x4E487B7100000000000000000000000000000000000000000000000000000000 PUSH1 0x0 MSTORE PUSH1 0x32 PUSH1 0x4 MSTORE PUSH1 0x24 PUSH1 0x0 REVERT JUMPDEST SWAP1 PUSH1 0x0 MSTORE PUSH1 0x20 PUSH1 0x0 KECCAK256 SWAP1 PUSH1 0x3 MUL ADD PUSH1 0x40 MLOAD DUP1 PUSH1 0x60 ADD PUSH1 0x40 MSTORE SWAP1 DUP2 PUSH1 0x0 DUP3 ADD DUP1 SLOAD PUSH2 0x1EE SWAP1 PUSH2 0x6CE JUMP JUMPDEST DUP1 PUSH1 0x1F ADD PUSH1 0x20 DUP1 SWAP2 DIV MUL PUSH1 0x20 ADD PUSH1 0x40 MLOAD SWAP1 DUP2 ADD PUSH1 0x40 MSTORE DUP1 SWAP3 SWAP2 SWAP1 DUP2 DUP2 MSTORE PUSH1 0x20 ADD DUP3 DUP1 SLOAD PUSH2 0x21A SWAP1 PUSH2 0x6CE JUMP JUMPDEST DUP1 ISZERO PUSH2 0x267 JUMPI DUP1 PUSH1 0x1F LT PUSH2 0x23C JUMPI PUSH2 0x100 DUP1 DUP4 SLOAD DIV MUL DUP4 MSTORE SWAP2 PUSH1 0x20 ADD SWAP2 PUSH2 0x267 JUMP JUMPDEST DUP3 ADD SWAP2 SWAP1 PUSH1 0x0 MSTORE PUSH1 0x20 PUSH1 0x0 KECCAK256 SWAP1 JUMPDEST DUP2 SLOAD DUP2 MSTORE SWAP1 PUSH1 0x1 ADD SWAP1 PUSH1 0x20 ADD DUP1 DUP4 GT PUSH2 0x24A JUMPI DUP3 SWAP1 SUB PUSH1 0x1F AND DUP3 ADD SWAP2 JUMPDEST POP POP POP POP POP DUP2 MSTORE PUSH1 0x20 ADD PUSH1 0x1 DUP3 ADD SLOAD DUP2 MSTORE PUSH1 0x20 ADD PUSH1 0x2 DUP3 ADD PUSH1 0x0 SWAP1 SLOAD SWAP1 PUSH2 0x100 EXP SWAP1 DIV PUSH1 0xFF AND ISZERO ISZERO ISZERO ISZERO DUP2 MSTORE POP POP SWAP1 POP DUP1 PUSH1 0x0 ADD MLOAD DUP2 PUSH1 0x20 ADD MLOAD DUP3 PUSH1 0x40 ADD MLOAD SWAP4 POP SWAP4 POP SWAP4 POP POP SWAP2 SWAP4 SWAP1 SWAP3 POP JUMP JUMPDEST PUSH1 0x0 DUP1 DUP1 SLOAD SWAP1 POP SWAP1 POP SWAP1 JUMP JUMPDEST PUSH1 0x0 DUP2 DUP2 SLOAD DUP2 LT PUSH2 0x2D0 JUMPI PUSH1 0x0 DUP1 REVERT JUMPDEST SWAP1 PUSH1 0x0 MSTORE PUSH1 0x20 PUSH1 0x0 KECCAK256 SWAP1 PUSH1 0x3 MUL ADD PUSH1 0x0 SWAP2 POP SWAP1 POP DUP1 PUSH1 0x0 ADD DUP1 SLOAD PUSH2 0x2F3 SWAP1 PUSH2 0x6CE JUMP JUMPDEST DUP1 PUSH1 0x1F ADD PUSH1 0x20 DUP1 SWAP2 DIV MUL PUSH1 0x20 ADD PUSH1 0x40 MLOAD SWAP1 DUP2 ADD PUSH1 0x40 MSTORE DUP1 SWAP3 SWAP2 SWAP1 DUP2 DUP2 MSTORE PUSH1 0x20 ADD DUP3 DUP1 SLOAD PUSH2 0x31F SWAP1 PUSH2 0x6CE JUMP JUMPDEST DUP1 ISZERO PUSH2 0x36C JUMPI DUP1 PUSH1 0x1F LT PUSH2 0x341 JUMPI PUSH2 0x100 DUP1 DUP4 SLOAD DIV MUL DUP4 MSTORE SWAP2 PUSH1 0x20 ADD SWAP2 PUSH2 0x36C JUMP JUMPDEST DUP3 ADD SWAP2 SWAP1 PUSH1 0x0 MSTORE PUSH1 0x20 PUSH1 0x0 KECCAK256 SWAP1 JUMPDEST DUP2 SLOAD DUP2 MSTORE SWAP1 PUSH1 0x1 ADD SWAP1 PUSH1 0x20 ADD DUP1 DUP4 GT PUSH2 0x34F JUMPI DUP3 SWAP1 SUB PUSH1 0x1F AND DUP3 ADD SWAP2 JUMPDEST POP POP POP POP POP SWAP1 DUP1 PUSH1 0x1 ADD SLOAD SWAP1 DUP1 PUSH1 0x2 ADD PUSH1 0x0 SWAP1 SLOAD SWAP1 PUSH2 0x100 EXP SWAP1 DIV PUSH1 0xFF AND SWAP1 POP DUP4 JUMP JUMPDEST DUP3 DUP1 SLOAD PUSH2 0x39B SWAP1 PUSH2 0x6CE JUMP JUMPDEST SWAP1 PUSH1 0x0 MSTORE PUSH1 0x20 PUSH1 0x0 KECCAK256 SWAP1 PUSH1 0x1F ADD PUSH1 0x20 SWAP1 DIV DUP2 ADD SWAP3 DUP3 PUSH2 0x3BD JUMPI PUSH1 0x0 DUP6 SSTORE PUSH2 0x404 JUMP JUMPDEST DUP3 PUSH1 0x1F LT PUSH2 0x3D6 JUMPI DUP1 MLOAD PUSH1 0xFF NOT AND DUP4 DUP1 ADD OR DUP6 SSTORE PUSH2 0x404 JUMP JUMPDEST DUP3 DUP1 ADD PUSH1 0x1 ADD DUP6 SSTORE DUP3 ISZERO PUSH2 0x404 JUMPI SWAP2 DUP3 ADD JUMPDEST DUP3 DUP2 GT ISZERO PUSH2 0x403 JUMPI DUP3 MLOAD DUP3 SSTORE SWAP2 PUSH1 0x20 ADD SWAP2 SWAP1 PUSH1 0x1 ADD SWAP1 PUSH2 0x3E8 JUMP JUMPDEST JUMPDEST POP SWAP1 POP PUSH2 0x411 SWAP2 SWAP1 PUSH2 0x415 JUMP JUMPDEST POP SWAP1 JUMP JUMPDEST JUMPDEST DUP1 DUP3 GT ISZERO PUSH2 0x42E JUMPI PUSH1 0x0 DUP2 PUSH1 0x0 SWAP1 SSTORE POP PUSH1 0x1 ADD PUSH2 0x416 JUMP JUMPDEST POP SWAP1 JUMP JUMPDEST PUSH1 0x0 PUSH2 0x445 PUSH2 0x440 DUP5 PUSH2 0x629 JUMP JUMPDEST PUSH2 0x604 JUMP JUMPDEST SWAP1 POP DUP3 DUP2 MSTORE PUSH1 0x20 DUP2 ADD DUP5 DUP5 DUP5 ADD GT ISZERO PUSH2 0x45D JUMPI PUSH1 0x0 DUP1 REVERT JUMPDEST PUSH2 0x468 DUP5 DUP3 DUP6 PUSH2 0x68C JUMP JUMPDEST POP SWAP4 SWAP3 POP POP POP JUMP JUMPDEST PUSH1 0x0 DUP2 CALLDATALOAD SWAP1 POP PUSH2 0x47F DUP2 PUSH2 0x7A0 JUMP JUMPDEST SWAP3 SWAP2 POP POP JUMP JUMPDEST PUSH1 0x0 DUP3 PUSH1 0x1F DUP4 ADD SLT PUSH2 0x496 JUMPI PUSH1 0x0 DUP1 REVERT JUMPDEST DUP2 CALLDATALOAD PUSH2 0x4A6 DUP5 DUP3 PUSH1 0x20 DUP7 ADD PUSH2 0x432 JUMP JUMPDEST SWAP2 POP POP SWAP3 SWAP2 POP POP JUMP JUMPDEST PUSH1 0x0 DUP2 CALLDATALOAD SWAP1 POP PUSH2 0x4BE DUP2 PUSH2 0x7B7 JUMP JUMPDEST SWAP3 SWAP2 POP POP JUMP JUMPDEST PUSH1 0x0 DUP1 PUSH1 0x0 PUSH1 0x60 DUP5 DUP7 SUB SLT ISZERO PUSH2 0x4D9 JUMPI PUSH1 0x0 DUP1 REVERT JUMPDEST PUSH1 0x0 DUP5 ADD CALLDATALOAD PUSH8 0xFFFFFFFFFFFFFFFF DUP2 GT ISZERO PUSH2 0x4F3 JUMPI PUSH1 0x0 DUP1 REVERT JUMPDEST PUSH2 0x4FF DUP7 DUP3 DUP8 ADD PUSH2 0x485 JUMP JUMPDEST SWAP4 POP POP PUSH1 0x20 PUSH2 0x510 DUP7 DUP3 DUP8 ADD PUSH2 0x4AF JUMP JUMPDEST SWAP3 POP POP PUSH1 0x40 PUSH2 0x521 DUP7 DUP3 DUP8 ADD PUSH2 0x470 JUMP JUMPDEST SWAP2 POP POP SWAP3 POP SWAP3 POP SWAP3 JUMP JUMPDEST PUSH1 0x0 PUSH1 0x20 DUP3 DUP5 SUB SLT ISZERO PUSH2 0x53D JUMPI PUSH1 0x0 DUP1 REVERT JUMPDEST PUSH1 0x0 PUSH2 0x54B DUP5 DUP3 DUP6 ADD PUSH2 0x4AF JUMP JUMPDEST SWAP2 POP POP SWAP3 SWAP2 POP POP JUMP JUMPDEST PUSH2 0x55D DUP2 PUSH2 0x676 JUMP JUMPDEST DUP3 MSTORE POP POP JUMP JUMPDEST PUSH1 0x0 PUSH2 0x56E DUP3 PUSH2 0x65A JUMP JUMPDEST PUSH2 0x578 DUP2 DUP6 PUSH2 0x665 JUMP JUMPDEST SWAP4 POP PUSH2 0x588 DUP2 DUP6 PUSH1 0x20 DUP7 ADD PUSH2 0x69B JUMP JUMPDEST PUSH2 0x591 DUP2 PUSH2 0x78F JUMP JUMPDEST DUP5 ADD SWAP2 POP POP SWAP3 SWAP2 POP POP JUMP JUMPDEST PUSH2 0x5A5 DUP2 PUSH2 0x682 JUMP JUMPDEST DUP3 MSTORE POP POP JUMP JUMPDEST PUSH1 0x0 PUSH1 0x60 DUP3 ADD SWAP1 POP DUP2 DUP2 SUB PUSH1 0x0 DUP4 ADD MSTORE PUSH2 0x5C5 DUP2 DUP7 PUSH2 0x563 JUMP JUMPDEST SWAP1 POP PUSH2 0x5D4 PUSH1 0x20 DUP4 ADD DUP6 PUSH2 0x59C JUMP JUMPDEST PUSH2 0x5E1 PUSH1 0x40 DUP4 ADD DUP5 PUSH2 0x554 JUMP JUMPDEST SWAP5 SWAP4 POP POP POP POP JUMP JUMPDEST PUSH1 0x0 PUSH1 0x20 DUP3 ADD SWAP1 POP PUSH2 0x5FE PUSH1 0x0 DUP4 ADD DUP5 PUSH2 0x59C JUMP JUMPDEST SWAP3 SWAP2 POP POP JUMP JUMPDEST PUSH1 0x0 PUSH2 0x60E PUSH2 0x61F JUMP JUMPDEST SWAP1 POP PUSH2 0x61A DUP3 DUP3 PUSH2 0x700 JUMP JUMPDEST SWAP2 SWAP1 POP JUMP JUMPDEST PUSH1 0x0 PUSH1 0x40 MLOAD SWAP1 POP SWAP1 JUMP JUMPDEST PUSH1 0x0 PUSH8 0xFFFFFFFFFFFFFFFF DUP3 GT ISZERO PUSH2 0x644 JUMPI PUSH2 0x643 PUSH2 0x760 JUMP JUMPDEST JUMPDEST PUSH2 0x64D DUP3 PUSH2 0x78F JUMP JUMPDEST SWAP1 POP PUSH1 0x20 DUP2 ADD SWAP1 POP SWAP2 SWAP1 POP JUMP JUMPDEST PUSH1 0x0 DUP2 MLOAD SWAP1 POP SWAP2 SWAP1 POP JUMP JUMPDEST PUSH1 0x0 DUP3 DUP3 MSTORE PUSH1 0x20 DUP3 ADD SWAP1 POP SWAP3 SWAP2 POP POP JUMP JUMPDEST PUSH1 0x0 DUP2 ISZERO ISZERO SWAP1 POP SWAP2 SWAP1 POP JUMP JUMPDEST PUSH1 0x0 DUP2 SWAP1 POP SWAP2 SWAP1 POP JUMP JUMPDEST DUP3 DUP2 DUP4 CALLDATACOPY PUSH1 0x0 DUP4 DUP4 ADD MSTORE POP POP POP JUMP JUMPDEST PUSH1 0x0 JUMPDEST DUP4 DUP2 LT ISZERO PUSH2 0x6B9 JUMPI DUP1 DUP3 ADD MLOAD DUP2 DUP5 ADD MSTORE PUSH1 0x20 DUP2 ADD SWAP1 POP PUSH2 0x69E JUMP JUMPDEST DUP4 DUP2 GT ISZERO PUSH2 0x6C8 JUMPI PUSH1 0x0 DUP5 DUP5 ADD MSTORE JUMPDEST POP POP POP POP JUMP JUMPDEST PUSH1 0x0 PUSH1 0x2 DUP3 DIV SWAP1 POP PUSH1 0x1 DUP3 AND DUP1 PUSH2 0x6E6 JUMPI PUSH1 0x7F DUP3 AND SWAP2 POP JUMPDEST PUSH1 0x20 DUP3 LT DUP2 EQ ISZERO PUSH2 0x6FA JUMPI PUSH2 0x6F9 PUSH2 0x731 JUMP JUMPDEST JUMPDEST POP SWAP2 SWAP1 POP JUMP JUMPDEST PUSH2 0x709 DUP3 PUSH2 0x78F JUMP JUMPDEST DUP2 ADD DUP2 DUP2 LT PUSH8 0xFFFFFFFFFFFFFFFF DUP3 GT OR ISZERO PUSH2 0x728 JUMPI PUSH2 0x727 PUSH2 0x760 JUMP JUMPDEST JUMPDEST DUP1 PUSH1 0x40 MSTORE POP POP POP JUMP JUMPDEST PUSH32 0x4E487B7100000000000000000000000000000000000000000000000000000000 PUSH1 0x0 MSTORE PUSH1 0x22 PUSH1 0x4 MSTORE PUSH1 0x24 PUSH1 0x0 REVERT JUMPDEST PUSH32 0x4E487B7100000000000000000000000000000000000000000000000000000000 PUSH1 0x0 MSTORE PUSH1 0x41 PUSH1 0x4 MSTORE PUSH1 0x24 PUSH1 0x0 REVERT JUMPDEST PUSH1 0x0 PUSH1 0x1F NOT PUSH1 0x1F DUP4 ADD AND SWAP1 POP SWAP2 SWAP1 POP JUMP JUMPDEST PUSH2 0x7A9 DUP2 PUSH2 0x676 JUMP JUMPDEST DUP2 EQ PUSH2 0x7B4 JUMPI PUSH1 0x0 DUP1 REVERT JUMPDEST POP JUMP JUMPDEST PUSH2 0x7C0 DUP2 PUSH2 0x682 JUMP JUMPDEST DUP2 EQ PUSH2 0x7CB JUMPI PUSH1 0x0 DUP1 REVERT JUMPDEST POP JUMP INVALID LOG2 PUSH5 0x6970667358 0x22 SLT KECCAK256 SLT SWAP2 GAS 0xD5 SELFBALANCE 0xCE PUSH30 0x4F3287275D7D80616D0FEC6BD323E82083C6D632CD578B49E064736F6C63 NUMBER STOP ADDMOD DIV STOP CALLER "
				},
				"gasEstimates": {
					"creation": {
						"codeDepositCost": "410400",
						"executionCost": "449",
						"totalCost": "410849"
					},
					"external": {
						"addPerson(string,uint256,bool)": "infinite",
						"getCount()": "1167",
						"getIndex(uint256)": "infinite",
						"profiles(uint256)": "infinite"
					}
				},
				"methodIdentifiers": {
					"addPerson(string,uint256,bool)": "032ce9aa",
					"getCount()": "a87d942c",
					"getIndex(uint256)": "8e7cb6e1",
					"profiles(uint256)": "c36fe3d6"
				}
			},
			"storageLayout": {
				"storage": [
					{
						"astId": 133,
						"contract": "Solidity/Struct.sol:multipleStruct",
						"label": "profiles",
						"offset": 0,
						"slot": "0",
						"type": "t_array(t_struct(Profile)129_storage)dyn_storage"
					}
				],
				"types": {
					"t_array(t_struct(Profile)129_storage)dyn_storage": {
						"base": "t_struct(Profile)129_storage",
						"encoding": "dynamic_array",
						"label": "struct multipleStruct.Profile[]",
						"numberOfBytes": "32"
					},
					"t_bool": {
						"encoding": "inplace",
						"label": "bool",
						"numberOfBytes": "1"
					},
					"t_string_storage": {
						"encoding": "bytes",
						"label": "string",
						"numberOfBytes": "32"
					},
					"t_struct(Profile)129_storage": {
						"encoding": "inplace",
						"label": "struct multipleStruct.Profile",
						"members": [
							{
								"astId": 124,
								"contract": "Solidity/Struct.sol:multipleStruct",
								"label": "name",
								"offset": 0,
								"slot": "0",
								"type": "t_string_storage"
							},
							{
								"astId": 126,
								"contract": "Solidity/Struct.sol:multipleStruct",
								"label": "age",
								"offset": 0,
								"slot": "1",
								"type": "t_uint256"
							},
							{
								"astId": 128,
								"contract": "Solidity/Struct.sol:multipleStruct",
								"label": "isMarried",
								"offset": 0,
								"slot": "2",
								"type": "t_bool"
							}
						],
						"numberOfBytes": "96"
					},
					"t_uint256": {
						"encoding": "inplace",
						"label": "uint256",
						"numberOfBytes": "32"
					}
				}
			},
			"userdoc": {
				"kind": "user",
				"methods": {},
				"version": 1
			}
		}
	}
}