{
	"Solidity/Struct.sol": {
		"externalStruct": {
			"abi": [
				{
					"inputs": [],
					"name": "credentials",
					"outputs": [
						{
							"internalType": "string",
							"name": "userID",
							"type": "string"
						},
						{
							"internalType": "string",
							"name": "username",
							"type": "string"
						},
						{
							"internalType": "uint256",
							"name": "password",
							"type": "uint256"
						}
					],
					"stateMutability": "view",
					"type": "function"
				},
				{
					"inputs": [
						{
							"internalType": "string",
							"name": "_userID",
							"type": "string"
						},
						{
							"internalType": "string",
							"name": "_username",
							"type": "string"
						},
						{
							"internalType": "uint256",
							"name": "_password",
							"type": "uint256"
						}
					],
					"name": "externalData",
					"outputs": [],
					"stateMutability": "nonpayable",
					"type": "function"
				},
				{
					"inputs": [],
					"name": "getExternaData",
					"outputs": [
						{
							"internalType": "string",
							"name": "",
							"type": "string"
						},
						{
							"internalType": "string",
							"name": "",
							"type": "string"
						},
						{
							"internalType": "uint256",
							"name": "",
							"type": "uint256"
						}
					],
					"stateMutability": "view",
					"type": "function"
				}
			],
			"devdoc": {
				"kind": "dev",
				"methods": {},
				"version": 1
			},
			"evm": {
				"assembly": "    /* \"Solidity/Struct.sol\":2301:2861  contract externalStruct {... */\n  mstore(0x40, 0x80)\n  callvalue\n  dup1\n  iszero\n  tag_1\n  jumpi\n  0x00\n  dup1\n  revert\ntag_1:\n  pop\n  dataSize(sub_0)\n  dup1\n  dataOffset(sub_0)\n  0x00\n  codecopy\n  0x00\n  return\nstop\n\nsub_0: assembly {\n        /* \"Solidity/Struct.sol\":2301:2861  contract externalStruct {... */\n      mstore(0x40, 0x80)\n      callvalue\n      dup1\n      iszero\n      tag_1\n      jumpi\n      0x00\n      dup1\n      revert\n    tag_1:\n      pop\n      jumpi(tag_2, lt(calldatasize, 0x04))\n      shr(0xe0, calldataload(0x00))\n      dup1\n      0x701a658d\n      eq\n      tag_3\n      jumpi\n      dup1\n      0x927df998\n      eq\n      tag_4\n      jumpi\n      dup1\n      0xa5b9f44d\n      eq\n      tag_5\n      jumpi\n    tag_2:\n      0x00\n      dup1\n      revert\n        /* \"Solidity/Struct.sol\":2404:2605  function externalData(... */\n    tag_3:\n      tag_6\n      0x04\n      dup1\n      calldatasize\n      sub\n      dup2\n      add\n      swap1\n      tag_7\n      swap2\n      swap1\n      tag_8\n      jump\t// in\n    tag_7:\n      tag_9\n      jump\t// in\n    tag_6:\n      stop\n        /* \"Solidity/Struct.sol\":2331:2363  MyCredentials public credentials */\n    tag_4:\n      tag_10\n      tag_11\n      jump\t// in\n    tag_10:\n      mload(0x40)\n      tag_12\n      swap4\n      swap3\n      swap2\n      swap1\n      tag_13\n      jump\t// in\n    tag_12:\n      mload(0x40)\n      dup1\n      swap2\n      sub\n      swap1\n      return\n        /* \"Solidity/Struct.sol\":2611:2859  function getExternaData()... */\n    tag_5:\n      tag_14\n      tag_15\n      jump\t// in\n    tag_14:\n      mload(0x40)\n      tag_16\n      swap4\n      swap3\n      swap2\n      swap1\n      tag_13\n      jump\t// in\n    tag_16:\n      mload(0x40)\n      dup1\n      swap2\n      sub\n      swap1\n      return\n        /* \"Solidity/Struct.sol\":2404:2605  function externalData(... */\n    tag_9:\n        /* \"Solidity/Struct.sol\":2554:2598  MyCredentials(_userID, _username, _password) */\n      mload(0x40)\n      dup1\n      0x60\n      add\n      0x40\n      mstore\n      dup1\n        /* \"Solidity/Struct.sol\":2568:2575  _userID */\n      dup5\n        /* \"Solidity/Struct.sol\":2554:2598  MyCredentials(_userID, _username, _password) */\n      dup2\n      mstore\n      0x20\n      add\n        /* \"Solidity/Struct.sol\":2577:2586  _username */\n      dup4\n        /* \"Solidity/Struct.sol\":2554:2598  MyCredentials(_userID, _username, _password) */\n      dup2\n      mstore\n      0x20\n      add\n        /* \"Solidity/Struct.sol\":2588:2597  _password */\n      dup3\n        /* \"Solidity/Struct.sol\":2554:2598  MyCredentials(_userID, _username, _password) */\n      dup2\n      mstore\n      pop\n        /* \"Solidity/Struct.sol\":2540:2551  credentials */\n      0x00\n        /* \"Solidity/Struct.sol\":2540:2598  credentials = MyCredentials(_userID, _username, _password) */\n      dup1\n      dup3\n      add\n      mload\n      dup2\n      0x00\n      add\n      swap1\n      dup1\n      mload\n      swap1\n      0x20\n      add\n      swap1\n      tag_18\n      swap3\n      swap2\n      swap1\n      tag_19\n      jump\t// in\n    tag_18:\n      pop\n      0x20\n      dup3\n      add\n      mload\n      dup2\n      0x01\n      add\n      swap1\n      dup1\n      mload\n      swap1\n      0x20\n      add\n      swap1\n      tag_20\n      swap3\n      swap2\n      swap1\n      tag_19\n      jump\t// in\n    tag_20:\n      pop\n      0x40\n      dup3\n      add\n      mload\n      dup2\n      0x02\n      add\n      sstore\n      swap1\n      pop\n      pop\n        /* \"Solidity/Struct.sol\":2404:2605  function externalData(... */\n      pop\n      pop\n      pop\n      jump\t// out\n        /* \"Solidity/Struct.sol\":2331:2363  MyCredentials public credentials */\n    tag_11:\n      0x00\n      dup1\n      0x00\n      add\n      dup1\n      sload\n      tag_21\n      swap1\n      tag_22\n      jump\t// in\n    tag_21:\n      dup1\n      0x1f\n      add\n      0x20\n      dup1\n      swap2\n      div\n      mul\n      0x20\n      add\n      mload(0x40)\n      swap1\n      dup2\n      add\n      0x40\n      mstore\n      dup1\n      swap3\n      swap2\n      swap1\n      dup2\n      dup2\n      mstore\n      0x20\n      add\n      dup3\n      dup1\n      sload\n      tag_23\n      swap1\n      tag_22\n      jump\t// in\n    tag_23:\n      dup1\n      iszero\n      tag_24\n      jumpi\n      dup1\n      0x1f\n      lt\n      tag_25\n      jumpi\n      0x0100\n      dup1\n      dup4\n      sload\n      div\n      mul\n      dup4\n      mstore\n      swap2\n      0x20\n      add\n      swap2\n      jump(tag_24)\n    tag_25:\n      dup3\n      add\n      swap2\n      swap1\n      0x00\n      mstore\n      keccak256(0x00, 0x20)\n      swap1\n    tag_26:\n      dup2\n      sload\n      dup2\n      mstore\n      swap1\n      0x01\n      add\n      swap1\n      0x20\n      add\n      dup1\n      dup4\n      gt\n      tag_26\n      jumpi\n      dup3\n      swap1\n      sub\n      0x1f\n      and\n      dup3\n      add\n      swap2\n    tag_24:\n      pop\n      pop\n      pop\n      pop\n      pop\n      swap1\n      dup1\n      0x01\n      add\n      dup1\n      sload\n      tag_27\n      swap1\n      tag_22\n      jump\t// in\n    tag_27:\n      dup1\n      0x1f\n      add\n      0x20\n      dup1\n      swap2\n      div\n      mul\n      0x20\n      add\n      mload(0x40)\n      swap1\n      dup2\n      add\n      0x40\n      mstore\n      dup1\n      swap3\n      swap2\n      swap1\n      dup2\n      dup2\n      mstore\n      0x20\n      add\n      dup3\n      dup1\n      sload\n      tag_28\n      swap1\n      tag_22\n      jump\t// in\n    tag_28:\n      dup1\n      iszero\n      tag_29\n      jumpi\n      dup1\n      0x1f\n      lt\n      tag_30\n      jumpi\n      0x0100\n      dup1\n      dup4\n      sload\n      div\n      mul\n      dup4\n      mstore\n      swap2\n      0x20\n      add\n      swap2\n      jump(tag_29)\n    tag_30:\n      dup3\n      add\n      swap2\n      swap1\n      0x00\n      mstore\n      keccak256(0x00, 0x20)\n      swap1\n    tag_31:\n      dup2\n      sload\n      dup2\n      mstore\n      swap1\n      0x01\n      add\n      swap1\n      0x20\n      add\n      dup1\n      dup4\n      gt\n      tag_31\n      jumpi\n      dup3\n      swap1\n      sub\n      0x1f\n      and\n      dup3\n      add\n      swap2\n    tag_29:\n      pop\n      pop\n      pop\n      pop\n      pop\n      swap1\n      dup1\n      0x02\n      add\n      sload\n      swap1\n      pop\n      dup4\n      jump\t// out\n        /* \"Solidity/Struct.sol\":2611:2859  function getExternaData()... */\n    tag_15:\n        /* \"Solidity/Struct.sol\":2695:2708  string memory */\n      0x60\n        /* \"Solidity/Struct.sol\":2722:2735  string memory */\n      dup1\n        /* \"Solidity/Struct.sol\":2749:2756  uint256 */\n      0x00\n        /* \"Solidity/Struct.sol\":2789:2800  credentials */\n      dup1\n        /* \"Solidity/Struct.sol\":2789:2807  credentials.userID */\n      0x00\n      add\n        /* \"Solidity/Struct.sol\":2809:2820  credentials */\n      0x00\n        /* \"Solidity/Struct.sol\":2809:2829  credentials.username */\n      0x01\n      add\n        /* \"Solidity/Struct.sol\":2831:2842  credentials */\n      0x00\n        /* \"Solidity/Struct.sol\":2831:2851  credentials.password */\n      0x02\n      add\n      sload\n        /* \"Solidity/Struct.sol\":2781:2852  return (credentials.userID, credentials.username, credentials.password) */\n      dup3\n      dup1\n      sload\n      tag_33\n      swap1\n      tag_22\n      jump\t// in\n    tag_33:\n      dup1\n      0x1f\n      add\n      0x20\n      dup1\n      swap2\n      div\n      mul\n      0x20\n      add\n      mload(0x40)\n      swap1\n      dup2\n      add\n      0x40\n      mstore\n      dup1\n      swap3\n      swap2\n      swap1\n      dup2\n      dup2\n      mstore\n      0x20\n      add\n      dup3\n      dup1\n      sload\n      tag_34\n      swap1\n      tag_22\n      jump\t// in\n    tag_34:\n      dup1\n      iszero\n      tag_35\n      jumpi\n      dup1\n      0x1f\n      lt\n      tag_36\n      jumpi\n      0x0100\n      dup1\n      dup4\n      sload\n      div\n      mul\n      dup4\n      mstore\n      swap2\n      0x20\n      add\n      swap2\n      jump(tag_35)\n    tag_36:\n      dup3\n      add\n      swap2\n      swap1\n      0x00\n      mstore\n      keccak256(0x00, 0x20)\n      swap1\n    tag_37:\n      dup2\n      sload\n      dup2\n      mstore\n      swap1\n      0x01\n      add\n      swap1\n      0x20\n      add\n      dup1\n      dup4\n      gt\n      tag_37\n      jumpi\n      dup3\n      swap1\n      sub\n      0x1f\n      and\n      dup3\n      add\n      swap2\n    tag_35:\n      pop\n      pop\n      pop\n      pop\n      pop\n      swap3\n      pop\n      dup2\n      dup1\n      sload\n      tag_38\n      swap1\n      tag_22\n      jump\t// in\n    tag_38:\n      dup1\n      0x1f\n      add\n      0x20\n      dup1\n      swap2\n      div\n      mul\n      0x20\n      add\n      mload(0x40)\n      swap1\n      dup2\n      add\n      0x40\n      mstore\n      dup1\n      swap3\n      swap2\n      swap1\n      dup2\n      dup2\n      mstore\n      0x20\n      add\n      dup3\n      dup1\n      sload\n      tag_39\n      swap1\n      tag_22\n      jump\t// in\n    tag_39:\n      dup1\n      iszero\n      tag_40\n      jumpi\n      dup1\n      0x1f\n      lt\n      tag_41\n      jumpi\n      0x0100\n      dup1\n      dup4\n      sload\n      div\n      mul\n      dup4\n      mstore\n      swap2\n      0x20\n      add\n      swap2\n      jump(tag_40)\n    tag_41:\n      dup3\n      add\n      swap2\n      swap1\n      0x00\n      mstore\n      keccak256(0x00, 0x20)\n      swap1\n    tag_42:\n      dup2\n      sload\n      dup2\n      mstore\n      swap1\n      0x01\n      add\n      swap1\n      0x20\n      add\n      dup1\n      dup4\n      gt\n      tag_42\n      jumpi\n      dup3\n      swap1\n      sub\n      0x1f\n      and\n      dup3\n      add\n      swap2\n    tag_40:\n      pop\n      pop\n      pop\n      pop\n      pop\n      swap2\n      pop\n      swap3\n      pop\n      swap3\n      pop\n      swap3\n      pop\n        /* \"Solidity/Struct.sol\":2611:2859  function getExternaData()... */\n      swap1\n      swap2\n      swap3\n      jump\t// out\n    tag_19:\n      dup3\n      dup1\n      sload\n      tag_43\n      swap1\n      tag_22\n      jump\t// in\n    tag_43:\n      swap1\n      0x00\n      mstore\n      keccak256(0x00, 0x20)\n      swap1\n      0x1f\n      add\n      0x20\n      swap1\n      div\n      dup2\n      add\n      swap3\n      dup3\n      tag_45\n      jumpi\n      0x00\n      dup6\n      sstore\n      jump(tag_44)\n    tag_45:\n      dup3\n      0x1f\n      lt\n      tag_46\n      jumpi\n      dup1\n      mload\n      not(0xff)\n      and\n      dup4\n      dup1\n      add\n      or\n      dup6\n      sstore\n      jump(tag_44)\n    tag_46:\n      dup3\n      dup1\n      add\n      0x01\n      add\n      dup6\n      sstore\n      dup3\n      iszero\n      tag_44\n      jumpi\n      swap2\n      dup3\n      add\n    tag_47:\n      dup3\n      dup2\n      gt\n      iszero\n      tag_48\n      jumpi\n      dup3\n      mload\n      dup3\n      sstore\n      swap2\n      0x20\n      add\n      swap2\n      swap1\n      0x01\n      add\n      swap1\n      jump(tag_47)\n    tag_48:\n    tag_44:\n      pop\n      swap1\n      pop\n      tag_49\n      swap2\n      swap1\n      tag_50\n      jump\t// in\n    tag_49:\n      pop\n      swap1\n      jump\t// out\n    tag_50:\n    tag_51:\n      dup1\n      dup3\n      gt\n      iszero\n      tag_52\n      jumpi\n      0x00\n      dup2\n      0x00\n      swap1\n      sstore\n      pop\n      0x01\n      add\n      jump(tag_51)\n    tag_52:\n      pop\n      swap1\n      jump\t// out\n        /* \"#utility.yul\":7:352   */\n    tag_54:\n        /* \"#utility.yul\":85:90   */\n      0x00\n        /* \"#utility.yul\":110:176   */\n      tag_56\n        /* \"#utility.yul\":126:175   */\n      tag_57\n        /* \"#utility.yul\":168:174   */\n      dup5\n        /* \"#utility.yul\":126:175   */\n      tag_58\n      jump\t// in\n    tag_57:\n        /* \"#utility.yul\":110:176   */\n      tag_59\n      jump\t// in\n    tag_56:\n        /* \"#utility.yul\":101:176   */\n      swap1\n      pop\n        /* \"#utility.yul\":199:205   */\n      dup3\n        /* \"#utility.yul\":192:197   */\n      dup2\n        /* \"#utility.yul\":185:206   */\n      mstore\n        /* \"#utility.yul\":237:241   */\n      0x20\n        /* \"#utility.yul\":230:235   */\n      dup2\n        /* \"#utility.yul\":226:242   */\n      add\n        /* \"#utility.yul\":275:278   */\n      dup5\n        /* \"#utility.yul\":266:272   */\n      dup5\n        /* \"#utility.yul\":261:264   */\n      dup5\n        /* \"#utility.yul\":257:273   */\n      add\n        /* \"#utility.yul\":254:279   */\n      gt\n        /* \"#utility.yul\":251:253   */\n      iszero\n      tag_60\n      jumpi\n        /* \"#utility.yul\":292:293   */\n      0x00\n        /* \"#utility.yul\":289:290   */\n      dup1\n        /* \"#utility.yul\":282:294   */\n      revert\n        /* \"#utility.yul\":251:253   */\n    tag_60:\n        /* \"#utility.yul\":305:346   */\n      tag_61\n        /* \"#utility.yul\":339:345   */\n      dup5\n        /* \"#utility.yul\":334:337   */\n      dup3\n        /* \"#utility.yul\":329:332   */\n      dup6\n        /* \"#utility.yul\":305:346   */\n      tag_62\n      jump\t// in\n    tag_61:\n        /* \"#utility.yul\":91:352   */\n      pop\n      swap4\n      swap3\n      pop\n      pop\n      pop\n      jump\t// out\n        /* \"#utility.yul\":372:645   */\n    tag_63:\n        /* \"#utility.yul\":428:433   */\n      0x00\n        /* \"#utility.yul\":477:480   */\n      dup3\n        /* \"#utility.yul\":470:474   */\n      0x1f\n        /* \"#utility.yul\":462:468   */\n      dup4\n        /* \"#utility.yul\":458:475   */\n      add\n        /* \"#utility.yul\":454:481   */\n      slt\n        /* \"#utility.yul\":444:446   */\n      tag_65\n      jumpi\n        /* \"#utility.yul\":495:496   */\n      0x00\n        /* \"#utility.yul\":492:493   */\n      dup1\n        /* \"#utility.yul\":485:497   */\n      revert\n        /* \"#utility.yul\":444:446   */\n    tag_65:\n        /* \"#utility.yul\":535:541   */\n      dup2\n        /* \"#utility.yul\":522:542   */\n      calldataload\n        /* \"#utility.yul\":560:639   */\n      tag_66\n        /* \"#utility.yul\":635:638   */\n      dup5\n        /* \"#utility.yul\":627:633   */\n      dup3\n        /* \"#utility.yul\":620:624   */\n      0x20\n        /* \"#utility.yul\":612:618   */\n      dup7\n        /* \"#utility.yul\":608:625   */\n      add\n        /* \"#utility.yul\":560:639   */\n      tag_54\n      jump\t// in\n    tag_66:\n        /* \"#utility.yul\":551:639   */\n      swap2\n      pop\n        /* \"#utility.yul\":434:645   */\n      pop\n      swap3\n      swap2\n      pop\n      pop\n      jump\t// out\n        /* \"#utility.yul\":651:790   */\n    tag_67:\n        /* \"#utility.yul\":697:702   */\n      0x00\n        /* \"#utility.yul\":735:741   */\n      dup2\n        /* \"#utility.yul\":722:742   */\n      calldataload\n        /* \"#utility.yul\":713:742   */\n      swap1\n      pop\n        /* \"#utility.yul\":751:784   */\n      tag_69\n        /* \"#utility.yul\":778:783   */\n      dup2\n        /* \"#utility.yul\":751:784   */\n      tag_70\n      jump\t// in\n    tag_69:\n        /* \"#utility.yul\":703:790   */\n      swap3\n      swap2\n      pop\n      pop\n      jump\t// out\n        /* \"#utility.yul\":796:1574   */\n    tag_8:\n        /* \"#utility.yul\":893:899   */\n      0x00\n        /* \"#utility.yul\":901:907   */\n      dup1\n        /* \"#utility.yul\":909:915   */\n      0x00\n        /* \"#utility.yul\":958:960   */\n      0x60\n        /* \"#utility.yul\":946:955   */\n      dup5\n        /* \"#utility.yul\":937:944   */\n      dup7\n        /* \"#utility.yul\":933:956   */\n      sub\n        /* \"#utility.yul\":929:961   */\n      slt\n        /* \"#utility.yul\":926:928   */\n      iszero\n      tag_72\n      jumpi\n        /* \"#utility.yul\":974:975   */\n      0x00\n        /* \"#utility.yul\":971:972   */\n      dup1\n        /* \"#utility.yul\":964:976   */\n      revert\n        /* \"#utility.yul\":926:928   */\n    tag_72:\n        /* \"#utility.yul\":1045:1046   */\n      0x00\n        /* \"#utility.yul\":1034:1043   */\n      dup5\n        /* \"#utility.yul\":1030:1047   */\n      add\n        /* \"#utility.yul\":1017:1048   */\n      calldataload\n        /* \"#utility.yul\":1075:1093   */\n      0xffffffffffffffff\n        /* \"#utility.yul\":1067:1073   */\n      dup2\n        /* \"#utility.yul\":1064:1094   */\n      gt\n        /* \"#utility.yul\":1061:1063   */\n      iszero\n      tag_73\n      jumpi\n        /* \"#utility.yul\":1107:1108   */\n      0x00\n        /* \"#utility.yul\":1104:1105   */\n      dup1\n        /* \"#utility.yul\":1097:1109   */\n      revert\n        /* \"#utility.yul\":1061:1063   */\n    tag_73:\n        /* \"#utility.yul\":1135:1198   */\n      tag_74\n        /* \"#utility.yul\":1190:1197   */\n      dup7\n        /* \"#utility.yul\":1181:1187   */\n      dup3\n        /* \"#utility.yul\":1170:1179   */\n      dup8\n        /* \"#utility.yul\":1166:1188   */\n      add\n        /* \"#utility.yul\":1135:1198   */\n      tag_63\n      jump\t// in\n    tag_74:\n        /* \"#utility.yul\":1125:1198   */\n      swap4\n      pop\n        /* \"#utility.yul\":988:1208   */\n      pop\n        /* \"#utility.yul\":1275:1277   */\n      0x20\n        /* \"#utility.yul\":1264:1273   */\n      dup5\n        /* \"#utility.yul\":1260:1278   */\n      add\n        /* \"#utility.yul\":1247:1279   */\n      calldataload\n        /* \"#utility.yul\":1306:1324   */\n      0xffffffffffffffff\n        /* \"#utility.yul\":1298:1304   */\n      dup2\n        /* \"#utility.yul\":1295:1325   */\n      gt\n        /* \"#utility.yul\":1292:1294   */\n      iszero\n      tag_75\n      jumpi\n        /* \"#utility.yul\":1338:1339   */\n      0x00\n        /* \"#utility.yul\":1335:1336   */\n      dup1\n        /* \"#utility.yul\":1328:1340   */\n      revert\n        /* \"#utility.yul\":1292:1294   */\n    tag_75:\n        /* \"#utility.yul\":1366:1429   */\n      tag_76\n        /* \"#utility.yul\":1421:1428   */\n      dup7\n        /* \"#utility.yul\":1412:1418   */\n      dup3\n        /* \"#utility.yul\":1401:1410   */\n      dup8\n        /* \"#utility.yul\":1397:1419   */\n      add\n        /* \"#utility.yul\":1366:1429   */\n      tag_63\n      jump\t// in\n    tag_76:\n        /* \"#utility.yul\":1356:1429   */\n      swap3\n      pop\n        /* \"#utility.yul\":1218:1439   */\n      pop\n        /* \"#utility.yul\":1478:1480   */\n      0x40\n        /* \"#utility.yul\":1504:1557   */\n      tag_77\n        /* \"#utility.yul\":1549:1556   */\n      dup7\n        /* \"#utility.yul\":1540:1546   */\n      dup3\n        /* \"#utility.yul\":1529:1538   */\n      dup8\n        /* \"#utility.yul\":1525:1547   */\n      add\n        /* \"#utility.yul\":1504:1557   */\n      tag_67\n      jump\t// in\n    tag_77:\n        /* \"#utility.yul\":1494:1557   */\n      swap2\n      pop\n        /* \"#utility.yul\":1449:1567   */\n      pop\n        /* \"#utility.yul\":916:1574   */\n      swap3\n      pop\n      swap3\n      pop\n      swap3\n      jump\t// out\n        /* \"#utility.yul\":1580:1944   */\n    tag_78:\n        /* \"#utility.yul\":1668:1671   */\n      0x00\n        /* \"#utility.yul\":1696:1735   */\n      tag_80\n        /* \"#utility.yul\":1729:1734   */\n      dup3\n        /* \"#utility.yul\":1696:1735   */\n      tag_81\n      jump\t// in\n    tag_80:\n        /* \"#utility.yul\":1751:1822   */\n      tag_82\n        /* \"#utility.yul\":1815:1821   */\n      dup2\n        /* \"#utility.yul\":1810:1813   */\n      dup6\n        /* \"#utility.yul\":1751:1822   */\n      tag_83\n      jump\t// in\n    tag_82:\n        /* \"#utility.yul\":1744:1822   */\n      swap4\n      pop\n        /* \"#utility.yul\":1831:1883   */\n      tag_84\n        /* \"#utility.yul\":1876:1882   */\n      dup2\n        /* \"#utility.yul\":1871:1874   */\n      dup6\n        /* \"#utility.yul\":1864:1868   */\n      0x20\n        /* \"#utility.yul\":1857:1862   */\n      dup7\n        /* \"#utility.yul\":1853:1869   */\n      add\n        /* \"#utility.yul\":1831:1883   */\n      tag_85\n      jump\t// in\n    tag_84:\n        /* \"#utility.yul\":1908:1937   */\n      tag_86\n        /* \"#utility.yul\":1930:1936   */\n      dup2\n        /* \"#utility.yul\":1908:1937   */\n      tag_87\n      jump\t// in\n    tag_86:\n        /* \"#utility.yul\":1903:1906   */\n      dup5\n        /* \"#utility.yul\":1899:1938   */\n      add\n        /* \"#utility.yul\":1892:1938   */\n      swap2\n      pop\n        /* \"#utility.yul\":1672:1944   */\n      pop\n      swap3\n      swap2\n      pop\n      pop\n      jump\t// out\n        /* \"#utility.yul\":1950:2068   */\n    tag_88:\n        /* \"#utility.yul\":2037:2061   */\n      tag_90\n        /* \"#utility.yul\":2055:2060   */\n      dup2\n        /* \"#utility.yul\":2037:2061   */\n      tag_91\n      jump\t// in\n    tag_90:\n        /* \"#utility.yul\":2032:2035   */\n      dup3\n        /* \"#utility.yul\":2025:2062   */\n      mstore\n        /* \"#utility.yul\":2015:2068   */\n      pop\n      pop\n      jump\t// out\n        /* \"#utility.yul\":2074:2698   */\n    tag_13:\n        /* \"#utility.yul\":2263:2267   */\n      0x00\n        /* \"#utility.yul\":2301:2303   */\n      0x60\n        /* \"#utility.yul\":2290:2299   */\n      dup3\n        /* \"#utility.yul\":2286:2304   */\n      add\n        /* \"#utility.yul\":2278:2304   */\n      swap1\n      pop\n        /* \"#utility.yul\":2350:2359   */\n      dup2\n        /* \"#utility.yul\":2344:2348   */\n      dup2\n        /* \"#utility.yul\":2340:2360   */\n      sub\n        /* \"#utility.yul\":2336:2337   */\n      0x00\n        /* \"#utility.yul\":2325:2334   */\n      dup4\n        /* \"#utility.yul\":2321:2338   */\n      add\n        /* \"#utility.yul\":2314:2361   */\n      mstore\n        /* \"#utility.yul\":2378:2456   */\n      tag_93\n        /* \"#utility.yul\":2451:2455   */\n      dup2\n        /* \"#utility.yul\":2442:2448   */\n      dup7\n        /* \"#utility.yul\":2378:2456   */\n      tag_78\n      jump\t// in\n    tag_93:\n        /* \"#utility.yul\":2370:2456   */\n      swap1\n      pop\n        /* \"#utility.yul\":2503:2512   */\n      dup2\n        /* \"#utility.yul\":2497:2501   */\n      dup2\n        /* \"#utility.yul\":2493:2513   */\n      sub\n        /* \"#utility.yul\":2488:2490   */\n      0x20\n        /* \"#utility.yul\":2477:2486   */\n      dup4\n        /* \"#utility.yul\":2473:2491   */\n      add\n        /* \"#utility.yul\":2466:2514   */\n      mstore\n        /* \"#utility.yul\":2531:2609   */\n      tag_94\n        /* \"#utility.yul\":2604:2608   */\n      dup2\n        /* \"#utility.yul\":2595:2601   */\n      dup6\n        /* \"#utility.yul\":2531:2609   */\n      tag_78\n      jump\t// in\n    tag_94:\n        /* \"#utility.yul\":2523:2609   */\n      swap1\n      pop\n        /* \"#utility.yul\":2619:2691   */\n      tag_95\n        /* \"#utility.yul\":2687:2689   */\n      0x40\n        /* \"#utility.yul\":2676:2685   */\n      dup4\n        /* \"#utility.yul\":2672:2690   */\n      add\n        /* \"#utility.yul\":2663:2669   */\n      dup5\n        /* \"#utility.yul\":2619:2691   */\n      tag_88\n      jump\t// in\n    tag_95:\n        /* \"#utility.yul\":2268:2698   */\n      swap5\n      swap4\n      pop\n      pop\n      pop\n      pop\n      jump\t// out\n        /* \"#utility.yul\":2704:2833   */\n    tag_59:\n        /* \"#utility.yul\":2738:2744   */\n      0x00\n        /* \"#utility.yul\":2765:2785   */\n      tag_97\n      tag_98\n      jump\t// in\n    tag_97:\n        /* \"#utility.yul\":2755:2785   */\n      swap1\n      pop\n        /* \"#utility.yul\":2794:2827   */\n      tag_99\n        /* \"#utility.yul\":2822:2826   */\n      dup3\n        /* \"#utility.yul\":2814:2820   */\n      dup3\n        /* \"#utility.yul\":2794:2827   */\n      tag_100\n      jump\t// in\n    tag_99:\n        /* \"#utility.yul\":2745:2833   */\n      swap2\n      swap1\n      pop\n      jump\t// out\n        /* \"#utility.yul\":2839:2914   */\n    tag_98:\n        /* \"#utility.yul\":2872:2878   */\n      0x00\n        /* \"#utility.yul\":2905:2907   */\n      0x40\n        /* \"#utility.yul\":2899:2908   */\n      mload\n        /* \"#utility.yul\":2889:2908   */\n      swap1\n      pop\n        /* \"#utility.yul\":2879:2914   */\n      swap1\n      jump\t// out\n        /* \"#utility.yul\":2920:3228   */\n    tag_58:\n        /* \"#utility.yul\":2982:2986   */\n      0x00\n        /* \"#utility.yul\":3072:3090   */\n      0xffffffffffffffff\n        /* \"#utility.yul\":3064:3070   */\n      dup3\n        /* \"#utility.yul\":3061:3091   */\n      gt\n        /* \"#utility.yul\":3058:3060   */\n      iszero\n      tag_103\n      jumpi\n        /* \"#utility.yul\":3094:3112   */\n      tag_104\n      tag_105\n      jump\t// in\n    tag_104:\n        /* \"#utility.yul\":3058:3060   */\n    tag_103:\n        /* \"#utility.yul\":3132:3161   */\n      tag_106\n        /* \"#utility.yul\":3154:3160   */\n      dup3\n        /* \"#utility.yul\":3132:3161   */\n      tag_87\n      jump\t// in\n    tag_106:\n        /* \"#utility.yul\":3124:3161   */\n      swap1\n      pop\n        /* \"#utility.yul\":3216:3220   */\n      0x20\n        /* \"#utility.yul\":3210:3214   */\n      dup2\n        /* \"#utility.yul\":3206:3221   */\n      add\n        /* \"#utility.yul\":3198:3221   */\n      swap1\n      pop\n        /* \"#utility.yul\":2987:3228   */\n      swap2\n      swap1\n      pop\n      jump\t// out\n        /* \"#utility.yul\":3234:3333   */\n    tag_81:\n        /* \"#utility.yul\":3286:3292   */\n      0x00\n        /* \"#utility.yul\":3320:3325   */\n      dup2\n        /* \"#utility.yul\":3314:3326   */\n      mload\n        /* \"#utility.yul\":3304:3326   */\n      swap1\n      pop\n        /* \"#utility.yul\":3293:3333   */\n      swap2\n      swap1\n      pop\n      jump\t// out\n        /* \"#utility.yul\":3339:3508   */\n    tag_83:\n        /* \"#utility.yul\":3423:3434   */\n      0x00\n        /* \"#utility.yul\":3457:3463   */\n      dup3\n        /* \"#utility.yul\":3452:3455   */\n      dup3\n        /* \"#utility.yul\":3445:3464   */\n      mstore\n        /* \"#utility.yul\":3497:3501   */\n      0x20\n        /* \"#utility.yul\":3492:3495   */\n      dup3\n        /* \"#utility.yul\":3488:3502   */\n      add\n        /* \"#utility.yul\":3473:3502   */\n      swap1\n      pop\n        /* \"#utility.yul\":3435:3508   */\n      swap3\n      swap2\n      pop\n      pop\n      jump\t// out\n        /* \"#utility.yul\":3514:3591   */\n    tag_91:\n        /* \"#utility.yul\":3551:3558   */\n      0x00\n        /* \"#utility.yul\":3580:3585   */\n      dup2\n        /* \"#utility.yul\":3569:3585   */\n      swap1\n      pop\n        /* \"#utility.yul\":3559:3591   */\n      swap2\n      swap1\n      pop\n      jump\t// out\n        /* \"#utility.yul\":3597:3751   */\n    tag_62:\n        /* \"#utility.yul\":3681:3687   */\n      dup3\n        /* \"#utility.yul\":3676:3679   */\n      dup2\n        /* \"#utility.yul\":3671:3674   */\n      dup4\n        /* \"#utility.yul\":3658:3688   */\n      calldatacopy\n        /* \"#utility.yul\":3743:3744   */\n      0x00\n        /* \"#utility.yul\":3734:3740   */\n      dup4\n        /* \"#utility.yul\":3729:3732   */\n      dup4\n        /* \"#utility.yul\":3725:3741   */\n      add\n        /* \"#utility.yul\":3718:3745   */\n      mstore\n        /* \"#utility.yul\":3648:3751   */\n      pop\n      pop\n      pop\n      jump\t// out\n        /* \"#utility.yul\":3757:4064   */\n    tag_85:\n        /* \"#utility.yul\":3825:3826   */\n      0x00\n        /* \"#utility.yul\":3835:3948   */\n    tag_112:\n        /* \"#utility.yul\":3849:3855   */\n      dup4\n        /* \"#utility.yul\":3846:3847   */\n      dup2\n        /* \"#utility.yul\":3843:3856   */\n      lt\n        /* \"#utility.yul\":3835:3948   */\n      iszero\n      tag_114\n      jumpi\n        /* \"#utility.yul\":3934:3935   */\n      dup1\n        /* \"#utility.yul\":3929:3932   */\n      dup3\n        /* \"#utility.yul\":3925:3936   */\n      add\n        /* \"#utility.yul\":3919:3937   */\n      mload\n        /* \"#utility.yul\":3915:3916   */\n      dup2\n        /* \"#utility.yul\":3910:3913   */\n      dup5\n        /* \"#utility.yul\":3906:3917   */\n      add\n        /* \"#utility.yul\":3899:3938   */\n      mstore\n        /* \"#utility.yul\":3871:3873   */\n      0x20\n        /* \"#utility.yul\":3868:3869   */\n      dup2\n        /* \"#utility.yul\":3864:3874   */\n      add\n        /* \"#utility.yul\":3859:3874   */\n      swap1\n      pop\n        /* \"#utility.yul\":3835:3948   */\n      jump(tag_112)\n    tag_114:\n        /* \"#utility.yul\":3966:3972   */\n      dup4\n        /* \"#utility.yul\":3963:3964   */\n      dup2\n        /* \"#utility.yul\":3960:3973   */\n      gt\n        /* \"#utility.yul\":3957:3959   */\n      iszero\n      tag_115\n      jumpi\n        /* \"#utility.yul\":4046:4047   */\n      0x00\n        /* \"#utility.yul\":4037:4043   */\n      dup5\n        /* \"#utility.yul\":4032:4035   */\n      dup5\n        /* \"#utility.yul\":4028:4044   */\n      add\n        /* \"#utility.yul\":4021:4048   */\n      mstore\n        /* \"#utility.yul\":3957:3959   */\n    tag_115:\n        /* \"#utility.yul\":3806:4064   */\n      pop\n      pop\n      pop\n      pop\n      jump\t// out\n        /* \"#utility.yul\":4070:4390   */\n    tag_22:\n        /* \"#utility.yul\":4114:4120   */\n      0x00\n        /* \"#utility.yul\":4151:4152   */\n      0x02\n        /* \"#utility.yul\":4145:4149   */\n      dup3\n        /* \"#utility.yul\":4141:4153   */\n      div\n        /* \"#utility.yul\":4131:4153   */\n      swap1\n      pop\n        /* \"#utility.yul\":4198:4199   */\n      0x01\n        /* \"#utility.yul\":4192:4196   */\n      dup3\n        /* \"#utility.yul\":4188:4200   */\n      and\n        /* \"#utility.yul\":4219:4237   */\n      dup1\n        /* \"#utility.yul\":4209:4211   */\n      tag_117\n      jumpi\n        /* \"#utility.yul\":4275:4279   */\n      0x7f\n        /* \"#utility.yul\":4267:4273   */\n      dup3\n        /* \"#utility.yul\":4263:4280   */\n      and\n        /* \"#utility.yul\":4253:4280   */\n      swap2\n      pop\n        /* \"#utility.yul\":4209:4211   */\n    tag_117:\n        /* \"#utility.yul\":4337:4339   */\n      0x20\n        /* \"#utility.yul\":4329:4335   */\n      dup3\n        /* \"#utility.yul\":4326:4340   */\n      lt\n        /* \"#utility.yul\":4306:4324   */\n      dup2\n        /* \"#utility.yul\":4303:4341   */\n      eq\n        /* \"#utility.yul\":4300:4302   */\n      iszero\n      tag_118\n      jumpi\n        /* \"#utility.yul\":4356:4374   */\n      tag_119\n      tag_120\n      jump\t// in\n    tag_119:\n        /* \"#utility.yul\":4300:4302   */\n    tag_118:\n        /* \"#utility.yul\":4121:4390   */\n      pop\n      swap2\n      swap1\n      pop\n      jump\t// out\n        /* \"#utility.yul\":4396:4677   */\n    tag_100:\n        /* \"#utility.yul\":4479:4506   */\n      tag_122\n        /* \"#utility.yul\":4501:4505   */\n      dup3\n        /* \"#utility.yul\":4479:4506   */\n      tag_87\n      jump\t// in\n    tag_122:\n        /* \"#utility.yul\":4471:4477   */\n      dup2\n        /* \"#utility.yul\":4467:4507   */\n      add\n        /* \"#utility.yul\":4609:4615   */\n      dup2\n        /* \"#utility.yul\":4597:4607   */\n      dup2\n        /* \"#utility.yul\":4594:4616   */\n      lt\n        /* \"#utility.yul\":4573:4591   */\n      0xffffffffffffffff\n        /* \"#utility.yul\":4561:4571   */\n      dup3\n        /* \"#utility.yul\":4558:4592   */\n      gt\n        /* \"#utility.yul\":4555:4617   */\n      or\n        /* \"#utility.yul\":4552:4554   */\n      iszero\n      tag_123\n      jumpi\n        /* \"#utility.yul\":4620:4638   */\n      tag_124\n      tag_105\n      jump\t// in\n    tag_124:\n        /* \"#utility.yul\":4552:4554   */\n    tag_123:\n        /* \"#utility.yul\":4660:4670   */\n      dup1\n        /* \"#utility.yul\":4656:4658   */\n      0x40\n        /* \"#utility.yul\":4649:4671   */\n      mstore\n        /* \"#utility.yul\":4439:4677   */\n      pop\n      pop\n      pop\n      jump\t// out\n        /* \"#utility.yul\":4683:4863   */\n    tag_120:\n        /* \"#utility.yul\":4731:4808   */\n      0x4e487b7100000000000000000000000000000000000000000000000000000000\n        /* \"#utility.yul\":4728:4729   */\n      0x00\n        /* \"#utility.yul\":4721:4809   */\n      mstore\n        /* \"#utility.yul\":4828:4832   */\n      0x22\n        /* \"#utility.yul\":4825:4826   */\n      0x04\n        /* \"#utility.yul\":4818:4833   */\n      mstore\n        /* \"#utility.yul\":4852:4856   */\n      0x24\n        /* \"#utility.yul\":4849:4850   */\n      0x00\n        /* \"#utility.yul\":4842:4857   */\n      revert\n        /* \"#utility.yul\":4869:5049   */\n    tag_105:\n        /* \"#utility.yul\":4917:4994   */\n      0x4e487b7100000000000000000000000000000000000000000000000000000000\n        /* \"#utility.yul\":4914:4915   */\n      0x00\n        /* \"#utility.yul\":4907:4995   */\n      mstore\n        /* \"#utility.yul\":5014:5018   */\n      0x41\n        /* \"#utility.yul\":5011:5012   */\n      0x04\n        /* \"#utility.yul\":5004:5019   */\n      mstore\n        /* \"#utility.yul\":5038:5042   */\n      0x24\n        /* \"#utility.yul\":5035:5036   */\n      0x00\n        /* \"#utility.yul\":5028:5043   */\n      revert\n        /* \"#utility.yul\":5055:5157   */\n    tag_87:\n        /* \"#utility.yul\":5096:5102   */\n      0x00\n        /* \"#utility.yul\":5147:5149   */\n      0x1f\n        /* \"#utility.yul\":5143:5150   */\n      not\n        /* \"#utility.yul\":5138:5140   */\n      0x1f\n        /* \"#utility.yul\":5131:5136   */\n      dup4\n        /* \"#utility.yul\":5127:5141   */\n      add\n        /* \"#utility.yul\":5123:5151   */\n      and\n        /* \"#utility.yul\":5113:5151   */\n      swap1\n      pop\n        /* \"#utility.yul\":5103:5157   */\n      swap2\n      swap1\n      pop\n      jump\t// out\n        /* \"#utility.yul\":5163:5285   */\n    tag_70:\n        /* \"#utility.yul\":5236:5260   */\n      tag_129\n        /* \"#utility.yul\":5254:5259   */\n      dup2\n        /* \"#utility.yul\":5236:5260   */\n      tag_91\n      jump\t// in\n    tag_129:\n        /* \"#utility.yul\":5229:5234   */\n      dup2\n        /* \"#utility.yul\":5226:5261   */\n      eq\n        /* \"#utility.yul\":5216:5218   */\n      tag_130\n      jumpi\n        /* \"#utility.yul\":5275:5276   */\n      0x00\n        /* \"#utility.yul\":5272:5273   */\n      dup1\n        /* \"#utility.yul\":5265:5277   */\n      revert\n        /* \"#utility.yul\":5216:5218   */\n    tag_130:\n        /* \"#utility.yul\":5206:5285   */\n      pop\n      jump\t// out\n\n    auxdata: 0xa2646970667358221220e62d3e49f6cd5dea0c31c4d552c33ccbeb84b27cdb382dda27679a7723b6d8ef64736f6c63430008040033\n}\n",
				"bytecode": {
					"linkReferences": {},
					"object": "608060405234801561001057600080fd5b50610772806100206000396000f3fe608060405234801561001057600080fd5b50600436106100415760003560e01c8063701a658d14610046578063927df99814610062578063a5b9f44d14610082575b600080fd5b610060600480360381019061005b9190610489565b6100a2565b005b61006a61010a565b60405161007993929190610550565b60405180910390f35b61008a610232565b60405161009993929190610550565b60405180910390f35b6040518060600160405280848152602001838152602001828152506000808201518160000190805190602001906100da929190610369565b5060208201518160010190805190602001906100f7929190610369565b5060408201518160020155905050505050565b600080600001805461011b90610653565b80601f016020809104026020016040519081016040528092919081815260200182805461014790610653565b80156101945780601f1061016957610100808354040283529160200191610194565b820191906000526020600020905b81548152906001019060200180831161017757829003601f168201915b5050505050908060010180546101a990610653565b80601f01602080910402602001604051908101604052809291908181526020018280546101d590610653565b80156102225780601f106101f757610100808354040283529160200191610222565b820191906000526020600020905b81548152906001019060200180831161020557829003601f168201915b5050505050908060020154905083565b606080600080600001600060010160006002015482805461025290610653565b80601f016020809104026020016040519081016040528092919081815260200182805461027e90610653565b80156102cb5780601f106102a0576101008083540402835291602001916102cb565b820191906000526020600020905b8154815290600101906020018083116102ae57829003601f168201915b505050505092508180546102de90610653565b80601f016020809104026020016040519081016040528092919081815260200182805461030a90610653565b80156103575780601f1061032c57610100808354040283529160200191610357565b820191906000526020600020905b81548152906001019060200180831161033a57829003601f168201915b50505050509150925092509250909192565b82805461037590610653565b90600052602060002090601f01602090048101928261039757600085556103de565b82601f106103b057805160ff19168380011785556103de565b828001600101855582156103de579182015b828111156103dd5782518255916020019190600101906103c2565b5b5090506103eb91906103ef565b5090565b5b808211156104085760008160009055506001016103f0565b5090565b600061041f61041a846105ba565b610595565b90508281526020810184848401111561043757600080fd5b610442848285610611565b509392505050565b600082601f83011261045b57600080fd5b813561046b84826020860161040c565b91505092915050565b60008135905061048381610725565b92915050565b60008060006060848603121561049e57600080fd5b600084013567ffffffffffffffff8111156104b857600080fd5b6104c48682870161044a565b935050602084013567ffffffffffffffff8111156104e157600080fd5b6104ed8682870161044a565b92505060406104fe86828701610474565b9150509250925092565b6000610513826105eb565b61051d81856105f6565b935061052d818560208601610620565b61053681610714565b840191505092915050565b61054a81610607565b82525050565b6000606082019050818103600083015261056a8186610508565b9050818103602083015261057e8185610508565b905061058d6040830184610541565b949350505050565b600061059f6105b0565b90506105ab8282610685565b919050565b6000604051905090565b600067ffffffffffffffff8211156105d5576105d46106e5565b5b6105de82610714565b9050602081019050919050565b600081519050919050565b600082825260208201905092915050565b6000819050919050565b82818337600083830152505050565b60005b8381101561063e578082015181840152602081019050610623565b8381111561064d576000848401525b50505050565b6000600282049050600182168061066b57607f821691505b6020821081141561067f5761067e6106b6565b5b50919050565b61068e82610714565b810181811067ffffffffffffffff821117156106ad576106ac6106e5565b5b80604052505050565b7f4e487b7100000000000000000000000000000000000000000000000000000000600052602260045260246000fd5b7f4e487b7100000000000000000000000000000000000000000000000000000000600052604160045260246000fd5b6000601f19601f8301169050919050565b61072e81610607565b811461073957600080fd5b5056fea2646970667358221220e62d3e49f6cd5dea0c31c4d552c33ccbeb84b27cdb382dda27679a7723b6d8ef64736f6c63430008040033",
					"opcodes": "PUSH1 0x80 PUSH1 0x40 MSTORE CALLVALUE DUP1 ISZERO PUSH2 0x10 JUMPI PUSH1 0x0 DUP1 REVERT JUMPDEST POP PUSH2 0x772 DUP1 PUSH2 0x20 PUSH1 0x0 CODECOPY PUSH1 0x0 RETURN INVALID PUSH1 0x80 PUSH1 0x40 MSTORE CALLVALUE DUP1 ISZERO PUSH2 0x10 JUMPI PUSH1 0x0 DUP1 REVERT JUMPDEST POP PUSH1 0x4 CALLDATASIZE LT PUSH2 0x41 JUMPI PUSH1 0x0 CALLDATALOAD PUSH1 0xE0 SHR DUP1 PUSH4 0x701A658D EQ PUSH2 0x46 JUMPI DUP1 PUSH4 0x927DF998 EQ PUSH2 0x62 JUMPI DUP1 PUSH4 0xA5B9F44D EQ PUSH2 0x82 JUMPI JUMPDEST PUSH1 0x0 DUP1 REVERT JUMPDEST PUSH2 0x60 PUSH1 0x4 DUP1 CALLDATASIZE SUB DUP2 ADD SWAP1 PUSH2 0x5B SWAP2 SWAP1 PUSH2 0x489 JUMP JUMPDEST PUSH2 0xA2 JUMP JUMPDEST STOP JUMPDEST PUSH2 0x6A PUSH2 0x10A JUMP JUMPDEST PUSH1 0x40 MLOAD PUSH2 0x79 SWAP4 SWAP3 SWAP2 SWAP1 PUSH2 0x550 JUMP JUMPDEST PUSH1 0x40 MLOAD DUP1 SWAP2 SUB SWAP1 RETURN JUMPDEST PUSH2 0x8A PUSH2 0x232 JUMP JUMPDEST PUSH1 0x40 MLOAD PUSH2 0x99 SWAP4 SWAP3 SWAP2 SWAP1 PUSH2 0x550 JUMP JUMPDEST PUSH1 0x40 MLOAD DUP1 SWAP2 SUB SWAP1 RETURN JUMPDEST PUSH1 0x40 MLOAD DUP1 PUSH1 0x60 ADD PUSH1 0x40 MSTORE DUP1 DUP5 DUP2 MSTORE PUSH1 0x20 ADD DUP4 DUP2 MSTORE PUSH1 0x20 ADD DUP3 DUP2 MSTORE POP PUSH1 0x0 DUP1 DUP3 ADD MLOAD DUP2 PUSH1 0x0 ADD SWAP1 DUP1 MLOAD SWAP1 PUSH1 0x20 ADD SWAP1 PUSH2 0xDA SWAP3 SWAP2 SWAP1 PUSH2 0x369 JUMP JUMPDEST POP PUSH1 0x20 DUP3 ADD MLOAD DUP2 PUSH1 0x1 ADD SWAP1 DUP1 MLOAD SWAP1 PUSH1 0x20 ADD SWAP1 PUSH2 0xF7 SWAP3 SWAP2 SWAP1 PUSH2 0x369 JUMP JUMPDEST POP PUSH1 0x40 DUP3 ADD MLOAD DUP2 PUSH1 0x2 ADD SSTORE SWAP1 POP POP POP POP POP JUMP JUMPDEST PUSH1 0x0 DUP1 PUSH1 0x0 ADD DUP1 SLOAD PUSH2 0x11B SWAP1 PUSH2 0x653 JUMP JUMPDEST DUP1 PUSH1 0x1F ADD PUSH1 0x20 DUP1 SWAP2 DIV MUL PUSH1 0x20 ADD PUSH1 0x40 MLOAD SWAP1 DUP2 ADD PUSH1 0x40 MSTORE DUP1 SWAP3 SWAP2 SWAP1 DUP2 DUP2 MSTORE PUSH1 0x20 ADD DUP3 DUP1 SLOAD PUSH2 0x147 SWAP1 PUSH2 0x653 JUMP JUMPDEST DUP1 ISZERO PUSH2 0x194 JUMPI DUP1 PUSH1 0x1F LT PUSH2 0x169 JUMPI PUSH2 0x100 DUP1 DUP4 SLOAD DIV MUL DUP4 MSTORE SWAP2 PUSH1 0x20 ADD SWAP2 PUSH2 0x194 JUMP JUMPDEST DUP3 ADD SWAP2 SWAP1 PUSH1 0x0 MSTORE PUSH1 0x20 PUSH1 0x0 KECCAK256 SWAP1 JUMPDEST DUP2 SLOAD DUP2 MSTORE SWAP1 PUSH1 0x1 ADD SWAP1 PUSH1 0x20 ADD DUP1 DUP4 GT PUSH2 0x177 JUMPI DUP3 SWAP1 SUB PUSH1 0x1F AND DUP3 ADD SWAP2 JUMPDEST POP POP POP POP POP SWAP1 DUP1 PUSH1 0x1 ADD DUP1 SLOAD PUSH2 0x1A9 SWAP1 PUSH2 0x653 JUMP JUMPDEST DUP1 PUSH1 0x1F ADD PUSH1 0x20 DUP1 SWAP2 DIV MUL PUSH1 0x20 ADD PUSH1 0x40 MLOAD SWAP1 DUP2 ADD PUSH1 0x40 MSTORE DUP1 SWAP3 SWAP2 SWAP1 DUP2 DUP2 MSTORE PUSH1 0x20 ADD DUP3 DUP1 SLOAD PUSH2 0x1D5 SWAP1 PUSH2 0x653 JUMP JUMPDEST DUP1 ISZERO PUSH2 0x222 JUMPI DUP1 PUSH1 0x1F LT PUSH2 0x1F7 JUMPI PUSH2 0x100 DUP1 DUP4 SLOAD DIV MUL DUP4 MSTORE SWAP2 PUSH1 0x20 ADD SWAP2 PUSH2 0x222 JUMP JUMPDEST DUP3 ADD SWAP2 SWAP1 PUSH1 0x0 MSTORE PUSH1 0x20 PUSH1 0x0 KECCAK256 SWAP1 JUMPDEST DUP2 SLOAD DUP2 MSTORE SWAP1 PUSH1 0x1 ADD SWAP1 PUSH1 0x20 ADD DUP1 DUP4 GT PUSH2 0x205 JUMPI DUP3 SWAP1 SUB PUSH1 0x1F AND DUP3 ADD SWAP2 JUMPDEST POP POP POP POP POP SWAP1 DUP1 PUSH1 0x2 ADD SLOAD SWAP1 POP DUP4 JUMP JUMPDEST PUSH1 0x60 DUP1 PUSH1 0x0 DUP1 PUSH1 0x0 ADD PUSH1 0x0 PUSH1 0x1 ADD PUSH1 0x0 PUSH1 0x2 ADD SLOAD DUP3 DUP1 SLOAD PUSH2 0x252 SWAP1 PUSH2 0x653 JUMP JUMPDEST DUP1 PUSH1 0x1F ADD PUSH1 0x20 DUP1 SWAP2 DIV MUL PUSH1 0x20 ADD PUSH1 0x40 MLOAD SWAP1 DUP2 ADD PUSH1 0x40 MSTORE DUP1 SWAP3 SWAP2 SWAP1 DUP2 DUP2 MSTORE PUSH1 0x20 ADD DUP3 DUP1 SLOAD PUSH2 0x27E SWAP1 PUSH2 0x653 JUMP JUMPDEST DUP1 ISZERO PUSH2 0x2CB JUMPI DUP1 PUSH1 0x1F LT PUSH2 0x2A0 JUMPI PUSH2 0x100 DUP1 DUP4 SLOAD DIV MUL DUP4 MSTORE SWAP2 PUSH1 0x20 ADD SWAP2 PUSH2 0x2CB JUMP JUMPDEST DUP3 ADD SWAP2 SWAP1 PUSH1 0x0 MSTORE PUSH1 0x20 PUSH1 0x0 KECCAK256 SWAP1 JUMPDEST DUP2 SLOAD DUP2 MSTORE SWAP1 PUSH1 0x1 ADD SWAP1 PUSH1 0x20 ADD DUP1 DUP4 GT PUSH2 0x2AE JUMPI DUP3 SWAP1 SUB PUSH1 0x1F AND DUP3 ADD SWAP2 JUMPDEST POP POP POP POP POP SWAP3 POP DUP2 DUP1 SLOAD PUSH2 0x2DE SWAP1 PUSH2 0x653 JUMP JUMPDEST DUP1 PUSH1 0x1F ADD PUSH1 0x20 DUP1 SWAP2 DIV MUL PUSH1 0x20 ADD PUSH1 0x40 MLOAD SWAP1 DUP2 ADD PUSH1 0x40 MSTORE DUP1 SWAP3 SWAP2 SWAP1 DUP2 DUP2 MSTORE PUSH1 0x20 ADD DUP3 DUP1 SLOAD PUSH2 0x30A SWAP1 PUSH2 0x653 JUMP JUMPDEST DUP1 ISZERO PUSH2 0x357 JUMPI DUP1 PUSH1 0x1F LT PUSH2 0x32C JUMPI PUSH2 0x100 DUP1 DUP4 SLOAD DIV MUL DUP4 MSTORE SWAP2 PUSH1 0x20 ADD SWAP2 PUSH2 0x357 JUMP JUMPDEST DUP3 ADD SWAP2 SWAP1 PUSH1 0x0 MSTORE PUSH1 0x20 PUSH1 0x0 KECCAK256 SWAP1 JUMPDEST DUP2 SLOAD DUP2 MSTORE SWAP1 PUSH1 0x1 ADD SWAP1 PUSH1 0x20 ADD DUP1 DUP4 GT PUSH2 0x33A JUMPI DUP3 SWAP1 SUB PUSH1 0x1F AND DUP3 ADD SWAP2 JUMPDEST POP POP POP POP POP SWAP2 POP SWAP3 POP SWAP3 POP SWAP3 POP SWAP1 SWAP2 SWAP3 JUMP JUMPDEST DUP3 DUP1 SLOAD PUSH2 0x375 SWAP1 PUSH2 0x653 JUMP JUMPDEST SWAP1 PUSH1 0x0 MSTORE PUSH1 0x20 PUSH1 0x0 KECCAK256 SWAP1 PUSH1 0x1F ADD PUSH1 0x20 SWAP1 DIV DUP2 ADD SWAP3 DUP3 PUSH2 0x397 JUMPI PUSH1 0x0 DUP6 SSTORE PUSH2 0x3DE JUMP JUMPDEST DUP3 PUSH1 0x1F LT PUSH2 0x3B0 JUMPI DUP1 MLOAD PUSH1 0xFF NOT AND DUP4 DUP1 ADD OR DUP6 SSTORE PUSH2 0x3DE JUMP JUMPDEST DUP3 DUP1 ADD PUSH1 0x1 ADD DUP6 SSTORE DUP3 ISZERO PUSH2 0x3DE JUMPI SWAP2 DUP3 ADD JUMPDEST DUP3 DUP2 GT ISZERO PUSH2 0x3DD JUMPI DUP3 MLOAD DUP3 SSTORE SWAP2 PUSH1 0x20 ADD SWAP2 SWAP1 PUSH1 0x1 ADD SWAP1 PUSH2 0x3C2 JUMP JUMPDEST JUMPDEST POP SWAP1 POP PUSH2 0x3EB SWAP2 SWAP1 PUSH2 0x3EF JUMP JUMPDEST POP SWAP1 JUMP JUMPDEST JUMPDEST DUP1 DUP3 GT ISZERO PUSH2 0x408 JUMPI PUSH1 0x0 DUP2 PUSH1 0x0 SWAP1 SSTORE POP PUSH1 0x1 ADD PUSH2 0x3F0 JUMP JUMPDEST POP SWAP1 JUMP JUMPDEST PUSH1 0x0 PUSH2 0x41F PUSH2 0x41A DUP5 PUSH2 0x5BA JUMP JUMPDEST PUSH2 0x595 JUMP JUMPDEST SWAP1 POP DUP3 DUP2 MSTORE PUSH1 0x20 DUP2 ADD DUP5 DUP5 DUP5 ADD GT ISZERO PUSH2 0x437 JUMPI PUSH1 0x0 DUP1 REVERT JUMPDEST PUSH2 0x442 DUP5 DUP3 DUP6 PUSH2 0x611 JUMP JUMPDEST POP SWAP4 SWAP3 POP POP POP JUMP JUMPDEST PUSH1 0x0 DUP3 PUSH1 0x1F DUP4 ADD SLT PUSH2 0x45B JUMPI PUSH1 0x0 DUP1 REVERT JUMPDEST DUP2 CALLDATALOAD PUSH2 0x46B DUP5 DUP3 PUSH1 0x20 DUP7 ADD PUSH2 0x40C JUMP JUMPDEST SWAP2 POP POP SWAP3 SWAP2 POP POP JUMP JUMPDEST PUSH1 0x0 DUP2 CALLDATALOAD SWAP1 POP PUSH2 0x483 DUP2 PUSH2 0x725 JUMP JUMPDEST SWAP3 SWAP2 POP POP JUMP JUMPDEST PUSH1 0x0 DUP1 PUSH1 0x0 PUSH1 0x60 DUP5 DUP7 SUB SLT ISZERO PUSH2 0x49E JUMPI PUSH1 0x0 DUP1 REVERT JUMPDEST PUSH1 0x0 DUP5 ADD CALLDATALOAD PUSH8 0xFFFFFFFFFFFFFFFF DUP2 GT ISZERO PUSH2 0x4B8 JUMPI PUSH1 0x0 DUP1 REVERT JUMPDEST PUSH2 0x4C4 DUP7 DUP3 DUP8 ADD PUSH2 0x44A JUMP JUMPDEST SWAP4 POP POP PUSH1 0x20 DUP5 ADD CALLDATALOAD PUSH8 0xFFFFFFFFFFFFFFFF DUP2 GT ISZERO PUSH2 0x4E1 JUMPI PUSH1 0x0 DUP1 REVERT JUMPDEST PUSH2 0x4ED DUP7 DUP3 DUP8 ADD PUSH2 0x44A JUMP JUMPDEST SWAP3 POP POP PUSH1 0x40 PUSH2 0x4FE DUP7 DUP3 DUP8 ADD PUSH2 0x474 JUMP JUMPDEST SWAP2 POP POP SWAP3 POP SWAP3 POP SWAP3 JUMP JUMPDEST PUSH1 0x0 PUSH2 0x513 DUP3 PUSH2 0x5EB JUMP JUMPDEST PUSH2 0x51D DUP2 DUP6 PUSH2 0x5F6 JUMP JUMPDEST SWAP4 POP PUSH2 0x52D DUP2 DUP6 PUSH1 0x20 DUP7 ADD PUSH2 0x620 JUMP JUMPDEST PUSH2 0x536 DUP2 PUSH2 0x714 JUMP JUMPDEST DUP5 ADD SWAP2 POP POP SWAP3 SWAP2 POP POP JUMP JUMPDEST PUSH2 0x54A DUP2 PUSH2 0x607 JUMP JUMPDEST DUP3 MSTORE POP POP JUMP JUMPDEST PUSH1 0x0 PUSH1 0x60 DUP3 ADD SWAP1 POP DUP2 DUP2 SUB PUSH1 0x0 DUP4 ADD MSTORE PUSH2 0x56A DUP2 DUP7 PUSH2 0x508 JUMP JUMPDEST SWAP1 POP DUP2 DUP2 SUB PUSH1 0x20 DUP4 ADD MSTORE PUSH2 0x57E DUP2 DUP6 PUSH2 0x508 JUMP JUMPDEST SWAP1 POP PUSH2 0x58D PUSH1 0x40 DUP4 ADD DUP5 PUSH2 0x541 JUMP JUMPDEST SWAP5 SWAP4 POP POP POP POP JUMP JUMPDEST PUSH1 0x0 PUSH2 0x59F PUSH2 0x5B0 JUMP JUMPDEST SWAP1 POP PUSH2 0x5AB DUP3 DUP3 PUSH2 0x685 JUMP JUMPDEST SWAP2 SWAP1 POP JUMP JUMPDEST PUSH1 0x0 PUSH1 0x40 MLOAD SWAP1 POP SWAP1 JUMP JUMPDEST PUSH1 0x0 PUSH8 0xFFFFFFFFFFFFFFFF DUP3 GT ISZERO PUSH2 0x5D5 JUMPI PUSH2 0x5D4 PUSH2 0x6E5 JUMP JUMPDEST JUMPDEST PUSH2 0x5DE DUP3 PUSH2 0x714 JUMP JUMPDEST SWAP1 POP PUSH1 0x20 DUP2 ADD SWAP1 POP SWAP2 SWAP1 POP JUMP JUMPDEST PUSH1 0x0 DUP2 MLOAD SWAP1 POP SWAP2 SWAP1 POP JUMP JUMPDEST PUSH1 0x0 DUP3 DUP3 MSTORE PUSH1 0x20 DUP3 ADD SWAP1 POP SWAP3 SWAP2 POP POP JUMP JUMPDEST PUSH1 0x0 DUP2 SWAP1 POP SWAP2 SWAP1 POP JUMP JUMPDEST DUP3 DUP2 DUP4 CALLDATACOPY PUSH1 0x0 DUP4 DUP4 ADD MSTORE POP POP POP JUMP JUMPDEST PUSH1 0x0 JUMPDEST DUP4 DUP2 LT ISZERO PUSH2 0x63E JUMPI DUP1 DUP3 ADD MLOAD DUP2 DUP5 ADD MSTORE PUSH1 0x20 DUP2 ADD SWAP1 POP PUSH2 0x623 JUMP JUMPDEST DUP4 DUP2 GT ISZERO PUSH2 0x64D JUMPI PUSH1 0x0 DUP5 DUP5 ADD MSTORE JUMPDEST POP POP POP POP JUMP JUMPDEST PUSH1 0x0 PUSH1 0x2 DUP3 DIV SWAP1 POP PUSH1 0x1 DUP3 AND DUP1 PUSH2 0x66B JUMPI PUSH1 0x7F DUP3 AND SWAP2 POP JUMPDEST PUSH1 0x20 DUP3 LT DUP2 EQ ISZERO PUSH2 0x67F JUMPI PUSH2 0x67E PUSH2 0x6B6 JUMP JUMPDEST JUMPDEST POP SWAP2 SWAP1 POP JUMP JUMPDEST PUSH2 0x68E DUP3 PUSH2 0x714 JUMP JUMPDEST DUP2 ADD DUP2 DUP2 LT PUSH8 0xFFFFFFFFFFFFFFFF DUP3 GT OR ISZERO PUSH2 0x6AD JUMPI PUSH2 0x6AC PUSH2 0x6E5 JUMP JUMPDEST JUMPDEST DUP1 PUSH1 0x40 MSTORE POP POP POP JUMP JUMPDEST PUSH32 0x4E487B7100000000000000000000000000000000000000000000000000000000 PUSH1 0x0 MSTORE PUSH1 0x22 PUSH1 0x4 MSTORE PUSH1 0x24 PUSH1 0x0 REVERT JUMPDEST PUSH32 0x4E487B7100000000000000000000000000000000000000000000000000000000 PUSH1 0x0 MSTORE PUSH1 0x41 PUSH1 0x4 MSTORE PUSH1 0x24 PUSH1 0x0 REVERT JUMPDEST PUSH1 0x0 PUSH1 0x1F NOT PUSH1 0x1F DUP4 ADD AND SWAP1 POP SWAP2 SWAP1 POP JUMP JUMPDEST PUSH2 0x72E DUP2 PUSH2 0x607 JUMP JUMPDEST DUP2 EQ PUSH2 0x739 JUMPI PUSH1 0x0 DUP1 REVERT JUMPDEST POP JUMP INVALID LOG2 PUSH5 0x6970667358 0x22 SLT KECCAK256 0xE6 0x2D RETURNDATACOPY 0x49 0xF6 0xCD 0x5D 0xEA 0xC BALANCE 0xC4 0xD5 MSTORE 0xC3 EXTCODECOPY 0xCB 0xEB DUP5 0xB2 PUSH29 0xDB382DDA27679A7723B6D8EF64736F6C63430008040033000000000000 "
				},
				"gasEstimates": {
					"creation": {
						"codeDepositCost": "381200",
						"executionCost": "418",
						"totalCost": "381618"
					},
					"external": {
						"credentials()": "infinite",
						"externalData(string,string,uint256)": "infinite",
						"getExternaData()": "infinite"
					}
				},
				"methodIdentifiers": {
					"credentials()": "927df998",
					"externalData(string,string,uint256)": "701a658d",
					"getExternaData()": "a5b9f44d"
				}
			},
			"storageLayout": {
				"storage": [
					{
						"astId": 85,
						"contract": "Solidity/Struct.sol:externalStruct",
						"label": "credentials",
						"offset": 0,
						"slot": "0",
						"type": "t_struct(MyCredentials)8_storage"
					}
				],
				"types": {
					"t_string_storage": {
						"encoding": "bytes",
						"label": "string",
						"numberOfBytes": "32"
					},
					"t_struct(MyCredentials)8_storage": {
						"encoding": "inplace",
						"label": "struct MyCredentials",
						"members": [
							{
								"astId": 3,
								"contract": "Solidity/Struct.sol:externalStruct",
								"label": "userID",
								"offset": 0,
								"slot": "0",
								"type": "t_string_storage"
							},
							{
								"astId": 5,
								"contract": "Solidity/Struct.sol:externalStruct",
								"label": "username",
								"offset": 0,
								"slot": "1",
								"type": "t_string_storage"
							},
							{
								"astId": 7,
								"contract": "Solidity/Struct.sol:externalStruct",
								"label": "password",
								"offset": 0,
								"slot": "2",
								"type": "t_uint256"
							}
						],
						"numberOfBytes": "96"
					},
					"t_uint256": {
						"encoding": "inplace",
						"label": "uint256",
						"numberOfBytes": "32"
					}
				}
			},
			"userdoc": {
				"kind": "user",
				"methods": {},
				"version": 1
			}
		}
	}
}