{
	"Solidity/Struct.sol": {
		"LearnStruct": {
			"abi": [
				{
					"inputs": [
						{
							"internalType": "string",
							"name": "_name",
							"type": "string"
						},
						{
							"internalType": "uint256",
							"name": "_age",
							"type": "uint256"
						},
						{
							"internalType": "string",
							"name": "_race",
							"type": "string"
						},
						{
							"internalType": "string",
							"name": "_country",
							"type": "string"
						},
						{
							"internalType": "uint256",
							"name": "_weight",
							"type": "uint256"
						},
						{
							"internalType": "uint256",
							"name": "_height",
							"type": "uint256"
						}
					],
					"name": "customProfile",
					"outputs": [],
					"stateMutability": "nonpayable",
					"type": "function"
				},
				{
					"inputs": [],
					"name": "getProfile",
					"outputs": [
						{
							"internalType": "string",
							"name": "",
							"type": "string"
						},
						{
							"internalType": "uint256",
							"name": "",
							"type": "uint256"
						},
						{
							"internalType": "string",
							"name": "",
							"type": "string"
						},
						{
							"internalType": "string",
							"name": "",
							"type": "string"
						},
						{
							"internalType": "uint256",
							"name": "",
							"type": "uint256"
						},
						{
							"internalType": "uint256",
							"name": "",
							"type": "uint256"
						}
					],
					"stateMutability": "view",
					"type": "function"
				},
				{
					"inputs": [],
					"name": "profile",
					"outputs": [
						{
							"internalType": "string",
							"name": "name",
							"type": "string"
						},
						{
							"internalType": "uint256",
							"name": "age",
							"type": "uint256"
						},
						{
							"internalType": "string",
							"name": "race",
							"type": "string"
						},
						{
							"internalType": "string",
							"name": "country",
							"type": "string"
						},
						{
							"internalType": "uint256",
							"name": "weight",
							"type": "uint256"
						},
						{
							"internalType": "uint256",
							"name": "height",
							"type": "uint256"
						}
					],
					"stateMutability": "view",
					"type": "function"
				}
			],
			"devdoc": {
				"kind": "dev",
				"methods": {},
				"version": 1
			},
			"evm": {
				"assembly": "    /* \"Solidity/Struct.sol\":703:2206  contract LearnStruct {... */\n  mstore(0x40, 0x80)\n  callvalue\n  dup1\n  iszero\n  tag_1\n  jumpi\n  0x00\n  dup1\n  revert\ntag_1:\n  pop\n  dataSize(sub_0)\n  dup1\n  dataOffset(sub_0)\n  0x00\n  codecopy\n  0x00\n  return\nstop\n\nsub_0: assembly {\n        /* \"Solidity/Struct.sol\":703:2206  contract LearnStruct {... */\n      mstore(0x40, 0x80)\n      callvalue\n      dup1\n      iszero\n      tag_1\n      jumpi\n      0x00\n      dup1\n      revert\n    tag_1:\n      pop\n      jumpi(tag_2, lt(calldatasize, 0x04))\n      shr(0xe0, calldataload(0x00))\n      dup1\n      0x6328c792\n      eq\n      tag_3\n      jumpi\n      dup1\n      0xab60636c\n      eq\n      tag_4\n      jumpi\n      dup1\n      0xd6afc9b1\n      eq\n      tag_5\n      jumpi\n    tag_2:\n      0x00\n      dup1\n      revert\n        /* \"Solidity/Struct.sol\":1414:1777  function customProfile(... */\n    tag_3:\n      tag_6\n      0x04\n      dup1\n      calldatasize\n      sub\n      dup2\n      add\n      swap1\n      tag_7\n      swap2\n      swap1\n      tag_8\n      jump\t// in\n    tag_7:\n      tag_9\n      jump\t// in\n    tag_6:\n      stop\n        /* \"Solidity/Struct.sol\":1180:1204  Myprofile public profile */\n    tag_4:\n      tag_10\n      tag_11\n      jump\t// in\n    tag_10:\n      mload(0x40)\n      tag_12\n      swap7\n      swap6\n      swap5\n      swap4\n      swap3\n      swap2\n      swap1\n      tag_13\n      jump\t// in\n    tag_12:\n      mload(0x40)\n      dup1\n      swap2\n      sub\n      swap1\n      return\n        /* \"Solidity/Struct.sol\":1783:2204  function getProfile()... */\n    tag_5:\n      tag_14\n      tag_15\n      jump\t// in\n    tag_14:\n      mload(0x40)\n      tag_16\n      swap7\n      swap6\n      swap5\n      swap4\n      swap3\n      swap2\n      swap1\n      tag_13\n      jump\t// in\n    tag_16:\n      mload(0x40)\n      dup1\n      swap2\n      sub\n      swap1\n      return\n        /* \"Solidity/Struct.sol\":1414:1777  function customProfile(... */\n    tag_9:\n        /* \"Solidity/Struct.sol\":1713:1770  Myprofile(_name, _age, _race, _country, _weight, _height) */\n      mload(0x40)\n      dup1\n      0xc0\n      add\n      0x40\n      mstore\n      dup1\n        /* \"Solidity/Struct.sol\":1723:1728  _name */\n      dup8\n        /* \"Solidity/Struct.sol\":1713:1770  Myprofile(_name, _age, _race, _country, _weight, _height) */\n      dup2\n      mstore\n      0x20\n      add\n        /* \"Solidity/Struct.sol\":1730:1734  _age */\n      dup7\n        /* \"Solidity/Struct.sol\":1713:1770  Myprofile(_name, _age, _race, _country, _weight, _height) */\n      dup2\n      mstore\n      0x20\n      add\n        /* \"Solidity/Struct.sol\":1736:1741  _race */\n      dup6\n        /* \"Solidity/Struct.sol\":1713:1770  Myprofile(_name, _age, _race, _country, _weight, _height) */\n      dup2\n      mstore\n      0x20\n      add\n        /* \"Solidity/Struct.sol\":1743:1751  _country */\n      dup5\n        /* \"Solidity/Struct.sol\":1713:1770  Myprofile(_name, _age, _race, _country, _weight, _height) */\n      dup2\n      mstore\n      0x20\n      add\n        /* \"Solidity/Struct.sol\":1753:1760  _weight */\n      dup4\n        /* \"Solidity/Struct.sol\":1713:1770  Myprofile(_name, _age, _race, _country, _weight, _height) */\n      dup2\n      mstore\n      0x20\n      add\n        /* \"Solidity/Struct.sol\":1762:1769  _height */\n      dup3\n        /* \"Solidity/Struct.sol\":1713:1770  Myprofile(_name, _age, _race, _country, _weight, _height) */\n      dup2\n      mstore\n      pop\n        /* \"Solidity/Struct.sol\":1703:1710  profile */\n      0x00\n        /* \"Solidity/Struct.sol\":1703:1770  profile = Myprofile(_name, _age, _race, _country, _weight, _height) */\n      dup1\n      dup3\n      add\n      mload\n      dup2\n      0x00\n      add\n      swap1\n      dup1\n      mload\n      swap1\n      0x20\n      add\n      swap1\n      tag_18\n      swap3\n      swap2\n      swap1\n      tag_19\n      jump\t// in\n    tag_18:\n      pop\n      0x20\n      dup3\n      add\n      mload\n      dup2\n      0x01\n      add\n      sstore\n      0x40\n      dup3\n      add\n      mload\n      dup2\n      0x02\n      add\n      swap1\n      dup1\n      mload\n      swap1\n      0x20\n      add\n      swap1\n      tag_20\n      swap3\n      swap2\n      swap1\n      tag_19\n      jump\t// in\n    tag_20:\n      pop\n      0x60\n      dup3\n      add\n      mload\n      dup2\n      0x03\n      add\n      swap1\n      dup1\n      mload\n      swap1\n      0x20\n      add\n      swap1\n      tag_21\n      swap3\n      swap2\n      swap1\n      tag_19\n      jump\t// in\n    tag_21:\n      pop\n      0x80\n      dup3\n      add\n      mload\n      dup2\n      0x04\n      add\n      sstore\n      0xa0\n      dup3\n      add\n      mload\n      dup2\n      0x05\n      add\n      sstore\n      swap1\n      pop\n      pop\n        /* \"Solidity/Struct.sol\":1414:1777  function customProfile(... */\n      pop\n      pop\n      pop\n      pop\n      pop\n      pop\n      jump\t// out\n        /* \"Solidity/Struct.sol\":1180:1204  Myprofile public profile */\n    tag_11:\n      0x00\n      dup1\n      0x00\n      add\n      dup1\n      sload\n      tag_22\n      swap1\n      tag_23\n      jump\t// in\n    tag_22:\n      dup1\n      0x1f\n      add\n      0x20\n      dup1\n      swap2\n      div\n      mul\n      0x20\n      add\n      mload(0x40)\n      swap1\n      dup2\n      add\n      0x40\n      mstore\n      dup1\n      swap3\n      swap2\n      swap1\n      dup2\n      dup2\n      mstore\n      0x20\n      add\n      dup3\n      dup1\n      sload\n      tag_24\n      swap1\n      tag_23\n      jump\t// in\n    tag_24:\n      dup1\n      iszero\n      tag_25\n      jumpi\n      dup1\n      0x1f\n      lt\n      tag_26\n      jumpi\n      0x0100\n      dup1\n      dup4\n      sload\n      div\n      mul\n      dup4\n      mstore\n      swap2\n      0x20\n      add\n      swap2\n      jump(tag_25)\n    tag_26:\n      dup3\n      add\n      swap2\n      swap1\n      0x00\n      mstore\n      keccak256(0x00, 0x20)\n      swap1\n    tag_27:\n      dup2\n      sload\n      dup2\n      mstore\n      swap1\n      0x01\n      add\n      swap1\n      0x20\n      add\n      dup1\n      dup4\n      gt\n      tag_27\n      jumpi\n      dup3\n      swap1\n      sub\n      0x1f\n      and\n      dup3\n      add\n      swap2\n    tag_25:\n      pop\n      pop\n      pop\n      pop\n      pop\n      swap1\n      dup1\n      0x01\n      add\n      sload\n      swap1\n      dup1\n      0x02\n      add\n      dup1\n      sload\n      tag_28\n      swap1\n      tag_23\n      jump\t// in\n    tag_28:\n      dup1\n      0x1f\n      add\n      0x20\n      dup1\n      swap2\n      div\n      mul\n      0x20\n      add\n      mload(0x40)\n      swap1\n      dup2\n      add\n      0x40\n      mstore\n      dup1\n      swap3\n      swap2\n      swap1\n      dup2\n      dup2\n      mstore\n      0x20\n      add\n      dup3\n      dup1\n      sload\n      tag_29\n      swap1\n      tag_23\n      jump\t// in\n    tag_29:\n      dup1\n      iszero\n      tag_30\n      jumpi\n      dup1\n      0x1f\n      lt\n      tag_31\n      jumpi\n      0x0100\n      dup1\n      dup4\n      sload\n      div\n      mul\n      dup4\n      mstore\n      swap2\n      0x20\n      add\n      swap2\n      jump(tag_30)\n    tag_31:\n      dup3\n      add\n      swap2\n      swap1\n      0x00\n      mstore\n      keccak256(0x00, 0x20)\n      swap1\n    tag_32:\n      dup2\n      sload\n      dup2\n      mstore\n      swap1\n      0x01\n      add\n      swap1\n      0x20\n      add\n      dup1\n      dup4\n      gt\n      tag_32\n      jumpi\n      dup3\n      swap1\n      sub\n      0x1f\n      and\n      dup3\n      add\n      swap2\n    tag_30:\n      pop\n      pop\n      pop\n      pop\n      pop\n      swap1\n      dup1\n      0x03\n      add\n      dup1\n      sload\n      tag_33\n      swap1\n      tag_23\n      jump\t// in\n    tag_33:\n      dup1\n      0x1f\n      add\n      0x20\n      dup1\n      swap2\n      div\n      mul\n      0x20\n      add\n      mload(0x40)\n      swap1\n      dup2\n      add\n      0x40\n      mstore\n      dup1\n      swap3\n      swap2\n      swap1\n      dup2\n      dup2\n      mstore\n      0x20\n      add\n      dup3\n      dup1\n      sload\n      tag_34\n      swap1\n      tag_23\n      jump\t// in\n    tag_34:\n      dup1\n      iszero\n      tag_35\n      jumpi\n      dup1\n      0x1f\n      lt\n      tag_36\n      jumpi\n      0x0100\n      dup1\n      dup4\n      sload\n      div\n      mul\n      dup4\n      mstore\n      swap2\n      0x20\n      add\n      swap2\n      jump(tag_35)\n    tag_36:\n      dup3\n      add\n      swap2\n      swap1\n      0x00\n      mstore\n      keccak256(0x00, 0x20)\n      swap1\n    tag_37:\n      dup2\n      sload\n      dup2\n      mstore\n      swap1\n      0x01\n      add\n      swap1\n      0x20\n      add\n      dup1\n      dup4\n      gt\n      tag_37\n      jumpi\n      dup3\n      swap1\n      sub\n      0x1f\n      and\n      dup3\n      add\n      swap2\n    tag_35:\n      pop\n      pop\n      pop\n      pop\n      pop\n      swap1\n      dup1\n      0x04\n      add\n      sload\n      swap1\n      dup1\n      0x05\n      add\n      sload\n      swap1\n      pop\n      dup7\n      jump\t// out\n        /* \"Solidity/Struct.sol\":1783:2204  function getProfile()... */\n    tag_15:\n        /* \"Solidity/Struct.sol\":1863:1876  string memory */\n      0x60\n        /* \"Solidity/Struct.sol\":1890:1897  uint256 */\n      0x00\n        /* \"Solidity/Struct.sol\":1911:1924  string memory */\n      0x60\n        /* \"Solidity/Struct.sol\":1938:1951  string memory */\n      dup1\n        /* \"Solidity/Struct.sol\":1965:1972  uint256 */\n      0x00\n        /* \"Solidity/Struct.sol\":1986:1993  uint256 */\n      dup1\n        /* \"Solidity/Struct.sol\":2039:2046  profile */\n      0x00\n        /* \"Solidity/Struct.sol\":2039:2051  profile.name */\n      dup1\n      add\n        /* \"Solidity/Struct.sol\":2065:2072  profile */\n      0x00\n        /* \"Solidity/Struct.sol\":2065:2076  profile.age */\n      0x01\n      add\n      sload\n        /* \"Solidity/Struct.sol\":2090:2097  profile */\n      0x00\n        /* \"Solidity/Struct.sol\":2090:2102  profile.race */\n      0x02\n      add\n        /* \"Solidity/Struct.sol\":2116:2123  profile */\n      0x00\n        /* \"Solidity/Struct.sol\":2116:2131  profile.country */\n      0x03\n      add\n        /* \"Solidity/Struct.sol\":2145:2152  profile */\n      0x00\n        /* \"Solidity/Struct.sol\":2145:2159  profile.weight */\n      0x04\n      add\n      sload\n        /* \"Solidity/Struct.sol\":2173:2180  profile */\n      0x00\n        /* \"Solidity/Struct.sol\":2173:2187  profile.height */\n      0x05\n      add\n      sload\n        /* \"Solidity/Struct.sol\":2018:2197  return (... */\n      dup6\n      dup1\n      sload\n      tag_39\n      swap1\n      tag_23\n      jump\t// in\n    tag_39:\n      dup1\n      0x1f\n      add\n      0x20\n      dup1\n      swap2\n      div\n      mul\n      0x20\n      add\n      mload(0x40)\n      swap1\n      dup2\n      add\n      0x40\n      mstore\n      dup1\n      swap3\n      swap2\n      swap1\n      dup2\n      dup2\n      mstore\n      0x20\n      add\n      dup3\n      dup1\n      sload\n      tag_40\n      swap1\n      tag_23\n      jump\t// in\n    tag_40:\n      dup1\n      iszero\n      tag_41\n      jumpi\n      dup1\n      0x1f\n      lt\n      tag_42\n      jumpi\n      0x0100\n      dup1\n      dup4\n      sload\n      div\n      mul\n      dup4\n      mstore\n      swap2\n      0x20\n      add\n      swap2\n      jump(tag_41)\n    tag_42:\n      dup3\n      add\n      swap2\n      swap1\n      0x00\n      mstore\n      keccak256(0x00, 0x20)\n      swap1\n    tag_43:\n      dup2\n      sload\n      dup2\n      mstore\n      swap1\n      0x01\n      add\n      swap1\n      0x20\n      add\n      dup1\n      dup4\n      gt\n      tag_43\n      jumpi\n      dup3\n      swap1\n      sub\n      0x1f\n      and\n      dup3\n      add\n      swap2\n    tag_41:\n      pop\n      pop\n      pop\n      pop\n      pop\n      swap6\n      pop\n      dup4\n      dup1\n      sload\n      tag_44\n      swap1\n      tag_23\n      jump\t// in\n    tag_44:\n      dup1\n      0x1f\n      add\n      0x20\n      dup1\n      swap2\n      div\n      mul\n      0x20\n      add\n      mload(0x40)\n      swap1\n      dup2\n      add\n      0x40\n      mstore\n      dup1\n      swap3\n      swap2\n      swap1\n      dup2\n      dup2\n      mstore\n      0x20\n      add\n      dup3\n      dup1\n      sload\n      tag_45\n      swap1\n      tag_23\n      jump\t// in\n    tag_45:\n      dup1\n      iszero\n      tag_46\n      jumpi\n      dup1\n      0x1f\n      lt\n      tag_47\n      jumpi\n      0x0100\n      dup1\n      dup4\n      sload\n      div\n      mul\n      dup4\n      mstore\n      swap2\n      0x20\n      add\n      swap2\n      jump(tag_46)\n    tag_47:\n      dup3\n      add\n      swap2\n      swap1\n      0x00\n      mstore\n      keccak256(0x00, 0x20)\n      swap1\n    tag_48:\n      dup2\n      sload\n      dup2\n      mstore\n      swap1\n      0x01\n      add\n      swap1\n      0x20\n      add\n      dup1\n      dup4\n      gt\n      tag_48\n      jumpi\n      dup3\n      swap1\n      sub\n      0x1f\n      and\n      dup3\n      add\n      swap2\n    tag_46:\n      pop\n      pop\n      pop\n      pop\n      pop\n      swap4\n      pop\n      dup3\n      dup1\n      sload\n      tag_49\n      swap1\n      tag_23\n      jump\t// in\n    tag_49:\n      dup1\n      0x1f\n      add\n      0x20\n      dup1\n      swap2\n      div\n      mul\n      0x20\n      add\n      mload(0x40)\n      swap1\n      dup2\n      add\n      0x40\n      mstore\n      dup1\n      swap3\n      swap2\n      swap1\n      dup2\n      dup2\n      mstore\n      0x20\n      add\n      dup3\n      dup1\n      sload\n      tag_50\n      swap1\n      tag_23\n      jump\t// in\n    tag_50:\n      dup1\n      iszero\n      tag_51\n      jumpi\n      dup1\n      0x1f\n      lt\n      tag_52\n      jumpi\n      0x0100\n      dup1\n      dup4\n      sload\n      div\n      mul\n      dup4\n      mstore\n      swap2\n      0x20\n      add\n      swap2\n      jump(tag_51)\n    tag_52:\n      dup3\n      add\n      swap2\n      swap1\n      0x00\n      mstore\n      keccak256(0x00, 0x20)\n      swap1\n    tag_53:\n      dup2\n      sload\n      dup2\n      mstore\n      swap1\n      0x01\n      add\n      swap1\n      0x20\n      add\n      dup1\n      dup4\n      gt\n      tag_53\n      jumpi\n      dup3\n      swap1\n      sub\n      0x1f\n      and\n      dup3\n      add\n      swap2\n    tag_51:\n      pop\n      pop\n      pop\n      pop\n      pop\n      swap3\n      pop\n      swap6\n      pop\n      swap6\n      pop\n      swap6\n      pop\n      swap6\n      pop\n      swap6\n      pop\n      swap6\n      pop\n        /* \"Solidity/Struct.sol\":1783:2204  function getProfile()... */\n      swap1\n      swap2\n      swap3\n      swap4\n      swap5\n      swap6\n      jump\t// out\n    tag_19:\n      dup3\n      dup1\n      sload\n      tag_54\n      swap1\n      tag_23\n      jump\t// in\n    tag_54:\n      swap1\n      0x00\n      mstore\n      keccak256(0x00, 0x20)\n      swap1\n      0x1f\n      add\n      0x20\n      swap1\n      div\n      dup2\n      add\n      swap3\n      dup3\n      tag_56\n      jumpi\n      0x00\n      dup6\n      sstore\n      jump(tag_55)\n    tag_56:\n      dup3\n      0x1f\n      lt\n      tag_57\n      jumpi\n      dup1\n      mload\n      not(0xff)\n      and\n      dup4\n      dup1\n      add\n      or\n      dup6\n      sstore\n      jump(tag_55)\n    tag_57:\n      dup3\n      dup1\n      add\n      0x01\n      add\n      dup6\n      sstore\n      dup3\n      iszero\n      tag_55\n      jumpi\n      swap2\n      dup3\n      add\n    tag_58:\n      dup3\n      dup2\n      gt\n      iszero\n      tag_59\n      jumpi\n      dup3\n      mload\n      dup3\n      sstore\n      swap2\n      0x20\n      add\n      swap2\n      swap1\n      0x01\n      add\n      swap1\n      jump(tag_58)\n    tag_59:\n    tag_55:\n      pop\n      swap1\n      pop\n      tag_60\n      swap2\n      swap1\n      tag_61\n      jump\t// in\n    tag_60:\n      pop\n      swap1\n      jump\t// out\n    tag_61:\n    tag_62:\n      dup1\n      dup3\n      gt\n      iszero\n      tag_63\n      jumpi\n      0x00\n      dup2\n      0x00\n      swap1\n      sstore\n      pop\n      0x01\n      add\n      jump(tag_62)\n    tag_63:\n      pop\n      swap1\n      jump\t// out\n        /* \"#utility.yul\":7:352   */\n    tag_65:\n        /* \"#utility.yul\":85:90   */\n      0x00\n        /* \"#utility.yul\":110:176   */\n      tag_67\n        /* \"#utility.yul\":126:175   */\n      tag_68\n        /* \"#utility.yul\":168:174   */\n      dup5\n        /* \"#utility.yul\":126:175   */\n      tag_69\n      jump\t// in\n    tag_68:\n        /* \"#utility.yul\":110:176   */\n      tag_70\n      jump\t// in\n    tag_67:\n        /* \"#utility.yul\":101:176   */\n      swap1\n      pop\n        /* \"#utility.yul\":199:205   */\n      dup3\n        /* \"#utility.yul\":192:197   */\n      dup2\n        /* \"#utility.yul\":185:206   */\n      mstore\n        /* \"#utility.yul\":237:241   */\n      0x20\n        /* \"#utility.yul\":230:235   */\n      dup2\n        /* \"#utility.yul\":226:242   */\n      add\n        /* \"#utility.yul\":275:278   */\n      dup5\n        /* \"#utility.yul\":266:272   */\n      dup5\n        /* \"#utility.yul\":261:264   */\n      dup5\n        /* \"#utility.yul\":257:273   */\n      add\n        /* \"#utility.yul\":254:279   */\n      gt\n        /* \"#utility.yul\":251:253   */\n      iszero\n      tag_71\n      jumpi\n        /* \"#utility.yul\":292:293   */\n      0x00\n        /* \"#utility.yul\":289:290   */\n      dup1\n        /* \"#utility.yul\":282:294   */\n      revert\n        /* \"#utility.yul\":251:253   */\n    tag_71:\n        /* \"#utility.yul\":305:346   */\n      tag_72\n        /* \"#utility.yul\":339:345   */\n      dup5\n        /* \"#utility.yul\":334:337   */\n      dup3\n        /* \"#utility.yul\":329:332   */\n      dup6\n        /* \"#utility.yul\":305:346   */\n      tag_73\n      jump\t// in\n    tag_72:\n        /* \"#utility.yul\":91:352   */\n      pop\n      swap4\n      swap3\n      pop\n      pop\n      pop\n      jump\t// out\n        /* \"#utility.yul\":372:645   */\n    tag_74:\n        /* \"#utility.yul\":428:433   */\n      0x00\n        /* \"#utility.yul\":477:480   */\n      dup3\n        /* \"#utility.yul\":470:474   */\n      0x1f\n        /* \"#utility.yul\":462:468   */\n      dup4\n        /* \"#utility.yul\":458:475   */\n      add\n        /* \"#utility.yul\":454:481   */\n      slt\n        /* \"#utility.yul\":444:446   */\n      tag_76\n      jumpi\n        /* \"#utility.yul\":495:496   */\n      0x00\n        /* \"#utility.yul\":492:493   */\n      dup1\n        /* \"#utility.yul\":485:497   */\n      revert\n        /* \"#utility.yul\":444:446   */\n    tag_76:\n        /* \"#utility.yul\":535:541   */\n      dup2\n        /* \"#utility.yul\":522:542   */\n      calldataload\n        /* \"#utility.yul\":560:639   */\n      tag_77\n        /* \"#utility.yul\":635:638   */\n      dup5\n        /* \"#utility.yul\":627:633   */\n      dup3\n        /* \"#utility.yul\":620:624   */\n      0x20\n        /* \"#utility.yul\":612:618   */\n      dup7\n        /* \"#utility.yul\":608:625   */\n      add\n        /* \"#utility.yul\":560:639   */\n      tag_65\n      jump\t// in\n    tag_77:\n        /* \"#utility.yul\":551:639   */\n      swap2\n      pop\n        /* \"#utility.yul\":434:645   */\n      pop\n      swap3\n      swap2\n      pop\n      pop\n      jump\t// out\n        /* \"#utility.yul\":651:790   */\n    tag_78:\n        /* \"#utility.yul\":697:702   */\n      0x00\n        /* \"#utility.yul\":735:741   */\n      dup2\n        /* \"#utility.yul\":722:742   */\n      calldataload\n        /* \"#utility.yul\":713:742   */\n      swap1\n      pop\n        /* \"#utility.yul\":751:784   */\n      tag_80\n        /* \"#utility.yul\":778:783   */\n      dup2\n        /* \"#utility.yul\":751:784   */\n      tag_81\n      jump\t// in\n    tag_80:\n        /* \"#utility.yul\":703:790   */\n      swap3\n      swap2\n      pop\n      pop\n      jump\t// out\n        /* \"#utility.yul\":796:2125   */\n    tag_8:\n        /* \"#utility.yul\":930:936   */\n      0x00\n        /* \"#utility.yul\":938:944   */\n      dup1\n        /* \"#utility.yul\":946:952   */\n      0x00\n        /* \"#utility.yul\":954:960   */\n      dup1\n        /* \"#utility.yul\":962:968   */\n      0x00\n        /* \"#utility.yul\":970:976   */\n      dup1\n        /* \"#utility.yul\":1019:1022   */\n      0xc0\n        /* \"#utility.yul\":1007:1016   */\n      dup8\n        /* \"#utility.yul\":998:1005   */\n      dup10\n        /* \"#utility.yul\":994:1017   */\n      sub\n        /* \"#utility.yul\":990:1023   */\n      slt\n        /* \"#utility.yul\":987:989   */\n      iszero\n      tag_83\n      jumpi\n        /* \"#utility.yul\":1036:1037   */\n      0x00\n        /* \"#utility.yul\":1033:1034   */\n      dup1\n        /* \"#utility.yul\":1026:1038   */\n      revert\n        /* \"#utility.yul\":987:989   */\n    tag_83:\n        /* \"#utility.yul\":1107:1108   */\n      0x00\n        /* \"#utility.yul\":1096:1105   */\n      dup8\n        /* \"#utility.yul\":1092:1109   */\n      add\n        /* \"#utility.yul\":1079:1110   */\n      calldataload\n        /* \"#utility.yul\":1137:1155   */\n      0xffffffffffffffff\n        /* \"#utility.yul\":1129:1135   */\n      dup2\n        /* \"#utility.yul\":1126:1156   */\n      gt\n        /* \"#utility.yul\":1123:1125   */\n      iszero\n      tag_84\n      jumpi\n        /* \"#utility.yul\":1169:1170   */\n      0x00\n        /* \"#utility.yul\":1166:1167   */\n      dup1\n        /* \"#utility.yul\":1159:1171   */\n      revert\n        /* \"#utility.yul\":1123:1125   */\n    tag_84:\n        /* \"#utility.yul\":1197:1260   */\n      tag_85\n        /* \"#utility.yul\":1252:1259   */\n      dup10\n        /* \"#utility.yul\":1243:1249   */\n      dup3\n        /* \"#utility.yul\":1232:1241   */\n      dup11\n        /* \"#utility.yul\":1228:1250   */\n      add\n        /* \"#utility.yul\":1197:1260   */\n      tag_74\n      jump\t// in\n    tag_85:\n        /* \"#utility.yul\":1187:1260   */\n      swap7\n      pop\n        /* \"#utility.yul\":1050:1270   */\n      pop\n        /* \"#utility.yul\":1309:1311   */\n      0x20\n        /* \"#utility.yul\":1335:1388   */\n      tag_86\n        /* \"#utility.yul\":1380:1387   */\n      dup10\n        /* \"#utility.yul\":1371:1377   */\n      dup3\n        /* \"#utility.yul\":1360:1369   */\n      dup11\n        /* \"#utility.yul\":1356:1378   */\n      add\n        /* \"#utility.yul\":1335:1388   */\n      tag_78\n      jump\t// in\n    tag_86:\n        /* \"#utility.yul\":1325:1388   */\n      swap6\n      pop\n        /* \"#utility.yul\":1280:1398   */\n      pop\n        /* \"#utility.yul\":1465:1467   */\n      0x40\n        /* \"#utility.yul\":1454:1463   */\n      dup8\n        /* \"#utility.yul\":1450:1468   */\n      add\n        /* \"#utility.yul\":1437:1469   */\n      calldataload\n        /* \"#utility.yul\":1496:1514   */\n      0xffffffffffffffff\n        /* \"#utility.yul\":1488:1494   */\n      dup2\n        /* \"#utility.yul\":1485:1515   */\n      gt\n        /* \"#utility.yul\":1482:1484   */\n      iszero\n      tag_87\n      jumpi\n        /* \"#utility.yul\":1528:1529   */\n      0x00\n        /* \"#utility.yul\":1525:1526   */\n      dup1\n        /* \"#utility.yul\":1518:1530   */\n      revert\n        /* \"#utility.yul\":1482:1484   */\n    tag_87:\n        /* \"#utility.yul\":1556:1619   */\n      tag_88\n        /* \"#utility.yul\":1611:1618   */\n      dup10\n        /* \"#utility.yul\":1602:1608   */\n      dup3\n        /* \"#utility.yul\":1591:1600   */\n      dup11\n        /* \"#utility.yul\":1587:1609   */\n      add\n        /* \"#utility.yul\":1556:1619   */\n      tag_74\n      jump\t// in\n    tag_88:\n        /* \"#utility.yul\":1546:1619   */\n      swap5\n      pop\n        /* \"#utility.yul\":1408:1629   */\n      pop\n        /* \"#utility.yul\":1696:1698   */\n      0x60\n        /* \"#utility.yul\":1685:1694   */\n      dup8\n        /* \"#utility.yul\":1681:1699   */\n      add\n        /* \"#utility.yul\":1668:1700   */\n      calldataload\n        /* \"#utility.yul\":1727:1745   */\n      0xffffffffffffffff\n        /* \"#utility.yul\":1719:1725   */\n      dup2\n        /* \"#utility.yul\":1716:1746   */\n      gt\n        /* \"#utility.yul\":1713:1715   */\n      iszero\n      tag_89\n      jumpi\n        /* \"#utility.yul\":1759:1760   */\n      0x00\n        /* \"#utility.yul\":1756:1757   */\n      dup1\n        /* \"#utility.yul\":1749:1761   */\n      revert\n        /* \"#utility.yul\":1713:1715   */\n    tag_89:\n        /* \"#utility.yul\":1787:1850   */\n      tag_90\n        /* \"#utility.yul\":1842:1849   */\n      dup10\n        /* \"#utility.yul\":1833:1839   */\n      dup3\n        /* \"#utility.yul\":1822:1831   */\n      dup11\n        /* \"#utility.yul\":1818:1840   */\n      add\n        /* \"#utility.yul\":1787:1850   */\n      tag_74\n      jump\t// in\n    tag_90:\n        /* \"#utility.yul\":1777:1850   */\n      swap4\n      pop\n        /* \"#utility.yul\":1639:1860   */\n      pop\n        /* \"#utility.yul\":1899:1902   */\n      0x80\n        /* \"#utility.yul\":1926:1979   */\n      tag_91\n        /* \"#utility.yul\":1971:1978   */\n      dup10\n        /* \"#utility.yul\":1962:1968   */\n      dup3\n        /* \"#utility.yul\":1951:1960   */\n      dup11\n        /* \"#utility.yul\":1947:1969   */\n      add\n        /* \"#utility.yul\":1926:1979   */\n      tag_78\n      jump\t// in\n    tag_91:\n        /* \"#utility.yul\":1916:1979   */\n      swap3\n      pop\n        /* \"#utility.yul\":1870:1989   */\n      pop\n        /* \"#utility.yul\":2028:2031   */\n      0xa0\n        /* \"#utility.yul\":2055:2108   */\n      tag_92\n        /* \"#utility.yul\":2100:2107   */\n      dup10\n        /* \"#utility.yul\":2091:2097   */\n      dup3\n        /* \"#utility.yul\":2080:2089   */\n      dup11\n        /* \"#utility.yul\":2076:2098   */\n      add\n        /* \"#utility.yul\":2055:2108   */\n      tag_78\n      jump\t// in\n    tag_92:\n        /* \"#utility.yul\":2045:2108   */\n      swap2\n      pop\n        /* \"#utility.yul\":1999:2118   */\n      pop\n        /* \"#utility.yul\":977:2125   */\n      swap3\n      swap6\n      pop\n      swap3\n      swap6\n      pop\n      swap3\n      swap6\n      jump\t// out\n        /* \"#utility.yul\":2131:2495   */\n    tag_93:\n        /* \"#utility.yul\":2219:2222   */\n      0x00\n        /* \"#utility.yul\":2247:2286   */\n      tag_95\n        /* \"#utility.yul\":2280:2285   */\n      dup3\n        /* \"#utility.yul\":2247:2286   */\n      tag_96\n      jump\t// in\n    tag_95:\n        /* \"#utility.yul\":2302:2373   */\n      tag_97\n        /* \"#utility.yul\":2366:2372   */\n      dup2\n        /* \"#utility.yul\":2361:2364   */\n      dup6\n        /* \"#utility.yul\":2302:2373   */\n      tag_98\n      jump\t// in\n    tag_97:\n        /* \"#utility.yul\":2295:2373   */\n      swap4\n      pop\n        /* \"#utility.yul\":2382:2434   */\n      tag_99\n        /* \"#utility.yul\":2427:2433   */\n      dup2\n        /* \"#utility.yul\":2422:2425   */\n      dup6\n        /* \"#utility.yul\":2415:2419   */\n      0x20\n        /* \"#utility.yul\":2408:2413   */\n      dup7\n        /* \"#utility.yul\":2404:2420   */\n      add\n        /* \"#utility.yul\":2382:2434   */\n      tag_100\n      jump\t// in\n    tag_99:\n        /* \"#utility.yul\":2459:2488   */\n      tag_101\n        /* \"#utility.yul\":2481:2487   */\n      dup2\n        /* \"#utility.yul\":2459:2488   */\n      tag_102\n      jump\t// in\n    tag_101:\n        /* \"#utility.yul\":2454:2457   */\n      dup5\n        /* \"#utility.yul\":2450:2489   */\n      add\n        /* \"#utility.yul\":2443:2489   */\n      swap2\n      pop\n        /* \"#utility.yul\":2223:2495   */\n      pop\n      swap3\n      swap2\n      pop\n      pop\n      jump\t// out\n        /* \"#utility.yul\":2501:2619   */\n    tag_103:\n        /* \"#utility.yul\":2588:2612   */\n      tag_105\n        /* \"#utility.yul\":2606:2611   */\n      dup2\n        /* \"#utility.yul\":2588:2612   */\n      tag_106\n      jump\t// in\n    tag_105:\n        /* \"#utility.yul\":2583:2586   */\n      dup3\n        /* \"#utility.yul\":2576:2613   */\n      mstore\n        /* \"#utility.yul\":2566:2619   */\n      pop\n      pop\n      jump\t// out\n        /* \"#utility.yul\":2625:3673   */\n    tag_13:\n        /* \"#utility.yul\":2918:2922   */\n      0x00\n        /* \"#utility.yul\":2956:2959   */\n      0xc0\n        /* \"#utility.yul\":2945:2954   */\n      dup3\n        /* \"#utility.yul\":2941:2960   */\n      add\n        /* \"#utility.yul\":2933:2960   */\n      swap1\n      pop\n        /* \"#utility.yul\":3006:3015   */\n      dup2\n        /* \"#utility.yul\":3000:3004   */\n      dup2\n        /* \"#utility.yul\":2996:3016   */\n      sub\n        /* \"#utility.yul\":2992:2993   */\n      0x00\n        /* \"#utility.yul\":2981:2990   */\n      dup4\n        /* \"#utility.yul\":2977:2994   */\n      add\n        /* \"#utility.yul\":2970:3017   */\n      mstore\n        /* \"#utility.yul\":3034:3112   */\n      tag_108\n        /* \"#utility.yul\":3107:3111   */\n      dup2\n        /* \"#utility.yul\":3098:3104   */\n      dup10\n        /* \"#utility.yul\":3034:3112   */\n      tag_93\n      jump\t// in\n    tag_108:\n        /* \"#utility.yul\":3026:3112   */\n      swap1\n      pop\n        /* \"#utility.yul\":3122:3194   */\n      tag_109\n        /* \"#utility.yul\":3190:3192   */\n      0x20\n        /* \"#utility.yul\":3179:3188   */\n      dup4\n        /* \"#utility.yul\":3175:3193   */\n      add\n        /* \"#utility.yul\":3166:3172   */\n      dup9\n        /* \"#utility.yul\":3122:3194   */\n      tag_103\n      jump\t// in\n    tag_109:\n        /* \"#utility.yul\":3241:3250   */\n      dup2\n        /* \"#utility.yul\":3235:3239   */\n      dup2\n        /* \"#utility.yul\":3231:3251   */\n      sub\n        /* \"#utility.yul\":3226:3228   */\n      0x40\n        /* \"#utility.yul\":3215:3224   */\n      dup4\n        /* \"#utility.yul\":3211:3229   */\n      add\n        /* \"#utility.yul\":3204:3252   */\n      mstore\n        /* \"#utility.yul\":3269:3347   */\n      tag_110\n        /* \"#utility.yul\":3342:3346   */\n      dup2\n        /* \"#utility.yul\":3333:3339   */\n      dup8\n        /* \"#utility.yul\":3269:3347   */\n      tag_93\n      jump\t// in\n    tag_110:\n        /* \"#utility.yul\":3261:3347   */\n      swap1\n      pop\n        /* \"#utility.yul\":3394:3403   */\n      dup2\n        /* \"#utility.yul\":3388:3392   */\n      dup2\n        /* \"#utility.yul\":3384:3404   */\n      sub\n        /* \"#utility.yul\":3379:3381   */\n      0x60\n        /* \"#utility.yul\":3368:3377   */\n      dup4\n        /* \"#utility.yul\":3364:3382   */\n      add\n        /* \"#utility.yul\":3357:3405   */\n      mstore\n        /* \"#utility.yul\":3422:3500   */\n      tag_111\n        /* \"#utility.yul\":3495:3499   */\n      dup2\n        /* \"#utility.yul\":3486:3492   */\n      dup7\n        /* \"#utility.yul\":3422:3500   */\n      tag_93\n      jump\t// in\n    tag_111:\n        /* \"#utility.yul\":3414:3500   */\n      swap1\n      pop\n        /* \"#utility.yul\":3510:3583   */\n      tag_112\n        /* \"#utility.yul\":3578:3581   */\n      0x80\n        /* \"#utility.yul\":3567:3576   */\n      dup4\n        /* \"#utility.yul\":3563:3582   */\n      add\n        /* \"#utility.yul\":3554:3560   */\n      dup6\n        /* \"#utility.yul\":3510:3583   */\n      tag_103\n      jump\t// in\n    tag_112:\n        /* \"#utility.yul\":3593:3666   */\n      tag_113\n        /* \"#utility.yul\":3661:3664   */\n      0xa0\n        /* \"#utility.yul\":3650:3659   */\n      dup4\n        /* \"#utility.yul\":3646:3665   */\n      add\n        /* \"#utility.yul\":3637:3643   */\n      dup5\n        /* \"#utility.yul\":3593:3666   */\n      tag_103\n      jump\t// in\n    tag_113:\n        /* \"#utility.yul\":2923:3673   */\n      swap8\n      swap7\n      pop\n      pop\n      pop\n      pop\n      pop\n      pop\n      pop\n      jump\t// out\n        /* \"#utility.yul\":3679:3808   */\n    tag_70:\n        /* \"#utility.yul\":3713:3719   */\n      0x00\n        /* \"#utility.yul\":3740:3760   */\n      tag_115\n      tag_116\n      jump\t// in\n    tag_115:\n        /* \"#utility.yul\":3730:3760   */\n      swap1\n      pop\n        /* \"#utility.yul\":3769:3802   */\n      tag_117\n        /* \"#utility.yul\":3797:3801   */\n      dup3\n        /* \"#utility.yul\":3789:3795   */\n      dup3\n        /* \"#utility.yul\":3769:3802   */\n      tag_118\n      jump\t// in\n    tag_117:\n        /* \"#utility.yul\":3720:3808   */\n      swap2\n      swap1\n      pop\n      jump\t// out\n        /* \"#utility.yul\":3814:3889   */\n    tag_116:\n        /* \"#utility.yul\":3847:3853   */\n      0x00\n        /* \"#utility.yul\":3880:3882   */\n      0x40\n        /* \"#utility.yul\":3874:3883   */\n      mload\n        /* \"#utility.yul\":3864:3883   */\n      swap1\n      pop\n        /* \"#utility.yul\":3854:3889   */\n      swap1\n      jump\t// out\n        /* \"#utility.yul\":3895:4203   */\n    tag_69:\n        /* \"#utility.yul\":3957:3961   */\n      0x00\n        /* \"#utility.yul\":4047:4065   */\n      0xffffffffffffffff\n        /* \"#utility.yul\":4039:4045   */\n      dup3\n        /* \"#utility.yul\":4036:4066   */\n      gt\n        /* \"#utility.yul\":4033:4035   */\n      iszero\n      tag_121\n      jumpi\n        /* \"#utility.yul\":4069:4087   */\n      tag_122\n      tag_123\n      jump\t// in\n    tag_122:\n        /* \"#utility.yul\":4033:4035   */\n    tag_121:\n        /* \"#utility.yul\":4107:4136   */\n      tag_124\n        /* \"#utility.yul\":4129:4135   */\n      dup3\n        /* \"#utility.yul\":4107:4136   */\n      tag_102\n      jump\t// in\n    tag_124:\n        /* \"#utility.yul\":4099:4136   */\n      swap1\n      pop\n        /* \"#utility.yul\":4191:4195   */\n      0x20\n        /* \"#utility.yul\":4185:4189   */\n      dup2\n        /* \"#utility.yul\":4181:4196   */\n      add\n        /* \"#utility.yul\":4173:4196   */\n      swap1\n      pop\n        /* \"#utility.yul\":3962:4203   */\n      swap2\n      swap1\n      pop\n      jump\t// out\n        /* \"#utility.yul\":4209:4308   */\n    tag_96:\n        /* \"#utility.yul\":4261:4267   */\n      0x00\n        /* \"#utility.yul\":4295:4300   */\n      dup2\n        /* \"#utility.yul\":4289:4301   */\n      mload\n        /* \"#utility.yul\":4279:4301   */\n      swap1\n      pop\n        /* \"#utility.yul\":4268:4308   */\n      swap2\n      swap1\n      pop\n      jump\t// out\n        /* \"#utility.yul\":4314:4483   */\n    tag_98:\n        /* \"#utility.yul\":4398:4409   */\n      0x00\n        /* \"#utility.yul\":4432:4438   */\n      dup3\n        /* \"#utility.yul\":4427:4430   */\n      dup3\n        /* \"#utility.yul\":4420:4439   */\n      mstore\n        /* \"#utility.yul\":4472:4476   */\n      0x20\n        /* \"#utility.yul\":4467:4470   */\n      dup3\n        /* \"#utility.yul\":4463:4477   */\n      add\n        /* \"#utility.yul\":4448:4477   */\n      swap1\n      pop\n        /* \"#utility.yul\":4410:4483   */\n      swap3\n      swap2\n      pop\n      pop\n      jump\t// out\n        /* \"#utility.yul\":4489:4566   */\n    tag_106:\n        /* \"#utility.yul\":4526:4533   */\n      0x00\n        /* \"#utility.yul\":4555:4560   */\n      dup2\n        /* \"#utility.yul\":4544:4560   */\n      swap1\n      pop\n        /* \"#utility.yul\":4534:4566   */\n      swap2\n      swap1\n      pop\n      jump\t// out\n        /* \"#utility.yul\":4572:4726   */\n    tag_73:\n        /* \"#utility.yul\":4656:4662   */\n      dup3\n        /* \"#utility.yul\":4651:4654   */\n      dup2\n        /* \"#utility.yul\":4646:4649   */\n      dup4\n        /* \"#utility.yul\":4633:4663   */\n      calldatacopy\n        /* \"#utility.yul\":4718:4719   */\n      0x00\n        /* \"#utility.yul\":4709:4715   */\n      dup4\n        /* \"#utility.yul\":4704:4707   */\n      dup4\n        /* \"#utility.yul\":4700:4716   */\n      add\n        /* \"#utility.yul\":4693:4720   */\n      mstore\n        /* \"#utility.yul\":4623:4726   */\n      pop\n      pop\n      pop\n      jump\t// out\n        /* \"#utility.yul\":4732:5039   */\n    tag_100:\n        /* \"#utility.yul\":4800:4801   */\n      0x00\n        /* \"#utility.yul\":4810:4923   */\n    tag_130:\n        /* \"#utility.yul\":4824:4830   */\n      dup4\n        /* \"#utility.yul\":4821:4822   */\n      dup2\n        /* \"#utility.yul\":4818:4831   */\n      lt\n        /* \"#utility.yul\":4810:4923   */\n      iszero\n      tag_132\n      jumpi\n        /* \"#utility.yul\":4909:4910   */\n      dup1\n        /* \"#utility.yul\":4904:4907   */\n      dup3\n        /* \"#utility.yul\":4900:4911   */\n      add\n        /* \"#utility.yul\":4894:4912   */\n      mload\n        /* \"#utility.yul\":4890:4891   */\n      dup2\n        /* \"#utility.yul\":4885:4888   */\n      dup5\n        /* \"#utility.yul\":4881:4892   */\n      add\n        /* \"#utility.yul\":4874:4913   */\n      mstore\n        /* \"#utility.yul\":4846:4848   */\n      0x20\n        /* \"#utility.yul\":4843:4844   */\n      dup2\n        /* \"#utility.yul\":4839:4849   */\n      add\n        /* \"#utility.yul\":4834:4849   */\n      swap1\n      pop\n        /* \"#utility.yul\":4810:4923   */\n      jump(tag_130)\n    tag_132:\n        /* \"#utility.yul\":4941:4947   */\n      dup4\n        /* \"#utility.yul\":4938:4939   */\n      dup2\n        /* \"#utility.yul\":4935:4948   */\n      gt\n        /* \"#utility.yul\":4932:4934   */\n      iszero\n      tag_133\n      jumpi\n        /* \"#utility.yul\":5021:5022   */\n      0x00\n        /* \"#utility.yul\":5012:5018   */\n      dup5\n        /* \"#utility.yul\":5007:5010   */\n      dup5\n        /* \"#utility.yul\":5003:5019   */\n      add\n        /* \"#utility.yul\":4996:5023   */\n      mstore\n        /* \"#utility.yul\":4932:4934   */\n    tag_133:\n        /* \"#utility.yul\":4781:5039   */\n      pop\n      pop\n      pop\n      pop\n      jump\t// out\n        /* \"#utility.yul\":5045:5365   */\n    tag_23:\n        /* \"#utility.yul\":5089:5095   */\n      0x00\n        /* \"#utility.yul\":5126:5127   */\n      0x02\n        /* \"#utility.yul\":5120:5124   */\n      dup3\n        /* \"#utility.yul\":5116:5128   */\n      div\n        /* \"#utility.yul\":5106:5128   */\n      swap1\n      pop\n        /* \"#utility.yul\":5173:5174   */\n      0x01\n        /* \"#utility.yul\":5167:5171   */\n      dup3\n        /* \"#utility.yul\":5163:5175   */\n      and\n        /* \"#utility.yul\":5194:5212   */\n      dup1\n        /* \"#utility.yul\":5184:5186   */\n      tag_135\n      jumpi\n        /* \"#utility.yul\":5250:5254   */\n      0x7f\n        /* \"#utility.yul\":5242:5248   */\n      dup3\n        /* \"#utility.yul\":5238:5255   */\n      and\n        /* \"#utility.yul\":5228:5255   */\n      swap2\n      pop\n        /* \"#utility.yul\":5184:5186   */\n    tag_135:\n        /* \"#utility.yul\":5312:5314   */\n      0x20\n        /* \"#utility.yul\":5304:5310   */\n      dup3\n        /* \"#utility.yul\":5301:5315   */\n      lt\n        /* \"#utility.yul\":5281:5299   */\n      dup2\n        /* \"#utility.yul\":5278:5316   */\n      eq\n        /* \"#utility.yul\":5275:5277   */\n      iszero\n      tag_136\n      jumpi\n        /* \"#utility.yul\":5331:5349   */\n      tag_137\n      tag_138\n      jump\t// in\n    tag_137:\n        /* \"#utility.yul\":5275:5277   */\n    tag_136:\n        /* \"#utility.yul\":5096:5365   */\n      pop\n      swap2\n      swap1\n      pop\n      jump\t// out\n        /* \"#utility.yul\":5371:5652   */\n    tag_118:\n        /* \"#utility.yul\":5454:5481   */\n      tag_140\n        /* \"#utility.yul\":5476:5480   */\n      dup3\n        /* \"#utility.yul\":5454:5481   */\n      tag_102\n      jump\t// in\n    tag_140:\n        /* \"#utility.yul\":5446:5452   */\n      dup2\n        /* \"#utility.yul\":5442:5482   */\n      add\n        /* \"#utility.yul\":5584:5590   */\n      dup2\n        /* \"#utility.yul\":5572:5582   */\n      dup2\n        /* \"#utility.yul\":5569:5591   */\n      lt\n        /* \"#utility.yul\":5548:5566   */\n      0xffffffffffffffff\n        /* \"#utility.yul\":5536:5546   */\n      dup3\n        /* \"#utility.yul\":5533:5567   */\n      gt\n        /* \"#utility.yul\":5530:5592   */\n      or\n        /* \"#utility.yul\":5527:5529   */\n      iszero\n      tag_141\n      jumpi\n        /* \"#utility.yul\":5595:5613   */\n      tag_142\n      tag_123\n      jump\t// in\n    tag_142:\n        /* \"#utility.yul\":5527:5529   */\n    tag_141:\n        /* \"#utility.yul\":5635:5645   */\n      dup1\n        /* \"#utility.yul\":5631:5633   */\n      0x40\n        /* \"#utility.yul\":5624:5646   */\n      mstore\n        /* \"#utility.yul\":5414:5652   */\n      pop\n      pop\n      pop\n      jump\t// out\n        /* \"#utility.yul\":5658:5838   */\n    tag_138:\n        /* \"#utility.yul\":5706:5783   */\n      0x4e487b7100000000000000000000000000000000000000000000000000000000\n        /* \"#utility.yul\":5703:5704   */\n      0x00\n        /* \"#utility.yul\":5696:5784   */\n      mstore\n        /* \"#utility.yul\":5803:5807   */\n      0x22\n        /* \"#utility.yul\":5800:5801   */\n      0x04\n        /* \"#utility.yul\":5793:5808   */\n      mstore\n        /* \"#utility.yul\":5827:5831   */\n      0x24\n        /* \"#utility.yul\":5824:5825   */\n      0x00\n        /* \"#utility.yul\":5817:5832   */\n      revert\n        /* \"#utility.yul\":5844:6024   */\n    tag_123:\n        /* \"#utility.yul\":5892:5969   */\n      0x4e487b7100000000000000000000000000000000000000000000000000000000\n        /* \"#utility.yul\":5889:5890   */\n      0x00\n        /* \"#utility.yul\":5882:5970   */\n      mstore\n        /* \"#utility.yul\":5989:5993   */\n      0x41\n        /* \"#utility.yul\":5986:5987   */\n      0x04\n        /* \"#utility.yul\":5979:5994   */\n      mstore\n        /* \"#utility.yul\":6013:6017   */\n      0x24\n        /* \"#utility.yul\":6010:6011   */\n      0x00\n        /* \"#utility.yul\":6003:6018   */\n      revert\n        /* \"#utility.yul\":6030:6132   */\n    tag_102:\n        /* \"#utility.yul\":6071:6077   */\n      0x00\n        /* \"#utility.yul\":6122:6124   */\n      0x1f\n        /* \"#utility.yul\":6118:6125   */\n      not\n        /* \"#utility.yul\":6113:6115   */\n      0x1f\n        /* \"#utility.yul\":6106:6111   */\n      dup4\n        /* \"#utility.yul\":6102:6116   */\n      add\n        /* \"#utility.yul\":6098:6126   */\n      and\n        /* \"#utility.yul\":6088:6126   */\n      swap1\n      pop\n        /* \"#utility.yul\":6078:6132   */\n      swap2\n      swap1\n      pop\n      jump\t// out\n        /* \"#utility.yul\":6138:6260   */\n    tag_81:\n        /* \"#utility.yul\":6211:6235   */\n      tag_147\n        /* \"#utility.yul\":6229:6234   */\n      dup2\n        /* \"#utility.yul\":6211:6235   */\n      tag_106\n      jump\t// in\n    tag_147:\n        /* \"#utility.yul\":6204:6209   */\n      dup2\n        /* \"#utility.yul\":6201:6236   */\n      eq\n        /* \"#utility.yul\":6191:6193   */\n      tag_148\n      jumpi\n        /* \"#utility.yul\":6250:6251   */\n      0x00\n        /* \"#utility.yul\":6247:6248   */\n      dup1\n        /* \"#utility.yul\":6240:6252   */\n      revert\n        /* \"#utility.yul\":6191:6193   */\n    tag_148:\n        /* \"#utility.yul\":6181:6260   */\n      pop\n      jump\t// out\n\n    auxdata: 0xa26469706673582212207409996d1707ab0c7fe9d63211a95080a3089f4cbcd2a30bd8624da64b7aac9164736f6c63430008040033\n}\n",
				"bytecode": {
					"linkReferences": {},
					"object": "608060405234801561001057600080fd5b50610986806100206000396000f3fe608060405234801561001057600080fd5b50600436106100415760003560e01c80636328c79214610046578063ab60636c14610062578063d6afc9b114610085575b600080fd5b610060600480360381019061005b919061061a565b6100a8565b005b61006a610156565b60405161007c96959493929190610733565b60405180910390f35b61008d610318565b60405161009f96959493929190610733565b60405180910390f35b6040518060c00160405280878152602001868152602001858152602001848152602001838152602001828152506000808201518160000190805190602001906100f29291906104fa565b506020820151816001015560408201518160020190805190602001906101199291906104fa565b5060608201518160030190805190602001906101369291906104fa565b506080820151816004015560a08201518160050155905050505050505050565b600080600001805461016790610867565b80601f016020809104026020016040519081016040528092919081815260200182805461019390610867565b80156101e05780601f106101b5576101008083540402835291602001916101e0565b820191906000526020600020905b8154815290600101906020018083116101c357829003601f168201915b5050505050908060010154908060020180546101fb90610867565b80601f016020809104026020016040519081016040528092919081815260200182805461022790610867565b80156102745780601f1061024957610100808354040283529160200191610274565b820191906000526020600020905b81548152906001019060200180831161025757829003601f168201915b50505050509080600301805461028990610867565b80601f01602080910402602001604051908101604052809291908181526020018280546102b590610867565b80156103025780601f106102d757610100808354040283529160200191610302565b820191906000526020600020905b8154815290600101906020018083116102e557829003601f168201915b5050505050908060040154908060050154905086565b60606000606080600080600080016000600101546000600201600060030160006004015460006005015485805461034e90610867565b80601f016020809104026020016040519081016040528092919081815260200182805461037a90610867565b80156103c75780601f1061039c576101008083540402835291602001916103c7565b820191906000526020600020905b8154815290600101906020018083116103aa57829003601f168201915b505050505095508380546103da90610867565b80601f016020809104026020016040519081016040528092919081815260200182805461040690610867565b80156104535780601f1061042857610100808354040283529160200191610453565b820191906000526020600020905b81548152906001019060200180831161043657829003601f168201915b5050505050935082805461046690610867565b80601f016020809104026020016040519081016040528092919081815260200182805461049290610867565b80156104df5780601f106104b4576101008083540402835291602001916104df565b820191906000526020600020905b8154815290600101906020018083116104c257829003601f168201915b50505050509250955095509550955095509550909192939495565b82805461050690610867565b90600052602060002090601f016020900481019282610528576000855561056f565b82601f1061054157805160ff191683800117855561056f565b8280016001018555821561056f579182015b8281111561056e578251825591602001919060010190610553565b5b50905061057c9190610580565b5090565b5b80821115610599576000816000905550600101610581565b5090565b60006105b06105ab846107ce565b6107a9565b9050828152602081018484840111156105c857600080fd5b6105d3848285610825565b509392505050565b600082601f8301126105ec57600080fd5b81356105fc84826020860161059d565b91505092915050565b60008135905061061481610939565b92915050565b60008060008060008060c0878903121561063357600080fd5b600087013567ffffffffffffffff81111561064d57600080fd5b61065989828a016105db565b965050602061066a89828a01610605565b955050604087013567ffffffffffffffff81111561068757600080fd5b61069389828a016105db565b945050606087013567ffffffffffffffff8111156106b057600080fd5b6106bc89828a016105db565b93505060806106cd89828a01610605565b92505060a06106de89828a01610605565b9150509295509295509295565b60006106f6826107ff565b610700818561080a565b9350610710818560208601610834565b61071981610928565b840191505092915050565b61072d8161081b565b82525050565b600060c082019050818103600083015261074d81896106eb565b905061075c6020830188610724565b818103604083015261076e81876106eb565b9050818103606083015261078281866106eb565b90506107916080830185610724565b61079e60a0830184610724565b979650505050505050565b60006107b36107c4565b90506107bf8282610899565b919050565b6000604051905090565b600067ffffffffffffffff8211156107e9576107e86108f9565b5b6107f282610928565b9050602081019050919050565b600081519050919050565b600082825260208201905092915050565b6000819050919050565b82818337600083830152505050565b60005b83811015610852578082015181840152602081019050610837565b83811115610861576000848401525b50505050565b6000600282049050600182168061087f57607f821691505b60208210811415610893576108926108ca565b5b50919050565b6108a282610928565b810181811067ffffffffffffffff821117156108c1576108c06108f9565b5b80604052505050565b7f4e487b7100000000000000000000000000000000000000000000000000000000600052602260045260246000fd5b7f4e487b7100000000000000000000000000000000000000000000000000000000600052604160045260246000fd5b6000601f19601f8301169050919050565b6109428161081b565b811461094d57600080fd5b5056fea26469706673582212207409996d1707ab0c7fe9d63211a95080a3089f4cbcd2a30bd8624da64b7aac9164736f6c63430008040033",
					"opcodes": "PUSH1 0x80 PUSH1 0x40 MSTORE CALLVALUE DUP1 ISZERO PUSH2 0x10 JUMPI PUSH1 0x0 DUP1 REVERT JUMPDEST POP PUSH2 0x986 DUP1 PUSH2 0x20 PUSH1 0x0 CODECOPY PUSH1 0x0 RETURN INVALID PUSH1 0x80 PUSH1 0x40 MSTORE CALLVALUE DUP1 ISZERO PUSH2 0x10 JUMPI PUSH1 0x0 DUP1 REVERT JUMPDEST POP PUSH1 0x4 CALLDATASIZE LT PUSH2 0x41 JUMPI PUSH1 0x0 CALLDATALOAD PUSH1 0xE0 SHR DUP1 PUSH4 0x6328C792 EQ PUSH2 0x46 JUMPI DUP1 PUSH4 0xAB60636C EQ PUSH2 0x62 JUMPI DUP1 PUSH4 0xD6AFC9B1 EQ PUSH2 0x85 JUMPI JUMPDEST PUSH1 0x0 DUP1 REVERT JUMPDEST PUSH2 0x60 PUSH1 0x4 DUP1 CALLDATASIZE SUB DUP2 ADD SWAP1 PUSH2 0x5B SWAP2 SWAP1 PUSH2 0x61A JUMP JUMPDEST PUSH2 0xA8 JUMP JUMPDEST STOP JUMPDEST PUSH2 0x6A PUSH2 0x156 JUMP JUMPDEST PUSH1 0x40 MLOAD PUSH2 0x7C SWAP7 SWAP6 SWAP5 SWAP4 SWAP3 SWAP2 SWAP1 PUSH2 0x733 JUMP JUMPDEST PUSH1 0x40 MLOAD DUP1 SWAP2 SUB SWAP1 RETURN JUMPDEST PUSH2 0x8D PUSH2 0x318 JUMP JUMPDEST PUSH1 0x40 MLOAD PUSH2 0x9F SWAP7 SWAP6 SWAP5 SWAP4 SWAP3 SWAP2 SWAP1 PUSH2 0x733 JUMP JUMPDEST PUSH1 0x40 MLOAD DUP1 SWAP2 SUB SWAP1 RETURN JUMPDEST PUSH1 0x40 MLOAD DUP1 PUSH1 0xC0 ADD PUSH1 0x40 MSTORE DUP1 DUP8 DUP2 MSTORE PUSH1 0x20 ADD DUP7 DUP2 MSTORE PUSH1 0x20 ADD DUP6 DUP2 MSTORE PUSH1 0x20 ADD DUP5 DUP2 MSTORE PUSH1 0x20 ADD DUP4 DUP2 MSTORE PUSH1 0x20 ADD DUP3 DUP2 MSTORE POP PUSH1 0x0 DUP1 DUP3 ADD MLOAD DUP2 PUSH1 0x0 ADD SWAP1 DUP1 MLOAD SWAP1 PUSH1 0x20 ADD SWAP1 PUSH2 0xF2 SWAP3 SWAP2 SWAP1 PUSH2 0x4FA JUMP JUMPDEST POP PUSH1 0x20 DUP3 ADD MLOAD DUP2 PUSH1 0x1 ADD SSTORE PUSH1 0x40 DUP3 ADD MLOAD DUP2 PUSH1 0x2 ADD SWAP1 DUP1 MLOAD SWAP1 PUSH1 0x20 ADD SWAP1 PUSH2 0x119 SWAP3 SWAP2 SWAP1 PUSH2 0x4FA JUMP JUMPDEST POP PUSH1 0x60 DUP3 ADD MLOAD DUP2 PUSH1 0x3 ADD SWAP1 DUP1 MLOAD SWAP1 PUSH1 0x20 ADD SWAP1 PUSH2 0x136 SWAP3 SWAP2 SWAP1 PUSH2 0x4FA JUMP JUMPDEST POP PUSH1 0x80 DUP3 ADD MLOAD DUP2 PUSH1 0x4 ADD SSTORE PUSH1 0xA0 DUP3 ADD MLOAD DUP2 PUSH1 0x5 ADD SSTORE SWAP1 POP POP POP POP POP POP POP POP JUMP JUMPDEST PUSH1 0x0 DUP1 PUSH1 0x0 ADD DUP1 SLOAD PUSH2 0x167 SWAP1 PUSH2 0x867 JUMP JUMPDEST DUP1 PUSH1 0x1F ADD PUSH1 0x20 DUP1 SWAP2 DIV MUL PUSH1 0x20 ADD PUSH1 0x40 MLOAD SWAP1 DUP2 ADD PUSH1 0x40 MSTORE DUP1 SWAP3 SWAP2 SWAP1 DUP2 DUP2 MSTORE PUSH1 0x20 ADD DUP3 DUP1 SLOAD PUSH2 0x193 SWAP1 PUSH2 0x867 JUMP JUMPDEST DUP1 ISZERO PUSH2 0x1E0 JUMPI DUP1 PUSH1 0x1F LT PUSH2 0x1B5 JUMPI PUSH2 0x100 DUP1 DUP4 SLOAD DIV MUL DUP4 MSTORE SWAP2 PUSH1 0x20 ADD SWAP2 PUSH2 0x1E0 JUMP JUMPDEST DUP3 ADD SWAP2 SWAP1 PUSH1 0x0 MSTORE PUSH1 0x20 PUSH1 0x0 KECCAK256 SWAP1 JUMPDEST DUP2 SLOAD DUP2 MSTORE SWAP1 PUSH1 0x1 ADD SWAP1 PUSH1 0x20 ADD DUP1 DUP4 GT PUSH2 0x1C3 JUMPI DUP3 SWAP1 SUB PUSH1 0x1F AND DUP3 ADD SWAP2 JUMPDEST POP POP POP POP POP SWAP1 DUP1 PUSH1 0x1 ADD SLOAD SWAP1 DUP1 PUSH1 0x2 ADD DUP1 SLOAD PUSH2 0x1FB SWAP1 PUSH2 0x867 JUMP JUMPDEST DUP1 PUSH1 0x1F ADD PUSH1 0x20 DUP1 SWAP2 DIV MUL PUSH1 0x20 ADD PUSH1 0x40 MLOAD SWAP1 DUP2 ADD PUSH1 0x40 MSTORE DUP1 SWAP3 SWAP2 SWAP1 DUP2 DUP2 MSTORE PUSH1 0x20 ADD DUP3 DUP1 SLOAD PUSH2 0x227 SWAP1 PUSH2 0x867 JUMP JUMPDEST DUP1 ISZERO PUSH2 0x274 JUMPI DUP1 PUSH1 0x1F LT PUSH2 0x249 JUMPI PUSH2 0x100 DUP1 DUP4 SLOAD DIV MUL DUP4 MSTORE SWAP2 PUSH1 0x20 ADD SWAP2 PUSH2 0x274 JUMP JUMPDEST DUP3 ADD SWAP2 SWAP1 PUSH1 0x0 MSTORE PUSH1 0x20 PUSH1 0x0 KECCAK256 SWAP1 JUMPDEST DUP2 SLOAD DUP2 MSTORE SWAP1 PUSH1 0x1 ADD SWAP1 PUSH1 0x20 ADD DUP1 DUP4 GT PUSH2 0x257 JUMPI DUP3 SWAP1 SUB PUSH1 0x1F AND DUP3 ADD SWAP2 JUMPDEST POP POP POP POP POP SWAP1 DUP1 PUSH1 0x3 ADD DUP1 SLOAD PUSH2 0x289 SWAP1 PUSH2 0x867 JUMP JUMPDEST DUP1 PUSH1 0x1F ADD PUSH1 0x20 DUP1 SWAP2 DIV MUL PUSH1 0x20 ADD PUSH1 0x40 MLOAD SWAP1 DUP2 ADD PUSH1 0x40 MSTORE DUP1 SWAP3 SWAP2 SWAP1 DUP2 DUP2 MSTORE PUSH1 0x20 ADD DUP3 DUP1 SLOAD PUSH2 0x2B5 SWAP1 PUSH2 0x867 JUMP JUMPDEST DUP1 ISZERO PUSH2 0x302 JUMPI DUP1 PUSH1 0x1F LT PUSH2 0x2D7 JUMPI PUSH2 0x100 DUP1 DUP4 SLOAD DIV MUL DUP4 MSTORE SWAP2 PUSH1 0x20 ADD SWAP2 PUSH2 0x302 JUMP JUMPDEST DUP3 ADD SWAP2 SWAP1 PUSH1 0x0 MSTORE PUSH1 0x20 PUSH1 0x0 KECCAK256 SWAP1 JUMPDEST DUP2 SLOAD DUP2 MSTORE SWAP1 PUSH1 0x1 ADD SWAP1 PUSH1 0x20 ADD DUP1 DUP4 GT PUSH2 0x2E5 JUMPI DUP3 SWAP1 SUB PUSH1 0x1F AND DUP3 ADD SWAP2 JUMPDEST POP POP POP POP POP SWAP1 DUP1 PUSH1 0x4 ADD SLOAD SWAP1 DUP1 PUSH1 0x5 ADD SLOAD SWAP1 POP DUP7 JUMP JUMPDEST PUSH1 0x60 PUSH1 0x0 PUSH1 0x60 DUP1 PUSH1 0x0 DUP1 PUSH1 0x0 DUP1 ADD PUSH1 0x0 PUSH1 0x1 ADD SLOAD PUSH1 0x0 PUSH1 0x2 ADD PUSH1 0x0 PUSH1 0x3 ADD PUSH1 0x0 PUSH1 0x4 ADD SLOAD PUSH1 0x0 PUSH1 0x5 ADD SLOAD DUP6 DUP1 SLOAD PUSH2 0x34E SWAP1 PUSH2 0x867 JUMP JUMPDEST DUP1 PUSH1 0x1F ADD PUSH1 0x20 DUP1 SWAP2 DIV MUL PUSH1 0x20 ADD PUSH1 0x40 MLOAD SWAP1 DUP2 ADD PUSH1 0x40 MSTORE DUP1 SWAP3 SWAP2 SWAP1 DUP2 DUP2 MSTORE PUSH1 0x20 ADD DUP3 DUP1 SLOAD PUSH2 0x37A SWAP1 PUSH2 0x867 JUMP JUMPDEST DUP1 ISZERO PUSH2 0x3C7 JUMPI DUP1 PUSH1 0x1F LT PUSH2 0x39C JUMPI PUSH2 0x100 DUP1 DUP4 SLOAD DIV MUL DUP4 MSTORE SWAP2 PUSH1 0x20 ADD SWAP2 PUSH2 0x3C7 JUMP JUMPDEST DUP3 ADD SWAP2 SWAP1 PUSH1 0x0 MSTORE PUSH1 0x20 PUSH1 0x0 KECCAK256 SWAP1 JUMPDEST DUP2 SLOAD DUP2 MSTORE SWAP1 PUSH1 0x1 ADD SWAP1 PUSH1 0x20 ADD DUP1 DUP4 GT PUSH2 0x3AA JUMPI DUP3 SWAP1 SUB PUSH1 0x1F AND DUP3 ADD SWAP2 JUMPDEST POP POP POP POP POP SWAP6 POP DUP4 DUP1 SLOAD PUSH2 0x3DA SWAP1 PUSH2 0x867 JUMP JUMPDEST DUP1 PUSH1 0x1F ADD PUSH1 0x20 DUP1 SWAP2 DIV MUL PUSH1 0x20 ADD PUSH1 0x40 MLOAD SWAP1 DUP2 ADD PUSH1 0x40 MSTORE DUP1 SWAP3 SWAP2 SWAP1 DUP2 DUP2 MSTORE PUSH1 0x20 ADD DUP3 DUP1 SLOAD PUSH2 0x406 SWAP1 PUSH2 0x867 JUMP JUMPDEST DUP1 ISZERO PUSH2 0x453 JUMPI DUP1 PUSH1 0x1F LT PUSH2 0x428 JUMPI PUSH2 0x100 DUP1 DUP4 SLOAD DIV MUL DUP4 MSTORE SWAP2 PUSH1 0x20 ADD SWAP2 PUSH2 0x453 JUMP JUMPDEST DUP3 ADD SWAP2 SWAP1 PUSH1 0x0 MSTORE PUSH1 0x20 PUSH1 0x0 KECCAK256 SWAP1 JUMPDEST DUP2 SLOAD DUP2 MSTORE SWAP1 PUSH1 0x1 ADD SWAP1 PUSH1 0x20 ADD DUP1 DUP4 GT PUSH2 0x436 JUMPI DUP3 SWAP1 SUB PUSH1 0x1F AND DUP3 ADD SWAP2 JUMPDEST POP POP POP POP POP SWAP4 POP DUP3 DUP1 SLOAD PUSH2 0x466 SWAP1 PUSH2 0x867 JUMP JUMPDEST DUP1 PUSH1 0x1F ADD PUSH1 0x20 DUP1 SWAP2 DIV MUL PUSH1 0x20 ADD PUSH1 0x40 MLOAD SWAP1 DUP2 ADD PUSH1 0x40 MSTORE DUP1 SWAP3 SWAP2 SWAP1 DUP2 DUP2 MSTORE PUSH1 0x20 ADD DUP3 DUP1 SLOAD PUSH2 0x492 SWAP1 PUSH2 0x867 JUMP JUMPDEST DUP1 ISZERO PUSH2 0x4DF JUMPI DUP1 PUSH1 0x1F LT PUSH2 0x4B4 JUMPI PUSH2 0x100 DUP1 DUP4 SLOAD DIV MUL DUP4 MSTORE SWAP2 PUSH1 0x20 ADD SWAP2 PUSH2 0x4DF JUMP JUMPDEST DUP3 ADD SWAP2 SWAP1 PUSH1 0x0 MSTORE PUSH1 0x20 PUSH1 0x0 KECCAK256 SWAP1 JUMPDEST DUP2 SLOAD DUP2 MSTORE SWAP1 PUSH1 0x1 ADD SWAP1 PUSH1 0x20 ADD DUP1 DUP4 GT PUSH2 0x4C2 JUMPI DUP3 SWAP1 SUB PUSH1 0x1F AND DUP3 ADD SWAP2 JUMPDEST POP POP POP POP POP SWAP3 POP SWAP6 POP SWAP6 POP SWAP6 POP SWAP6 POP SWAP6 POP SWAP6 POP SWAP1 SWAP2 SWAP3 SWAP4 SWAP5 SWAP6 JUMP JUMPDEST DUP3 DUP1 SLOAD PUSH2 0x506 SWAP1 PUSH2 0x867 JUMP JUMPDEST SWAP1 PUSH1 0x0 MSTORE PUSH1 0x20 PUSH1 0x0 KECCAK256 SWAP1 PUSH1 0x1F ADD PUSH1 0x20 SWAP1 DIV DUP2 ADD SWAP3 DUP3 PUSH2 0x528 JUMPI PUSH1 0x0 DUP6 SSTORE PUSH2 0x56F JUMP JUMPDEST DUP3 PUSH1 0x1F LT PUSH2 0x541 JUMPI DUP1 MLOAD PUSH1 0xFF NOT AND DUP4 DUP1 ADD OR DUP6 SSTORE PUSH2 0x56F JUMP JUMPDEST DUP3 DUP1 ADD PUSH1 0x1 ADD DUP6 SSTORE DUP3 ISZERO PUSH2 0x56F JUMPI SWAP2 DUP3 ADD JUMPDEST DUP3 DUP2 GT ISZERO PUSH2 0x56E JUMPI DUP3 MLOAD DUP3 SSTORE SWAP2 PUSH1 0x20 ADD SWAP2 SWAP1 PUSH1 0x1 ADD SWAP1 PUSH2 0x553 JUMP JUMPDEST JUMPDEST POP SWAP1 POP PUSH2 0x57C SWAP2 SWAP1 PUSH2 0x580 JUMP JUMPDEST POP SWAP1 JUMP JUMPDEST JUMPDEST DUP1 DUP3 GT ISZERO PUSH2 0x599 JUMPI PUSH1 0x0 DUP2 PUSH1 0x0 SWAP1 SSTORE POP PUSH1 0x1 ADD PUSH2 0x581 JUMP JUMPDEST POP SWAP1 JUMP JUMPDEST PUSH1 0x0 PUSH2 0x5B0 PUSH2 0x5AB DUP5 PUSH2 0x7CE JUMP JUMPDEST PUSH2 0x7A9 JUMP JUMPDEST SWAP1 POP DUP3 DUP2 MSTORE PUSH1 0x20 DUP2 ADD DUP5 DUP5 DUP5 ADD GT ISZERO PUSH2 0x5C8 JUMPI PUSH1 0x0 DUP1 REVERT JUMPDEST PUSH2 0x5D3 DUP5 DUP3 DUP6 PUSH2 0x825 JUMP JUMPDEST POP SWAP4 SWAP3 POP POP POP JUMP JUMPDEST PUSH1 0x0 DUP3 PUSH1 0x1F DUP4 ADD SLT PUSH2 0x5EC JUMPI PUSH1 0x0 DUP1 REVERT JUMPDEST DUP2 CALLDATALOAD PUSH2 0x5FC DUP5 DUP3 PUSH1 0x20 DUP7 ADD PUSH2 0x59D JUMP JUMPDEST SWAP2 POP POP SWAP3 SWAP2 POP POP JUMP JUMPDEST PUSH1 0x0 DUP2 CALLDATALOAD SWAP1 POP PUSH2 0x614 DUP2 PUSH2 0x939 JUMP JUMPDEST SWAP3 SWAP2 POP POP JUMP JUMPDEST PUSH1 0x0 DUP1 PUSH1 0x0 DUP1 PUSH1 0x0 DUP1 PUSH1 0xC0 DUP8 DUP10 SUB SLT ISZERO PUSH2 0x633 JUMPI PUSH1 0x0 DUP1 REVERT JUMPDEST PUSH1 0x0 DUP8 ADD CALLDATALOAD PUSH8 0xFFFFFFFFFFFFFFFF DUP2 GT ISZERO PUSH2 0x64D JUMPI PUSH1 0x0 DUP1 REVERT JUMPDEST PUSH2 0x659 DUP10 DUP3 DUP11 ADD PUSH2 0x5DB JUMP JUMPDEST SWAP7 POP POP PUSH1 0x20 PUSH2 0x66A DUP10 DUP3 DUP11 ADD PUSH2 0x605 JUMP JUMPDEST SWAP6 POP POP PUSH1 0x40 DUP8 ADD CALLDATALOAD PUSH8 0xFFFFFFFFFFFFFFFF DUP2 GT ISZERO PUSH2 0x687 JUMPI PUSH1 0x0 DUP1 REVERT JUMPDEST PUSH2 0x693 DUP10 DUP3 DUP11 ADD PUSH2 0x5DB JUMP JUMPDEST SWAP5 POP POP PUSH1 0x60 DUP8 ADD CALLDATALOAD PUSH8 0xFFFFFFFFFFFFFFFF DUP2 GT ISZERO PUSH2 0x6B0 JUMPI PUSH1 0x0 DUP1 REVERT JUMPDEST PUSH2 0x6BC DUP10 DUP3 DUP11 ADD PUSH2 0x5DB JUMP JUMPDEST SWAP4 POP POP PUSH1 0x80 PUSH2 0x6CD DUP10 DUP3 DUP11 ADD PUSH2 0x605 JUMP JUMPDEST SWAP3 POP POP PUSH1 0xA0 PUSH2 0x6DE DUP10 DUP3 DUP11 ADD PUSH2 0x605 JUMP JUMPDEST SWAP2 POP POP SWAP3 SWAP6 POP SWAP3 SWAP6 POP SWAP3 SWAP6 JUMP JUMPDEST PUSH1 0x0 PUSH2 0x6F6 DUP3 PUSH2 0x7FF JUMP JUMPDEST PUSH2 0x700 DUP2 DUP6 PUSH2 0x80A JUMP JUMPDEST SWAP4 POP PUSH2 0x710 DUP2 DUP6 PUSH1 0x20 DUP7 ADD PUSH2 0x834 JUMP JUMPDEST PUSH2 0x719 DUP2 PUSH2 0x928 JUMP JUMPDEST DUP5 ADD SWAP2 POP POP SWAP3 SWAP2 POP POP JUMP JUMPDEST PUSH2 0x72D DUP2 PUSH2 0x81B JUMP JUMPDEST DUP3 MSTORE POP POP JUMP JUMPDEST PUSH1 0x0 PUSH1 0xC0 DUP3 ADD SWAP1 POP DUP2 DUP2 SUB PUSH1 0x0 DUP4 ADD MSTORE PUSH2 0x74D DUP2 DUP10 PUSH2 0x6EB JUMP JUMPDEST SWAP1 POP PUSH2 0x75C PUSH1 0x20 DUP4 ADD DUP9 PUSH2 0x724 JUMP JUMPDEST DUP2 DUP2 SUB PUSH1 0x40 DUP4 ADD MSTORE PUSH2 0x76E DUP2 DUP8 PUSH2 0x6EB JUMP JUMPDEST SWAP1 POP DUP2 DUP2 SUB PUSH1 0x60 DUP4 ADD MSTORE PUSH2 0x782 DUP2 DUP7 PUSH2 0x6EB JUMP JUMPDEST SWAP1 POP PUSH2 0x791 PUSH1 0x80 DUP4 ADD DUP6 PUSH2 0x724 JUMP JUMPDEST PUSH2 0x79E PUSH1 0xA0 DUP4 ADD DUP5 PUSH2 0x724 JUMP JUMPDEST SWAP8 SWAP7 POP POP POP POP POP POP POP JUMP JUMPDEST PUSH1 0x0 PUSH2 0x7B3 PUSH2 0x7C4 JUMP JUMPDEST SWAP1 POP PUSH2 0x7BF DUP3 DUP3 PUSH2 0x899 JUMP JUMPDEST SWAP2 SWAP1 POP JUMP JUMPDEST PUSH1 0x0 PUSH1 0x40 MLOAD SWAP1 POP SWAP1 JUMP JUMPDEST PUSH1 0x0 PUSH8 0xFFFFFFFFFFFFFFFF DUP3 GT ISZERO PUSH2 0x7E9 JUMPI PUSH2 0x7E8 PUSH2 0x8F9 JUMP JUMPDEST JUMPDEST PUSH2 0x7F2 DUP3 PUSH2 0x928 JUMP JUMPDEST SWAP1 POP PUSH1 0x20 DUP2 ADD SWAP1 POP SWAP2 SWAP1 POP JUMP JUMPDEST PUSH1 0x0 DUP2 MLOAD SWAP1 POP SWAP2 SWAP1 POP JUMP JUMPDEST PUSH1 0x0 DUP3 DUP3 MSTORE PUSH1 0x20 DUP3 ADD SWAP1 POP SWAP3 SWAP2 POP POP JUMP JUMPDEST PUSH1 0x0 DUP2 SWAP1 POP SWAP2 SWAP1 POP JUMP JUMPDEST DUP3 DUP2 DUP4 CALLDATACOPY PUSH1 0x0 DUP4 DUP4 ADD MSTORE POP POP POP JUMP JUMPDEST PUSH1 0x0 JUMPDEST DUP4 DUP2 LT ISZERO PUSH2 0x852 JUMPI DUP1 DUP3 ADD MLOAD DUP2 DUP5 ADD MSTORE PUSH1 0x20 DUP2 ADD SWAP1 POP PUSH2 0x837 JUMP JUMPDEST DUP4 DUP2 GT ISZERO PUSH2 0x861 JUMPI PUSH1 0x0 DUP5 DUP5 ADD MSTORE JUMPDEST POP POP POP POP JUMP JUMPDEST PUSH1 0x0 PUSH1 0x2 DUP3 DIV SWAP1 POP PUSH1 0x1 DUP3 AND DUP1 PUSH2 0x87F JUMPI PUSH1 0x7F DUP3 AND SWAP2 POP JUMPDEST PUSH1 0x20 DUP3 LT DUP2 EQ ISZERO PUSH2 0x893 JUMPI PUSH2 0x892 PUSH2 0x8CA JUMP JUMPDEST JUMPDEST POP SWAP2 SWAP1 POP JUMP JUMPDEST PUSH2 0x8A2 DUP3 PUSH2 0x928 JUMP JUMPDEST DUP2 ADD DUP2 DUP2 LT PUSH8 0xFFFFFFFFFFFFFFFF DUP3 GT OR ISZERO PUSH2 0x8C1 JUMPI PUSH2 0x8C0 PUSH2 0x8F9 JUMP JUMPDEST JUMPDEST DUP1 PUSH1 0x40 MSTORE POP POP POP JUMP JUMPDEST PUSH32 0x4E487B7100000000000000000000000000000000000000000000000000000000 PUSH1 0x0 MSTORE PUSH1 0x22 PUSH1 0x4 MSTORE PUSH1 0x24 PUSH1 0x0 REVERT JUMPDEST PUSH32 0x4E487B7100000000000000000000000000000000000000000000000000000000 PUSH1 0x0 MSTORE PUSH1 0x41 PUSH1 0x4 MSTORE PUSH1 0x24 PUSH1 0x0 REVERT JUMPDEST PUSH1 0x0 PUSH1 0x1F NOT PUSH1 0x1F DUP4 ADD AND SWAP1 POP SWAP2 SWAP1 POP JUMP JUMPDEST PUSH2 0x942 DUP2 PUSH2 0x81B JUMP JUMPDEST DUP2 EQ PUSH2 0x94D JUMPI PUSH1 0x0 DUP1 REVERT JUMPDEST POP JUMP INVALID LOG2 PUSH5 0x6970667358 0x22 SLT KECCAK256 PUSH21 0x9996D1707AB0C7FE9D63211A95080A3089F4CBCD2 LOG3 SIGNEXTEND 0xD8 PUSH3 0x4DA64B PUSH27 0xAC9164736F6C634300080400330000000000000000000000000000 "
				},
				"gasEstimates": {
					"creation": {
						"codeDepositCost": "487600",
						"executionCost": "524",
						"totalCost": "488124"
					},
					"external": {
						"customProfile(string,uint256,string,string,uint256,uint256)": "infinite",
						"getProfile()": "infinite",
						"profile()": "infinite"
					}
				},
				"methodIdentifiers": {
					"customProfile(string,uint256,string,string,uint256,uint256)": "6328c792",
					"getProfile()": "d6afc9b1",
					"profile()": "ab60636c"
				}
			},
			"storageLayout": {
				"storage": [
					{
						"astId": 24,
						"contract": "Solidity/Struct.sol:LearnStruct",
						"label": "profile",
						"offset": 0,
						"slot": "0",
						"type": "t_struct(Myprofile)21_storage"
					}
				],
				"types": {
					"t_string_storage": {
						"encoding": "bytes",
						"label": "string",
						"numberOfBytes": "32"
					},
					"t_struct(Myprofile)21_storage": {
						"encoding": "inplace",
						"label": "struct LearnStruct.Myprofile",
						"members": [
							{
								"astId": 10,
								"contract": "Solidity/Struct.sol:LearnStruct",
								"label": "name",
								"offset": 0,
								"slot": "0",
								"type": "t_string_storage"
							},
							{
								"astId": 12,
								"contract": "Solidity/Struct.sol:LearnStruct",
								"label": "age",
								"offset": 0,
								"slot": "1",
								"type": "t_uint256"
							},
							{
								"astId": 14,
								"contract": "Solidity/Struct.sol:LearnStruct",
								"label": "race",
								"offset": 0,
								"slot": "2",
								"type": "t_string_storage"
							},
							{
								"astId": 16,
								"contract": "Solidity/Struct.sol:LearnStruct",
								"label": "country",
								"offset": 0,
								"slot": "3",
								"type": "t_string_storage"
							},
							{
								"astId": 18,
								"contract": "Solidity/Struct.sol:LearnStruct",
								"label": "weight",
								"offset": 0,
								"slot": "4",
								"type": "t_uint256"
							},
							{
								"astId": 20,
								"contract": "Solidity/Struct.sol:LearnStruct",
								"label": "height",
								"offset": 0,
								"slot": "5",
								"type": "t_uint256"
							}
						],
						"numberOfBytes": "192"
					},
					"t_uint256": {
						"encoding": "inplace",
						"label": "uint256",
						"numberOfBytes": "32"
					}
				}
			},
			"userdoc": {
				"kind": "user",
				"methods": {},
				"version": 1
			}
		}
	}
}